{"abi":[{"type":"constructor","inputs":[{"name":"_admin","type":"address","internalType":"address"},{"name":"_revenueRecipient","type":"address","internalType":"address"}],"stateMutability":"nonpayable"},{"type":"function","name":"BPS_DENOMINATOR","inputs":[],"outputs":[{"name":"","type":"uint16","internalType":"uint16"}],"stateMutability":"view"},{"type":"function","name":"FEE_BPS","inputs":[],"outputs":[{"name":"","type":"uint16","internalType":"uint16"}],"stateMutability":"view"},{"type":"function","name":"admin","inputs":[],"outputs":[{"name":"","type":"address","internalType":"address"}],"stateMutability":"view"},{"type":"function","name":"buy","inputs":[{"name":"nft","type":"address","internalType":"address"},{"name":"tokenId","type":"uint256","internalType":"uint256"}],"outputs":[],"stateMutability":"payable"},{"type":"function","name":"cancel","inputs":[{"name":"nft","type":"address","internalType":"address"},{"name":"tokenId","type":"uint256","internalType":"uint256"}],"outputs":[],"stateMutability":"nonpayable"},{"type":"function","name":"list","inputs":[{"name":"nft","type":"address","internalType":"address"},{"name":"tokenId","type":"uint256","internalType":"uint256"},{"name":"price","type":"uint256","internalType":"uint256"}],"outputs":[],"stateMutability":"nonpayable"},{"type":"function","name":"listings","inputs":[{"name":"","type":"address","internalType":"address"},{"name":"","type":"uint256","internalType":"uint256"}],"outputs":[{"name":"seller","type":"address","internalType":"address"},{"name":"price","type":"uint256","internalType":"uint256"}],"stateMutability":"view"},{"type":"function","name":"onERC721Received","inputs":[{"name":"","type":"address","internalType":"address"},{"name":"","type":"address","internalType":"address"},{"name":"","type":"uint256","internalType":"uint256"},{"name":"","type":"bytes","internalType":"bytes"}],"outputs":[{"name":"","type":"bytes4","internalType":"bytes4"}],"stateMutability":"pure"},{"type":"function","name":"revenueRecipient","inputs":[],"outputs":[{"name":"","type":"address","internalType":"address"}],"stateMutability":"view"},{"type":"function","name":"setAdmin","inputs":[{"name":"_admin","type":"address","internalType":"address"}],"outputs":[],"stateMutability":"nonpayable"},{"type":"function","name":"setRevenueRecipient","inputs":[{"name":"_recipient","type":"address","internalType":"address"}],"outputs":[],"stateMutability":"nonpayable"},{"type":"event","name":"Cancelled","inputs":[{"name":"nft","type":"address","indexed":true,"internalType":"address"},{"name":"tokenId","type":"uint256","indexed":true,"internalType":"uint256"},{"name":"seller","type":"address","indexed":true,"internalType":"address"}],"anonymous":false},{"type":"event","name":"Listed","inputs":[{"name":"nft","type":"address","indexed":true,"internalType":"address"},{"name":"tokenId","type":"uint256","indexed":true,"internalType":"uint256"},{"name":"seller","type":"address","indexed":true,"internalType":"address"},{"name":"price","type":"uint256","indexed":false,"internalType":"uint256"}],"anonymous":false},{"type":"event","name":"Purchased","inputs":[{"name":"nft","type":"address","indexed":true,"internalType":"address"},{"name":"tokenId","type":"uint256","indexed":true,"internalType":"uint256"},{"name":"buyer","type":"address","indexed":true,"internalType":"address"},{"name":"seller","type":"address","indexed":false,"internalType":"address"},{"name":"price","type":"uint256","indexed":false,"internalType":"uint256"},{"name":"fee","type":"uint256","indexed":false,"internalType":"uint256"}],"anonymous":false}],"bytecode":{"object":"0x608060405234801561000f575f5ffd5b50604051611f0e380380611f0e833981810160405281019061003191906101f1565b5f73ffffffffffffffffffffffffffffffffffffffff168273ffffffffffffffffffffffffffffffffffffffff160361009f576040517f08c379a000000000000000000000000000000000000000000000000000000000815260040161009690610289565b60405180910390fd5b5f73ffffffffffffffffffffffffffffffffffffffff168173ffffffffffffffffffffffffffffffffffffffff160361010d576040517f08c379a0000000000000000000000000000000000000000000000000000000008152600401610104906102f1565b60405180910390fd5b815f5f6101000a81548173ffffffffffffffffffffffffffffffffffffffff021916908373ffffffffffffffffffffffffffffffffffffffff1602179055508060015f6101000a81548173ffffffffffffffffffffffffffffffffffffffff021916908373ffffffffffffffffffffffffffffffffffffffff160217905550505061030f565b5f5ffd5b5f73ffffffffffffffffffffffffffffffffffffffff82169050919050565b5f6101c082610197565b9050919050565b6101d0816101b6565b81146101da575f5ffd5b50565b5f815190506101eb816101c7565b92915050565b5f5f6040838503121561020757610206610193565b5b5f610214858286016101dd565b9250506020610225858286016101dd565b9150509250929050565b5f82825260208201905092915050565b7f41646d696e207a65726f000000000000000000000000000000000000000000005f82015250565b5f610273600a8361022f565b915061027e8261023f565b602082019050919050565b5f6020820190508181035f8301526102a081610267565b9050919050565b7f526576656e7565207a65726f00000000000000000000000000000000000000005f82015250565b5f6102db600c8361022f565b91506102e6826102a7565b602082019050919050565b5f6020820190508181035f830152610308816102cf565b9050919050565b611bf28061031c5f395ff3fe60806040526004361061009a575f3560e01c806398590ef91161006357806398590ef914610191578063bf333f2c146101b9578063cce7ec13146101e3578063dda342bb146101ff578063e1a4521814610227578063f851a440146102515761009a565b806207df301461009e578063150b7a02146100db5780633b26314d14610117578063704b6c021461014157806389fcbdc514610169575b5f5ffd5b3480156100a9575f5ffd5b506100c460048036038101906100bf91906111c0565b61027b565b6040516100d292919061121c565b60405180910390f35b3480156100e6575f5ffd5b5061010160048036038101906100fc91906112a4565b6102c5565b60405161010e9190611362565b60405180910390f35b348015610122575f5ffd5b5061012b6102d9565b604051610138919061137b565b60405180910390f35b34801561014c575f5ffd5b5061016760048036038101906101629190611394565b6102fe565b005b348015610174575f5ffd5b5061018f600480360381019061018a9190611394565b61043c565b005b34801561019c575f5ffd5b506101b760048036038101906101b291906111c0565b61057b565b005b3480156101c4575f5ffd5b506101cd6107f0565b6040516101da91906113db565b60405180910390f35b6101fd60048036038101906101f891906111c0565b6107f5565b005b34801561020a575f5ffd5b50610225600480360381019061022091906113f4565b610d3c565b005b348015610232575f5ffd5b5061023b611101565b60405161024891906113db565b60405180910390f35b34801561025c575f5ffd5b50610265611107565b604051610272919061137b565b60405180910390f35b6002602052815f5260405f20602052805f5260405f205f9150915050805f015f9054906101000a900473ffffffffffffffffffffffffffffffffffffffff16908060010154905082565b5f63150b7a0260e01b905095945050505050565b60015f9054906101000a900473ffffffffffffffffffffffffffffffffffffffff1681565b5f5f9054906101000a900473ffffffffffffffffffffffffffffffffffffffff1673ffffffffffffffffffffffffffffffffffffffff163373ffffffffffffffffffffffffffffffffffffffff161461038c576040517f08c379a00000000000000000000000000000000000000000000000000000000081526004016103839061149e565b60405180910390fd5b5f73ffffffffffffffffffffffffffffffffffffffff168173ffffffffffffffffffffffffffffffffffffffff16036103fa576040517f08c379a00000000000000000000000000000000000000000000000000000000081526004016103f190611506565b60405180910390fd5b805f5f6101000a81548173ffffffffffffffffffffffffffffffffffffffff021916908373ffffffffffffffffffffffffffffffffffffffff16021790555050565b5f5f9054906101000a900473ffffffffffffffffffffffffffffffffffffffff1673ffffffffffffffffffffffffffffffffffffffff163373ffffffffffffffffffffffffffffffffffffffff16146104ca576040517f08c379a00000000000000000000000000000000000000000000000000000000081526004016104c19061149e565b60405180910390fd5b5f73ffffffffffffffffffffffffffffffffffffffff168173ffffffffffffffffffffffffffffffffffffffff1603610538576040517f08c379a000000000000000000000000000000000000000000000000000000000815260040161052f9061156e565b60405180910390fd5b8060015f6101000a81548173ffffffffffffffffffffffffffffffffffffffff021916908373ffffffffffffffffffffffffffffffffffffffff16021790555050565b5f60025f8473ffffffffffffffffffffffffffffffffffffffff1673ffffffffffffffffffffffffffffffffffffffff1681526020019081526020015f205f8381526020019081526020015f206040518060400160405290815f82015f9054906101000a900473ffffffffffffffffffffffffffffffffffffffff1673ffffffffffffffffffffffffffffffffffffffff1673ffffffffffffffffffffffffffffffffffffffff16815260200160018201548152505090505f73ffffffffffffffffffffffffffffffffffffffff16815f015173ffffffffffffffffffffffffffffffffffffffff16036106a4576040517f08c379a000000000000000000000000000000000000000000000000000000000815260040161069b906115d6565b60405180910390fd5b3373ffffffffffffffffffffffffffffffffffffffff16815f015173ffffffffffffffffffffffffffffffffffffffff1614610715576040517f08c379a000000000000000000000000000000000000000000000000000000000815260040161070c9061163e565b60405180910390fd5b60025f8473ffffffffffffffffffffffffffffffffffffffff1673ffffffffffffffffffffffffffffffffffffffff1681526020019081526020015f205f8381526020019081526020015f205f5f82015f6101000a81549073ffffffffffffffffffffffffffffffffffffffff0219169055600182015f905550503373ffffffffffffffffffffffffffffffffffffffff16828473ffffffffffffffffffffffffffffffffffffffff167f0c8fde439b4e72d175ffeb3c5f3c15c6f70f473413f4c2d68f8971c0d629b60d60405160405180910390a4505050565b60fa81565b5f60025f8473ffffffffffffffffffffffffffffffffffffffff1673ffffffffffffffffffffffffffffffffffffffff1681526020019081526020015f205f8381526020019081526020015f206040518060400160405290815f82015f9054906101000a900473ffffffffffffffffffffffffffffffffffffffff1673ffffffffffffffffffffffffffffffffffffffff1673ffffffffffffffffffffffffffffffffffffffff16815260200160018201548152505090505f73ffffffffffffffffffffffffffffffffffffffff16815f015173ffffffffffffffffffffffffffffffffffffffff160361091e576040517f08c379a0000000000000000000000000000000000000000000000000000000008152600401610915906115d6565b60405180910390fd5b8060200151341015610965576040517f08c379a000000000000000000000000000000000000000000000000000000000815260040161095c906116a6565b60405180910390fd5b60025f8473ffffffffffffffffffffffffffffffffffffffff1673ffffffffffffffffffffffffffffffffffffffff1681526020019081526020015f205f8381526020019081526020015f205f5f82015f6101000a81549073ffffffffffffffffffffffffffffffffffffffff0219169055600182015f905550505f61271061ffff1660fa61ffff1683602001516109fd91906116f1565b610a07919061175f565b90505f818360200151610a1a919061178f565b90505f60015f9054906101000a900473ffffffffffffffffffffffffffffffffffffffff1673ffffffffffffffffffffffffffffffffffffffff1683604051610a62906117ef565b5f6040518083038185875af1925050503d805f8114610a9c576040519150601f19603f3d011682016040523d82523d5f602084013e610aa1565b606091505b5050905080610ae5576040517f08c379a0000000000000000000000000000000000000000000000000000000008152600401610adc9061184d565b60405180910390fd5b5f845f015173ffffffffffffffffffffffffffffffffffffffff1683604051610b0d906117ef565b5f6040518083038185875af1925050503d805f8114610b47576040519150601f19603f3d011682016040523d82523d5f602084013e610b4c565b606091505b5050905080610b90576040517f08c379a0000000000000000000000000000000000000000000000000000000008152600401610b87906118b5565b60405180910390fd5b8460200151341115610c55575f3373ffffffffffffffffffffffffffffffffffffffff16866020015134610bc4919061178f565b604051610bd0906117ef565b5f6040518083038185875af1925050503d805f8114610c0a576040519150601f19603f3d011682016040523d82523d5f602084013e610c0f565b606091505b5050905080610c53576040517f08c379a0000000000000000000000000000000000000000000000000000000008152600401610c4a9061191d565b60405180910390fd5b505b8673ffffffffffffffffffffffffffffffffffffffff166342842e0e865f015133896040518463ffffffff1660e01b8152600401610c959392919061193b565b5f604051808303815f87803b158015610cac575f5ffd5b505af1158015610cbe573d5f5f3e3d5ffd5b505050503373ffffffffffffffffffffffffffffffffffffffff16868873ffffffffffffffffffffffffffffffffffffffff167f0931cdd89911cd86c858375d8e2f28f400cc19aabb8bd2f761cc4f8943410a54885f0151896020015189604051610d2b93929190611970565b60405180910390a450505050505050565b5f8111610d7e576040517f08c379a0000000000000000000000000000000000000000000000000000000008152600401610d75906119ef565b60405180910390fd5b5f8390503373ffffffffffffffffffffffffffffffffffffffff168173ffffffffffffffffffffffffffffffffffffffff16636352211e856040518263ffffffff1660e01b8152600401610dd29190611a0d565b602060405180830381865afa158015610ded573d5f5f3e3d5ffd5b505050506040513d601f19601f82011682018060405250810190610e119190611a3a565b73ffffffffffffffffffffffffffffffffffffffff1614610e67576040517f08c379a0000000000000000000000000000000000000000000000000000000008152600401610e5e90611aaf565b60405180910390fd5b3073ffffffffffffffffffffffffffffffffffffffff168173ffffffffffffffffffffffffffffffffffffffff1663081812fc856040518263ffffffff1660e01b8152600401610eb79190611a0d565b602060405180830381865afa158015610ed2573d5f5f3e3d5ffd5b505050506040513d601f19601f82011682018060405250810190610ef69190611a3a565b73ffffffffffffffffffffffffffffffffffffffff161480610f8e57508073ffffffffffffffffffffffffffffffffffffffff1663e985e9c533306040518363ffffffff1660e01b8152600401610f4e929190611acd565b602060405180830381865afa158015610f69573d5f5f3e3d5ffd5b505050506040513d601f19601f82011682018060405250810190610f8d9190611b29565b5b610fcd576040517f08c379a0000000000000000000000000000000000000000000000000000000008152600401610fc490611b9e565b60405180910390fd5b60405180604001604052803373ffffffffffffffffffffffffffffffffffffffff1681526020018381525060025f8673ffffffffffffffffffffffffffffffffffffffff1673ffffffffffffffffffffffffffffffffffffffff1681526020019081526020015f205f8581526020019081526020015f205f820151815f015f6101000a81548173ffffffffffffffffffffffffffffffffffffffff021916908373ffffffffffffffffffffffffffffffffffffffff160217905550602082015181600101559050503373ffffffffffffffffffffffffffffffffffffffff16838573ffffffffffffffffffffffffffffffffffffffff167f8b06cda60618abf2b2d07227f9dd63ec6349ca3269ce0eb18d49122a48362ad8856040516110f39190611a0d565b60405180910390a450505050565b61271081565b5f5f9054906101000a900473ffffffffffffffffffffffffffffffffffffffff1681565b5f5ffd5b5f5ffd5b5f73ffffffffffffffffffffffffffffffffffffffff82169050919050565b5f61115c82611133565b9050919050565b61116c81611152565b8114611176575f5ffd5b50565b5f8135905061118781611163565b92915050565b5f819050919050565b61119f8161118d565b81146111a9575f5ffd5b50565b5f813590506111ba81611196565b92915050565b5f5f604083850312156111d6576111d561112b565b5b5f6111e385828601611179565b92505060206111f4858286016111ac565b9150509250929050565b61120781611152565b82525050565b6112168161118d565b82525050565b5f60408201905061122f5f8301856111fe565b61123c602083018461120d565b9392505050565b5f5ffd5b5f5ffd5b5f5ffd5b5f5f83601f84011261126457611263611243565b5b8235905067ffffffffffffffff81111561128157611280611247565b5b60208301915083600182028301111561129d5761129c61124b565b5b9250929050565b5f5f5f5f5f608086880312156112bd576112bc61112b565b5b5f6112ca88828901611179565b95505060206112db88828901611179565b94505060406112ec888289016111ac565b935050606086013567ffffffffffffffff81111561130d5761130c61112f565b5b6113198882890161124f565b92509250509295509295909350565b5f7fffffffff0000000000000000000000000000000000000000000000000000000082169050919050565b61135c81611328565b82525050565b5f6020820190506113755f830184611353565b92915050565b5f60208201905061138e5f8301846111fe565b92915050565b5f602082840312156113a9576113a861112b565b5b5f6113b684828501611179565b91505092915050565b5f61ffff82169050919050565b6113d5816113bf565b82525050565b5f6020820190506113ee5f8301846113cc565b92915050565b5f5f5f6060848603121561140b5761140a61112b565b5b5f61141886828701611179565b9350506020611429868287016111ac565b925050604061143a868287016111ac565b9150509250925092565b5f82825260208201905092915050565b7f4e6f742061646d696e00000000000000000000000000000000000000000000005f82015250565b5f611488600983611444565b915061149382611454565b602082019050919050565b5f6020820190508181035f8301526114b58161147c565b9050919050565b7f41646d696e207a65726f000000000000000000000000000000000000000000005f82015250565b5f6114f0600a83611444565b91506114fb826114bc565b602082019050919050565b5f6020820190508181035f83015261151d816114e4565b9050919050565b7f526563697069656e74207a65726f0000000000000000000000000000000000005f82015250565b5f611558600e83611444565b915061156382611524565b602082019050919050565b5f6020820190508181035f8301526115858161154c565b9050919050565b7f4e6f74206c6973746564000000000000000000000000000000000000000000005f82015250565b5f6115c0600a83611444565b91506115cb8261158c565b602082019050919050565b5f6020820190508181035f8301526115ed816115b4565b9050919050565b7f4e6f742073656c6c6572000000000000000000000000000000000000000000005f82015250565b5f611628600a83611444565b9150611633826115f4565b602082019050919050565b5f6020820190508181035f8301526116558161161c565b9050919050565b7f496e73756666696369656e74207061796d656e740000000000000000000000005f82015250565b5f611690601483611444565b915061169b8261165c565b602082019050919050565b5f6020820190508181035f8301526116bd81611684565b9050919050565b7f4e487b71000000000000000000000000000000000000000000000000000000005f52601160045260245ffd5b5f6116fb8261118d565b91506117068361118d565b92508282026117148161118d565b9150828204841483151761172b5761172a6116c4565b5b5092915050565b7f4e487b71000000000000000000000000000000000000000000000000000000005f52601260045260245ffd5b5f6117698261118d565b91506117748361118d565b92508261178457611783611732565b5b828204905092915050565b5f6117998261118d565b91506117a48361118d565b92508282039050818111156117bc576117bb6116c4565b5b92915050565b5f81905092915050565b50565b5f6117da5f836117c2565b91506117e5826117cc565b5f82019050919050565b5f6117f9826117cf565b9150819050919050565b7f526576656e7565207472616e73666572206661696c65640000000000000000005f82015250565b5f611837601783611444565b915061184282611803565b602082019050919050565b5f6020820190508181035f8301526118648161182b565b9050919050565b7f5061796f7574206661696c6564000000000000000000000000000000000000005f82015250565b5f61189f600d83611444565b91506118aa8261186b565b602082019050919050565b5f6020820190508181035f8301526118cc81611893565b9050919050565b7f526566756e64206661696c6564000000000000000000000000000000000000005f82015250565b5f611907600d83611444565b9150611912826118d3565b602082019050919050565b5f6020820190508181035f830152611934816118fb565b9050919050565b5f60608201905061194e5f8301866111fe565b61195b60208301856111fe565b611968604083018461120d565b949350505050565b5f6060820190506119835f8301866111fe565b611990602083018561120d565b61199d604083018461120d565b949350505050565b7f5072696365207a65726f000000000000000000000000000000000000000000005f82015250565b5f6119d9600a83611444565b91506119e4826119a5565b602082019050919050565b5f6020820190508181035f830152611a06816119cd565b9050919050565b5f602082019050611a205f83018461120d565b92915050565b5f81519050611a3481611163565b92915050565b5f60208284031215611a4f57611a4e61112b565b5b5f611a5c84828501611a26565b91505092915050565b7f4e6f74206f776e657200000000000000000000000000000000000000000000005f82015250565b5f611a99600983611444565b9150611aa482611a65565b602082019050919050565b5f6020820190508181035f830152611ac681611a8d565b9050919050565b5f604082019050611ae05f8301856111fe565b611aed60208301846111fe565b9392505050565b5f8115159050919050565b611b0881611af4565b8114611b12575f5ffd5b50565b5f81519050611b2381611aff565b92915050565b5f60208284031215611b3e57611b3d61112b565b5b5f611b4b84828501611b15565b91505092915050565b7f4d61726b6574706c616365206e6f7420617070726f76656400000000000000005f82015250565b5f611b88601883611444565b9150611b9382611b54565b602082019050919050565b5f6020820190508181035f830152611bb581611b7c565b905091905056fea2646970667358221220a7dffab0d77a28813ed6e285491af2532a07e9da5f04ccc36e6412a9a365642864736f6c634300081e0033","linkReferences":{}},"methodIdentifiers":{"BPS_DENOMINATOR()":"e1a45218","FEE_BPS()":"bf333f2c","admin()":"f851a440","buy(address,uint256)":"cce7ec13","cancel(address,uint256)":"98590ef9","list(address,uint256,uint256)":"dda342bb","listings(address,uint256)":"0007df30","onERC721Received(address,address,uint256,bytes)":"150b7a02","revenueRecipient()":"3b26314d","setAdmin(address)":"704b6c02","setRevenueRecipient(address)":"89fcbdc5"},"id":41}