{"abi":[{"type":"constructor","inputs":[{"name":"owner_","type":"address","internalType":"address"}],"stateMutability":"nonpayable"},{"type":"function","name":"approve","inputs":[{"name":"to","type":"address","internalType":"address"},{"name":"tokenId","type":"uint256","internalType":"uint256"}],"outputs":[],"stateMutability":"nonpayable"},{"type":"function","name":"balanceOf","inputs":[{"name":"owner","type":"address","internalType":"address"}],"outputs":[{"name":"","type":"uint256","internalType":"uint256"}],"stateMutability":"view"},{"type":"function","name":"burn","inputs":[{"name":"tokenId","type":"uint256","internalType":"uint256"},{"name":"purpose","type":"string","internalType":"string"}],"outputs":[],"stateMutability":"nonpayable"},{"type":"function","name":"burnBatch","inputs":[{"name":"tokenIds","type":"uint256[]","internalType":"uint256[]"},{"name":"purpose","type":"string","internalType":"string"}],"outputs":[],"stateMutability":"nonpayable"},{"type":"function","name":"burnBatchFromApproved","inputs":[{"name":"from","type":"address","internalType":"address"},{"name":"tokenIds","type":"uint256[]","internalType":"uint256[]"},{"name":"purpose","type":"string","internalType":"string"}],"outputs":[],"stateMutability":"nonpayable"},{"type":"function","name":"checkBurnRequirement","inputs":[{"name":"user","type":"address","internalType":"address"},{"name":"tier","type":"uint8","internalType":"enum FishNFT.Tier"},{"name":"amount","type":"uint256","internalType":"uint256"}],"outputs":[{"name":"hasEnough","type":"bool","internalType":"bool"},{"name":"availableIds","type":"uint256[]","internalType":"uint256[]"}],"stateMutability":"view"},{"type":"function","name":"fishingGame","inputs":[],"outputs":[{"name":"","type":"address","internalType":"address"}],"stateMutability":"view"},{"type":"function","name":"getApproved","inputs":[{"name":"tokenId","type":"uint256","internalType":"uint256"}],"outputs":[{"name":"","type":"address","internalType":"address"}],"stateMutability":"view"},{"type":"function","name":"isApprovedForAll","inputs":[{"name":"owner","type":"address","internalType":"address"},{"name":"operator","type":"address","internalType":"address"}],"outputs":[{"name":"","type":"bool","internalType":"bool"}],"stateMutability":"view"},{"type":"function","name":"isBurned","inputs":[{"name":"","type":"uint256","internalType":"uint256"}],"outputs":[{"name":"","type":"bool","internalType":"bool"}],"stateMutability":"view"},{"type":"function","name":"mintFish","inputs":[{"name":"to","type":"address","internalType":"address"},{"name":"tier","type":"uint8","internalType":"enum FishNFT.Tier"}],"outputs":[{"name":"tokenId","type":"uint256","internalType":"uint256"}],"stateMutability":"nonpayable"},{"type":"function","name":"mintFishWithRarity","inputs":[{"name":"to","type":"address","internalType":"address"},{"name":"rarity","type":"uint8","internalType":"enum FishNFT.Rarity"}],"outputs":[{"name":"tokenId","type":"uint256","internalType":"uint256"}],"stateMutability":"nonpayable"},{"type":"function","name":"name","inputs":[],"outputs":[{"name":"","type":"string","internalType":"string"}],"stateMutability":"view"},{"type":"function","name":"nextTokenId","inputs":[],"outputs":[{"name":"","type":"uint256","internalType":"uint256"}],"stateMutability":"view"},{"type":"function","name":"owner","inputs":[],"outputs":[{"name":"","type":"address","internalType":"address"}],"stateMutability":"view"},{"type":"function","name":"ownerOf","inputs":[{"name":"tokenId","type":"uint256","internalType":"uint256"}],"outputs":[{"name":"","type":"address","internalType":"address"}],"stateMutability":"view"},{"type":"function","name":"rarityOf","inputs":[{"name":"","type":"uint256","internalType":"uint256"}],"outputs":[{"name":"","type":"uint8","internalType":"enum FishNFT.Rarity"}],"stateMutability":"view"},{"type":"function","name":"renounceOwnership","inputs":[],"outputs":[],"stateMutability":"nonpayable"},{"type":"function","name":"safeTransferFrom","inputs":[{"name":"from","type":"address","internalType":"address"},{"name":"to","type":"address","internalType":"address"},{"name":"tokenId","type":"uint256","internalType":"uint256"}],"outputs":[],"stateMutability":"nonpayable"},{"type":"function","name":"safeTransferFrom","inputs":[{"name":"from","type":"address","internalType":"address"},{"name":"to","type":"address","internalType":"address"},{"name":"tokenId","type":"uint256","internalType":"uint256"},{"name":"data","type":"bytes","internalType":"bytes"}],"outputs":[],"stateMutability":"nonpayable"},{"type":"function","name":"setApprovalForAll","inputs":[{"name":"operator","type":"address","internalType":"address"},{"name":"approved","type":"bool","internalType":"bool"}],"outputs":[],"stateMutability":"nonpayable"},{"type":"function","name":"setFishingGame","inputs":[{"name":"_game","type":"address","internalType":"address"}],"outputs":[],"stateMutability":"nonpayable"},{"type":"function","name":"setTokenURI","inputs":[{"name":"tokenId","type":"uint256","internalType":"uint256"},{"name":"uri","type":"string","internalType":"string"}],"outputs":[],"stateMutability":"nonpayable"},{"type":"function","name":"setUpgradeContract","inputs":[{"name":"_upgradeContract","type":"address","internalType":"address"}],"outputs":[],"stateMutability":"nonpayable"},{"type":"function","name":"setUpgradeSystem","inputs":[{"name":"_upgradeSystem","type":"address","internalType":"address"}],"outputs":[],"stateMutability":"nonpayable"},{"type":"function","name":"supportsInterface","inputs":[{"name":"interfaceId","type":"bytes4","internalType":"bytes4"}],"outputs":[{"name":"","type":"bool","internalType":"bool"}],"stateMutability":"view"},{"type":"function","name":"symbol","inputs":[],"outputs":[{"name":"","type":"string","internalType":"string"}],"stateMutability":"view"},{"type":"function","name":"tierOf","inputs":[{"name":"","type":"uint256","internalType":"uint256"}],"outputs":[{"name":"","type":"uint8","internalType":"enum FishNFT.Tier"}],"stateMutability":"view"},{"type":"function","name":"tokenURI","inputs":[{"name":"tokenId","type":"uint256","internalType":"uint256"}],"outputs":[{"name":"","type":"string","internalType":"string"}],"stateMutability":"view"},{"type":"function","name":"transferFrom","inputs":[{"name":"from","type":"address","internalType":"address"},{"name":"to","type":"address","internalType":"address"},{"name":"tokenId","type":"uint256","internalType":"uint256"}],"outputs":[],"stateMutability":"nonpayable"},{"type":"function","name":"transferOwnership","inputs":[{"name":"newOwner","type":"address","internalType":"address"}],"outputs":[],"stateMutability":"nonpayable"},{"type":"function","name":"upgradeContract","inputs":[],"outputs":[{"name":"","type":"address","internalType":"address"}],"stateMutability":"view"},{"type":"function","name":"upgradeSystem","inputs":[],"outputs":[{"name":"","type":"address","internalType":"address"}],"stateMutability":"view"},{"type":"event","name":"Approval","inputs":[{"name":"owner","type":"address","indexed":true,"internalType":"address"},{"name":"approved","type":"address","indexed":true,"internalType":"address"},{"name":"tokenId","type":"uint256","indexed":true,"internalType":"uint256"}],"anonymous":false},{"type":"event","name":"ApprovalForAll","inputs":[{"name":"owner","type":"address","indexed":true,"internalType":"address"},{"name":"operator","type":"address","indexed":true,"internalType":"address"},{"name":"approved","type":"bool","indexed":false,"internalType":"bool"}],"anonymous":false},{"type":"event","name":"FishBurned","inputs":[{"name":"user","type":"address","indexed":true,"internalType":"address"},{"name":"tokenIds","type":"uint256[]","indexed":false,"internalType":"uint256[]"},{"name":"tier","type":"uint8","indexed":false,"internalType":"enum FishNFT.Tier"},{"name":"purpose","type":"string","indexed":false,"internalType":"string"}],"anonymous":false},{"type":"event","name":"FishingGameUpdated","inputs":[{"name":"oldGame","type":"address","indexed":true,"internalType":"address"},{"name":"newGame","type":"address","indexed":true,"internalType":"address"}],"anonymous":false},{"type":"event","name":"OwnershipTransferred","inputs":[{"name":"previousOwner","type":"address","indexed":true,"internalType":"address"},{"name":"newOwner","type":"address","indexed":true,"internalType":"address"}],"anonymous":false},{"type":"event","name":"TokenURIFinalized","inputs":[{"name":"tokenId","type":"uint256","indexed":true,"internalType":"uint256"},{"name":"uri","type":"string","indexed":false,"internalType":"string"}],"anonymous":false},{"type":"event","name":"Transfer","inputs":[{"name":"from","type":"address","indexed":true,"internalType":"address"},{"name":"to","type":"address","indexed":true,"internalType":"address"},{"name":"tokenId","type":"uint256","indexed":true,"internalType":"uint256"}],"anonymous":false},{"type":"event","name":"UpgradeContractUpdated","inputs":[{"name":"oldContract","type":"address","indexed":true,"internalType":"address"},{"name":"newContract","type":"address","indexed":true,"internalType":"address"}],"anonymous":false},{"type":"event","name":"UpgradeSystemUpdated","inputs":[{"name":"oldSystem","type":"address","indexed":true,"internalType":"address"},{"name":"newSystem","type":"address","indexed":true,"internalType":"address"}],"anonymous":false},{"type":"error","name":"AlreadyBurned","inputs":[]},{"type":"error","name":"ERC721IncorrectOwner","inputs":[{"name":"sender","type":"address","internalType":"address"},{"name":"tokenId","type":"uint256","internalType":"uint256"},{"name":"owner","type":"address","internalType":"address"}]},{"type":"error","name":"ERC721InsufficientApproval","inputs":[{"name":"operator","type":"address","internalType":"address"},{"name":"tokenId","type":"uint256","internalType":"uint256"}]},{"type":"error","name":"ERC721InvalidApprover","inputs":[{"name":"approver","type":"address","internalType":"address"}]},{"type":"error","name":"ERC721InvalidOperator","inputs":[{"name":"operator","type":"address","internalType":"address"}]},{"type":"error","name":"ERC721InvalidOwner","inputs":[{"name":"owner","type":"address","internalType":"address"}]},{"type":"error","name":"ERC721InvalidReceiver","inputs":[{"name":"receiver","type":"address","internalType":"address"}]},{"type":"error","name":"ERC721InvalidSender","inputs":[{"name":"sender","type":"address","internalType":"address"}]},{"type":"error","name":"ERC721NonexistentToken","inputs":[{"name":"tokenId","type":"uint256","internalType":"uint256"}]},{"type":"error","name":"InsufficientBalance","inputs":[]},{"type":"error","name":"InvalidTier","inputs":[]},{"type":"error","name":"NotFishingGame","inputs":[]},{"type":"error","name":"NotOwner","inputs":[]},{"type":"error","name":"NotUpgradeContract","inputs":[]},{"type":"error","name":"OwnableInvalidOwner","inputs":[{"name":"owner","type":"address","internalType":"address"}]},{"type":"error","name":"OwnableUnauthorizedAccount","inputs":[{"name":"account","type":"address","internalType":"address"}]},{"type":"error","name":"TokenURILocked","inputs":[]}],"bytecode":{"object":"0x608060405234801561000f575f5ffd5b5060405161495638038061495683398181016040528101906100319190610266565b806040518060400160405280600b81526020017f46697368497420466973680000000000000000000000000000000000000000008152506040518060400160405280600481526020017f4649534800000000000000000000000000000000000000000000000000000000815250815f90816100ac91906104ce565b5080600190816100bc91906104ce565b5050505f73ffffffffffffffffffffffffffffffffffffffff168173ffffffffffffffffffffffffffffffffffffffff160361012f575f6040517f1e4fbdf700000000000000000000000000000000000000000000000000000000815260040161012691906105ac565b60405180910390fd5b61013e8161014560201b60201c565b50506105c5565b5f60065f9054906101000a900473ffffffffffffffffffffffffffffffffffffffff1690508160065f6101000a81548173ffffffffffffffffffffffffffffffffffffffff021916908373ffffffffffffffffffffffffffffffffffffffff1602179055508173ffffffffffffffffffffffffffffffffffffffff168173ffffffffffffffffffffffffffffffffffffffff167f8be0079c531659141344cd1fd0a4f28419497f9722a3daafe3b4186f6b6457e060405160405180910390a35050565b5f5ffd5b5f73ffffffffffffffffffffffffffffffffffffffff82169050919050565b5f6102358261020c565b9050919050565b6102458161022b565b811461024f575f5ffd5b50565b5f815190506102608161023c565b92915050565b5f6020828403121561027b5761027a610208565b5b5f61028884828501610252565b91505092915050565b5f81519050919050565b7f4e487b71000000000000000000000000000000000000000000000000000000005f52604160045260245ffd5b7f4e487b71000000000000000000000000000000000000000000000000000000005f52602260045260245ffd5b5f600282049050600182168061030c57607f821691505b60208210810361031f5761031e6102c8565b5b50919050565b5f819050815f5260205f209050919050565b5f6020601f8301049050919050565b5f82821b905092915050565b5f600883026103817fffffffffffffffffffffffffffffffffffffffffffffffffffffffffffffffff82610346565b61038b8683610346565b95508019841693508086168417925050509392505050565b5f819050919050565b5f819050919050565b5f6103cf6103ca6103c5846103a3565b6103ac565b6103a3565b9050919050565b5f819050919050565b6103e8836103b5565b6103fc6103f4826103d6565b848454610352565b825550505050565b5f5f905090565b610413610404565b61041e8184846103df565b505050565b5b81811015610441576104365f8261040b565b600181019050610424565b5050565b601f8211156104865761045781610325565b61046084610337565b8101602085101561046f578190505b61048361047b85610337565b830182610423565b50505b505050565b5f82821c905092915050565b5f6104a65f198460080261048b565b1980831691505092915050565b5f6104be8383610497565b9150826002028217905092915050565b6104d782610291565b67ffffffffffffffff8111156104f0576104ef61029b565b5b6104fa82546102f5565b610505828285610445565b5f60209050601f831160018114610536575f8415610524578287015190505b61052e85826104b3565b865550610595565b601f19841661054486610325565b5f5b8281101561056b57848901518255600182019150602085019450602081019050610546565b868310156105885784890151610584601f891682610497565b8355505b6001600288020188555050505b505050505050565b6105a68161022b565b82525050565b5f6020820190506105bf5f83018461059d565b92915050565b614384806105d25f395ff3fe608060405234801561000f575f5ffd5b50600436106101f9575f3560e01c8063715018a611610118578063b88d4fde116100ab578063dd3b5f9a1161007a578063dd3b5f9a146105d0578063e985e9c514610600578063ea7903af14610630578063ed1b2a9e1461064c578063f2fde38b1461066a576101f9565b8063b88d4fde14610538578063c87b56dd14610554578063da09990314610584578063db44fe07146105a0576101f9565b806395d89b41116100e757806395d89b41146104b2578063a22cb465146104d0578063b5b6ee8b146104ec578063b6bcad261461051c576101f9565b8063715018a61461045057806375794a3c1461045a5780637641e6f3146104785780638da5cb5b14610494576101f9565b80633a3019db116101905780635d10a70f1161015f5780635d10a70f146103b85780635e1beecf146103d45780636352211e146103f057806370a0823114610420576101f9565b80633a3019db1461031e5780633b9968671461034e57806342842e0e1461036c57806353f96df214610388576101f9565b8063162094c4116101cc578063162094c41461029757806318c06b22146102b35780631f4e1504146102e457806323b872dd14610302576101f9565b806301ffc9a7146101fd57806306fdde031461022d578063081812fc1461024b578063095ea7b31461027b575b5f5ffd5b61021760048036038101906102129190612eef565b610686565b6040516102249190612f34565b60405180910390f35b610235610767565b6040516102429190612fbd565b60405180910390f35b61026560048036038101906102609190613010565b6107f6565b604051610272919061307a565b60405180910390f35b610295600480360381019061029091906130bd565b610811565b005b6102b160048036038101906102ac919061315c565b610827565b005b6102cd60048036038101906102c891906131dc565b61095b565b6040516102db9291906132e3565b60405180910390f35b6102ec610c35565b6040516102f9919061307a565b60405180910390f35b61031c60048036038101906103179190613311565b610c5a565b005b61033860048036038101906103339190613361565b610d59565b60405161034591906133ae565b60405180910390f35b610356611066565b604051610363919061307a565b60405180910390f35b61038660048036038101906103819190613311565b61108b565b005b6103a2600480360381019061039d9190613010565b6110aa565b6040516103af919061343a565b60405180910390f35b6103d260048036038101906103cd9190613453565b6110c7565b005b6103ee60048036038101906103e99190613666565b61118d565b005b61040a60048036038101906104059190613010565b6114e9565b604051610417919061307a565b60405180910390f35b61043a60048036038101906104359190613453565b6114fa565b60405161044791906133ae565b60405180910390f35b6104586115b0565b005b6104626115c3565b60405161046f91906133ae565b60405180910390f35b610492600480360381019061048d919061315c565b6115c9565b005b61049c6117b8565b6040516104a9919061307a565b60405180910390f35b6104ba6117e0565b6040516104c79190612fbd565b60405180910390f35b6104ea60048036038101906104e59190613718565b611870565b005b61050660048036038101906105019190613779565b611886565b60405161051391906133ae565b60405180910390f35b61053660048036038101906105319190613453565b611ad4565b005b610552600480360381019061054d9190613855565b611b9a565b005b61056e60048036038101906105699190613010565b611bbf565b60405161057b9190612fbd565b60405180910390f35b61059e6004803603810190610599919061392a565b611cd6565b005b6105ba60048036038101906105b59190613010565b611f77565b6040516105c79190612f34565b60405180910390f35b6105ea60048036038101906105e59190613010565b611f94565b6040516105f791906139ee565b60405180910390f35b61061a60048036038101906106159190613a07565b611fb1565b6040516106279190612f34565b60405180910390f35b61064a60048036038101906106459190613453565b61203f565b005b610654612105565b604051610661919061307a565b60405180910390f35b610684600480360381019061067f9190613453565b61212a565b005b5f7f80ac58cd000000000000000000000000000000000000000000000000000000007bffffffffffffffffffffffffffffffffffffffffffffffffffffffff1916827bffffffffffffffffffffffffffffffffffffffffffffffffffffffff1916148061075057507f5b5e139f000000000000000000000000000000000000000000000000000000007bffffffffffffffffffffffffffffffffffffffffffffffffffffffff1916827bffffffffffffffffffffffffffffffffffffffffffffffffffffffff1916145b80610760575061075f826121ae565b5b9050919050565b60605f805461077590613a72565b80601f01602080910402602001604051908101604052809291908181526020018280546107a190613a72565b80156107ec5780601f106107c3576101008083540402835291602001916107ec565b820191905f5260205f20905b8154815290600101906020018083116107cf57829003601f168201915b5050505050905090565b5f61080082612217565b5061080a8261229d565b9050919050565b610823828261081e6122d6565b6122dd565b5050565b61082f6122ef565b5f73ffffffffffffffffffffffffffffffffffffffff1661084f84612376565b73ffffffffffffffffffffffffffffffffffffffff16036108a5576040517f08c379a000000000000000000000000000000000000000000000000000000000815260040161089c90613aec565b60405180910390fd5b5f600c5f8581526020019081526020015f2080546108c290613a72565b9050146108fb576040517fa16ef1d500000000000000000000000000000000000000000000000000000000815260040160405180910390fd5b8181600c5f8681526020019081526020015f20918261091b929190613cb4565b50827fac520d5f82b91e4c074c83d88929d980bdb12a717e6c5db2424033260484761d838360405161094e929190613dad565b60405180910390a2505050565b5f60605f6004811115610971576109706133c7565b5b846004811115610984576109836133c7565b5b036109c4576040517f08c379a00000000000000000000000000000000000000000000000000000000081526004016109bb90613e19565b60405180910390fd5b5f5f90505f6103e867ffffffffffffffff8111156109e5576109e461347e565b5b604051908082528060200260200182016040528015610a135781602001602082028036833780820191505090505b5090505f60075490505f600190505b818111158015610a3157508684105b15610b27578873ffffffffffffffffffffffffffffffffffffffff16610a5682612376565b73ffffffffffffffffffffffffffffffffffffffff16148015610ab95750876004811115610a8757610a866133c7565b5b60085f8381526020019081526020015f205f9054906101000a900460ff166004811115610ab757610ab66133c7565b5b145b8015610ae05750600a5f8281526020019081526020015f205f9054906101000a900460ff16155b15610b145780838581518110610af957610af8613e37565b5b6020026020010181815250508380610b1090613e91565b9450505b8080610b1f90613e91565b915050610a22565b50858310610bdb578567ffffffffffffffff811115610b4957610b4861347e565b5b604051908082528060200260200182016040528015610b775781602001602082028036833780820191505090505b5093505f5f90505b86811015610bce57828181518110610b9a57610b99613e37565b5b6020026020010151858281518110610bb557610bb4613e37565b5b6020026020010181815250508080600101915050610b7f565b5060019450505050610c2d565b5f5f67ffffffffffffffff811115610bf657610bf561347e565b5b604051908082528060200260200182016040528015610c245781602001602082028036833780820191505090505b50945094505050505b935093915050565b600e5f9054906101000a900473ffffffffffffffffffffffffffffffffffffffff1681565b5f73ffffffffffffffffffffffffffffffffffffffff168273ffffffffffffffffffffffffffffffffffffffff1603610cca575f6040517f64a0ae92000000000000000000000000000000000000000000000000000000008152600401610cc1919061307a565b60405180910390fd5b5f610cdd8383610cd86122d6565b6123af565b90508373ffffffffffffffffffffffffffffffffffffffff168173ffffffffffffffffffffffffffffffffffffffff1614610d53578382826040517f64283d7b000000000000000000000000000000000000000000000000000000008152600401610d4a93929190613ed8565b60405180910390fd5b50505050565b5f600d5f9054906101000a900473ffffffffffffffffffffffffffffffffffffffff1673ffffffffffffffffffffffffffffffffffffffff163373ffffffffffffffffffffffffffffffffffffffff1614158015610e045750600e5f9054906101000a900473ffffffffffffffffffffffffffffffffffffffff1673ffffffffffffffffffffffffffffffffffffffff163373ffffffffffffffffffffffffffffffffffffffff1614155b15610e3b576040517f5e575ce600000000000000000000000000000000000000000000000000000000815260040160405180910390fd5b60075f8154610e4990613e91565b9190508190559050610e5b83826125ba565b8160085f8381526020019081526020015f205f6101000a81548160ff02191690836004811115610e8e57610e8d6133c7565b5b02179055505f600a5f8381526020019081526020015f205f6101000a81548160ff02191690831515021790555060016004811115610ecf57610ece6133c7565b5b826004811115610ee257610ee16133c7565b5b03610f24575f60095f8381526020019081526020015f205f6101000a81548160ff02191690836003811115610f1a57610f196133c7565b5b0217905550611060565b60026004811115610f3857610f376133c7565b5b826004811115610f4b57610f4a6133c7565b5b03610f8e57600160095f8381526020019081526020015f205f6101000a81548160ff02191690836003811115610f8457610f836133c7565b5b021790555061105f565b60036004811115610fa257610fa16133c7565b5b826004811115610fb557610fb46133c7565b5b03610ff857600260095f8381526020019081526020015f205f6101000a81548160ff02191690836003811115610fee57610fed6133c7565b5b021790555061105e565b60048081111561100b5761100a6133c7565b5b82600481111561101e5761101d6133c7565b5b0361105d57600360095f8381526020019081526020015f205f6101000a81548160ff02191690836003811115611057576110566133c7565b5b02179055505b5b5b5b92915050565b600b5f9054906101000a900473ffffffffffffffffffffffffffffffffffffffff1681565b6110a583838360405180602001604052805f815250611b9a565b505050565b6008602052805f5260405f205f915054906101000a900460ff1681565b6110cf6122ef565b8073ffffffffffffffffffffffffffffffffffffffff16600d5f9054906101000a900473ffffffffffffffffffffffffffffffffffffffff1673ffffffffffffffffffffffffffffffffffffffff167f8e6667b723f2bd4279dc72e5323f77c3884a5af21aed9a7316b045861ce8766460405160405180910390a380600d5f6101000a81548173ffffffffffffffffffffffffffffffffffffffff021916908373ffffffffffffffffffffffffffffffffffffffff16021790555050565b5f8251116111d0576040517f08c379a00000000000000000000000000000000000000000000000000000000081526004016111c790613f57565b60405180910390fd5b5f60085f845f815181106111e7576111e6613e37565b5b602002602001015181526020019081526020015f205f9054906101000a900460ff1690505f5f90505b8351811015611490575f84828151811061122d5761122c613e37565b5b602002602001015190505f61124182612376565b90508673ffffffffffffffffffffffffffffffffffffffff168173ffffffffffffffffffffffffffffffffffffffff16146112b1576040517f08c379a00000000000000000000000000000000000000000000000000000000081526004016112a890613fbf565b60405180910390fd5b600a5f8381526020019081526020015f205f9054906101000a900460ff161561130f576040517f08c379a000000000000000000000000000000000000000000000000000000000815260040161130690614027565b60405180910390fd5b836004811115611322576113216133c7565b5b60085f8481526020019081526020015f205f9054906101000a900460ff166004811115611352576113516133c7565b5b14611392576040517f08c379a00000000000000000000000000000000000000000000000000000000081526004016113899061408f565b60405180910390fd5b8073ffffffffffffffffffffffffffffffffffffffff163373ffffffffffffffffffffffffffffffffffffffff1614806113ff57506113d0826107f6565b73ffffffffffffffffffffffffffffffffffffffff163373ffffffffffffffffffffffffffffffffffffffff16145b80611410575061140f8133611fb1565b5b61144f576040517f08c379a0000000000000000000000000000000000000000000000000000000008152600401611446906140f7565b60405180910390fd5b6001600a5f8481526020019081526020015f205f6101000a81548160ff021916908315150217905550611481826125d7565b50508080600101915050611210565b508373ffffffffffffffffffffffffffffffffffffffff167f6a45593c415a254e193c55a8c360d6808137285e3c2a38eeb0313ea95f05edce8483856040516114db93929190614115565b60405180910390a250505050565b5f6114f382612217565b9050919050565b5f5f73ffffffffffffffffffffffffffffffffffffffff168273ffffffffffffffffffffffffffffffffffffffff160361156b575f6040517f89c62b64000000000000000000000000000000000000000000000000000000008152600401611562919061307a565b60405180910390fd5b60035f8373ffffffffffffffffffffffffffffffffffffffff1673ffffffffffffffffffffffffffffffffffffffff1681526020019081526020015f20549050919050565b6115b86122ef565b6115c15f612659565b565b60075481565b3373ffffffffffffffffffffffffffffffffffffffff166115e984612376565b73ffffffffffffffffffffffffffffffffffffffff161461163f576040517f08c379a000000000000000000000000000000000000000000000000000000000815260040161163690613fbf565b60405180910390fd5b600a5f8481526020019081526020015f205f9054906101000a900460ff161561169d576040517f08c379a000000000000000000000000000000000000000000000000000000000815260040161169490614027565b60405180910390fd5b6001600a5f8581526020019081526020015f205f6101000a81548160ff0219169083151502179055506116cf836125d7565b5f60085f8581526020019081526020015f205f9054906101000a900460ff1690505f600167ffffffffffffffff81111561170c5761170b61347e565b5b60405190808252806020026020018201604052801561173a5781602001602082028036833780820191505090505b50905084815f8151811061175157611750613e37565b5b6020026020010181815250503373ffffffffffffffffffffffffffffffffffffffff167f6a45593c415a254e193c55a8c360d6808137285e3c2a38eeb0313ea95f05edce828487876040516117a99493929190614158565b60405180910390a25050505050565b5f60065f9054906101000a900473ffffffffffffffffffffffffffffffffffffffff16905090565b6060600180546117ef90613a72565b80601f016020809104026020016040519081016040528092919081815260200182805461181b90613a72565b80156118665780601f1061183d57610100808354040283529160200191611866565b820191905f5260205f20905b81548152906001019060200180831161184957829003601f168201915b5050505050905090565b61188261187b6122d6565b838361271c565b5050565b5f600d5f9054906101000a900473ffffffffffffffffffffffffffffffffffffffff1673ffffffffffffffffffffffffffffffffffffffff163373ffffffffffffffffffffffffffffffffffffffff161461190d576040517f5e575ce600000000000000000000000000000000000000000000000000000000815260040160405180910390fd5b5f5f6003811115611921576119206133c7565b5b836003811115611934576119336133c7565b5b036119425760019050611a15565b60016003811115611956576119556133c7565b5b836003811115611969576119686133c7565b5b036119775760029050611a14565b6002600381111561198b5761198a6133c7565b5b83600381111561199e5761199d6133c7565b5b036119ac5760039050611a13565b6003808111156119bf576119be6133c7565b5b8360038111156119d2576119d16133c7565b5b036119e05760049050611a12565b6040517fe142361700000000000000000000000000000000000000000000000000000000815260040160405180910390fd5b5b5b5b60075f8154611a2390613e91565b9190508190559150611a3584836125ba565b8060085f8481526020019081526020015f205f6101000a81548160ff02191690836004811115611a6857611a676133c7565b5b02179055505f600a5f8481526020019081526020015f205f6101000a81548160ff0219169083151502179055508260095f8481526020019081526020015f205f6101000a81548160ff02191690836003811115611ac857611ac76133c7565b5b02179055505092915050565b611adc6122ef565b8073ffffffffffffffffffffffffffffffffffffffff16600e5f9054906101000a900473ffffffffffffffffffffffffffffffffffffffff1673ffffffffffffffffffffffffffffffffffffffff167f3b289b706e6aeb058cb914809594044ed54466ac184ef240c804e4cdcac613ec60405160405180910390a380600e5f6101000a81548173ffffffffffffffffffffffffffffffffffffffff021916908373ffffffffffffffffffffffffffffffffffffffff16021790555050565b611ba5848484610c5a565b611bb9611bb06122d6565b85858585612885565b50505050565b60605f73ffffffffffffffffffffffffffffffffffffffff16611be183612376565b73ffffffffffffffffffffffffffffffffffffffff1603611c37576040517f08c379a0000000000000000000000000000000000000000000000000000000008152600401611c2e90613aec565b60405180910390fd5b600c5f8381526020019081526020015f208054611c5390613a72565b80601f0160208091040260200160405190810160405280929190818152602001828054611c7f90613a72565b8015611cca5780601f10611ca157610100808354040283529160200191611cca565b820191905f5260205f20905b815481529060010190602001808311611cad57829003601f168201915b50505050509050919050565b5f8484905011611d1b576040517f08c379a0000000000000000000000000000000000000000000000000000000008152600401611d1290613f57565b60405180910390fd5b5f60085f86865f818110611d3257611d31613e37565b5b9050602002013581526020019081526020015f205f9054906101000a900460ff1690505f5f90505b85859050811015611f19575f868683818110611d7957611d78613e37565b5b9050602002013590503373ffffffffffffffffffffffffffffffffffffffff16611da282612376565b73ffffffffffffffffffffffffffffffffffffffff1614611df8576040517f08c379a0000000000000000000000000000000000000000000000000000000008152600401611def90613fbf565b60405180910390fd5b600a5f8281526020019081526020015f205f9054906101000a900460ff1615611e56576040517f08c379a0000000000000000000000000000000000000000000000000000000008152600401611e4d90614027565b60405180910390fd5b826004811115611e6957611e686133c7565b5b60085f8381526020019081526020015f205f9054906101000a900460ff166004811115611e9957611e986133c7565b5b14611ed9576040517f08c379a0000000000000000000000000000000000000000000000000000000008152600401611ed09061408f565b60405180910390fd5b6001600a5f8381526020019081526020015f205f6101000a81548160ff021916908315150217905550611f0b816125d7565b508080600101915050611d5a565b503373ffffffffffffffffffffffffffffffffffffffff167f6a45593c415a254e193c55a8c360d6808137285e3c2a38eeb0313ea95f05edce8686848787604051611f68959493929190614205565b60405180910390a25050505050565b600a602052805f5260405f205f915054906101000a900460ff1681565b6009602052805f5260405f205f915054906101000a900460ff1681565b5f60055f8473ffffffffffffffffffffffffffffffffffffffff1673ffffffffffffffffffffffffffffffffffffffff1681526020019081526020015f205f8373ffffffffffffffffffffffffffffffffffffffff1673ffffffffffffffffffffffffffffffffffffffff1681526020019081526020015f205f9054906101000a900460ff16905092915050565b6120476122ef565b8073ffffffffffffffffffffffffffffffffffffffff16600b5f9054906101000a900473ffffffffffffffffffffffffffffffffffffffff1673ffffffffffffffffffffffffffffffffffffffff167f367f7d1560165b77cdf77b28e071d3a99a8ef7e337e1ebf2c92ba986526b84ce60405160405180910390a380600b5f6101000a81548173ffffffffffffffffffffffffffffffffffffffff021916908373ffffffffffffffffffffffffffffffffffffffff16021790555050565b600d5f9054906101000a900473ffffffffffffffffffffffffffffffffffffffff1681565b6121326122ef565b5f73ffffffffffffffffffffffffffffffffffffffff168173ffffffffffffffffffffffffffffffffffffffff16036121a2575f6040517f1e4fbdf7000000000000000000000000000000000000000000000000000000008152600401612199919061307a565b60405180910390fd5b6121ab81612659565b50565b5f7f01ffc9a7000000000000000000000000000000000000000000000000000000007bffffffffffffffffffffffffffffffffffffffffffffffffffffffff1916827bffffffffffffffffffffffffffffffffffffffffffffffffffffffff1916149050919050565b5f5f61222283612376565b90505f73ffffffffffffffffffffffffffffffffffffffff168173ffffffffffffffffffffffffffffffffffffffff160361229457826040517f7e27328900000000000000000000000000000000000000000000000000000000815260040161228b91906133ae565b60405180910390fd5b80915050919050565b5f60045f8381526020019081526020015f205f9054906101000a900473ffffffffffffffffffffffffffffffffffffffff169050919050565b5f33905090565b6122ea8383836001612a31565b505050565b6122f76122d6565b73ffffffffffffffffffffffffffffffffffffffff166123156117b8565b73ffffffffffffffffffffffffffffffffffffffff1614612374576123386122d6565b6040517f118cdaa700000000000000000000000000000000000000000000000000000000815260040161236b919061307a565b60405180910390fd5b565b5f60025f8381526020019081526020015f205f9054906101000a900473ffffffffffffffffffffffffffffffffffffffff169050919050565b5f5f6123ba84612376565b90505f73ffffffffffffffffffffffffffffffffffffffff168373ffffffffffffffffffffffffffffffffffffffff16146123fb576123fa818486612bf0565b5b5f73ffffffffffffffffffffffffffffffffffffffff168173ffffffffffffffffffffffffffffffffffffffff16146124865761243a5f855f5f612a31565b600160035f8373ffffffffffffffffffffffffffffffffffffffff1673ffffffffffffffffffffffffffffffffffffffff1681526020019081526020015f205f82825403925050819055505b5f73ffffffffffffffffffffffffffffffffffffffff168573ffffffffffffffffffffffffffffffffffffffff161461250557600160035f8773ffffffffffffffffffffffffffffffffffffffff1673ffffffffffffffffffffffffffffffffffffffff1681526020019081526020015f205f82825401925050819055505b8460025f8681526020019081526020015f205f6101000a81548173ffffffffffffffffffffffffffffffffffffffff021916908373ffffffffffffffffffffffffffffffffffffffff160217905550838573ffffffffffffffffffffffffffffffffffffffff168273ffffffffffffffffffffffffffffffffffffffff167fddf252ad1be2c89b69c2b068fc378daa952ba7f163c4a11628f55a4df523b3ef60405160405180910390a4809150509392505050565b6125d3828260405180602001604052805f815250612cb3565b5050565b5f6125e35f835f6123af565b90505f73ffffffffffffffffffffffffffffffffffffffff168173ffffffffffffffffffffffffffffffffffffffff160361265557816040517f7e27328900000000000000000000000000000000000000000000000000000000815260040161264c91906133ae565b60405180910390fd5b5050565b5f60065f9054906101000a900473ffffffffffffffffffffffffffffffffffffffff1690508160065f6101000a81548173ffffffffffffffffffffffffffffffffffffffff021916908373ffffffffffffffffffffffffffffffffffffffff1602179055508173ffffffffffffffffffffffffffffffffffffffff168173ffffffffffffffffffffffffffffffffffffffff167f8be0079c531659141344cd1fd0a4f28419497f9722a3daafe3b4186f6b6457e060405160405180910390a35050565b5f73ffffffffffffffffffffffffffffffffffffffff168273ffffffffffffffffffffffffffffffffffffffff160361278c57816040517f5b08ba18000000000000000000000000000000000000000000000000000000008152600401612783919061307a565b60405180910390fd5b8060055f8573ffffffffffffffffffffffffffffffffffffffff1673ffffffffffffffffffffffffffffffffffffffff1681526020019081526020015f205f8473ffffffffffffffffffffffffffffffffffffffff1673ffffffffffffffffffffffffffffffffffffffff1681526020019081526020015f205f6101000a81548160ff0219169083151502179055508173ffffffffffffffffffffffffffffffffffffffff168373ffffffffffffffffffffffffffffffffffffffff167f17307eab39ab6107e8899845ad3d59bd9653f200f220920489ca2b5937696c31836040516128789190612f34565b60405180910390a3505050565b5f8373ffffffffffffffffffffffffffffffffffffffff163b1115612a2a578273ffffffffffffffffffffffffffffffffffffffff1663150b7a02868685856040518563ffffffff1660e01b81526004016128e3949392919061429e565b6020604051808303815f875af192505050801561291e57506040513d601f19601f8201168201806040525081019061291b91906142fc565b60015b61299f573d805f811461294c576040519150601f19603f3d011682016040523d82523d5f602084013e612951565b606091505b505f81510361299757836040517f64a0ae9200000000000000000000000000000000000000000000000000000000815260040161298e919061307a565b60405180910390fd5b805160208201fd5b63150b7a0260e01b7bffffffffffffffffffffffffffffffffffffffffffffffffffffffff1916817bffffffffffffffffffffffffffffffffffffffffffffffffffffffff191614612a2857836040517f64a0ae92000000000000000000000000000000000000000000000000000000008152600401612a1f919061307a565b60405180910390fd5b505b5050505050565b8080612a6957505f73ffffffffffffffffffffffffffffffffffffffff168273ffffffffffffffffffffffffffffffffffffffff1614155b15612b9b575f612a7884612217565b90505f73ffffffffffffffffffffffffffffffffffffffff168373ffffffffffffffffffffffffffffffffffffffff1614158015612ae257508273ffffffffffffffffffffffffffffffffffffffff168173ffffffffffffffffffffffffffffffffffffffff1614155b8015612af55750612af38184611fb1565b155b15612b3757826040517fa9fbf51f000000000000000000000000000000000000000000000000000000008152600401612b2e919061307a565b60405180910390fd5b8115612b9957838573ffffffffffffffffffffffffffffffffffffffff168273ffffffffffffffffffffffffffffffffffffffff167f8c5be1e5ebec7d5bd14f71427d1e84f3dd0314c0f7b2291e5b200ac8c7c3b92560405160405180910390a45b505b8360045f8581526020019081526020015f205f6101000a81548173ffffffffffffffffffffffffffffffffffffffff021916908373ffffffffffffffffffffffffffffffffffffffff16021790555050505050565b612bfb838383612cd6565b612cae575f73ffffffffffffffffffffffffffffffffffffffff168373ffffffffffffffffffffffffffffffffffffffff1603612c6f57806040517f7e273289000000000000000000000000000000000000000000000000000000008152600401612c6691906133ae565b60405180910390fd5b81816040517f177e802f000000000000000000000000000000000000000000000000000000008152600401612ca5929190614327565b60405180910390fd5b505050565b612cbd8383612d96565b612cd1612cc86122d6565b5f858585612885565b505050565b5f5f73ffffffffffffffffffffffffffffffffffffffff168373ffffffffffffffffffffffffffffffffffffffff1614158015612d8d57508273ffffffffffffffffffffffffffffffffffffffff168473ffffffffffffffffffffffffffffffffffffffff161480612d4e5750612d4d8484611fb1565b5b80612d8c57508273ffffffffffffffffffffffffffffffffffffffff16612d748361229d565b73ffffffffffffffffffffffffffffffffffffffff16145b5b90509392505050565b5f73ffffffffffffffffffffffffffffffffffffffff168273ffffffffffffffffffffffffffffffffffffffff1603612e06575f6040517f64a0ae92000000000000000000000000000000000000000000000000000000008152600401612dfd919061307a565b60405180910390fd5b5f612e1283835f6123af565b90505f73ffffffffffffffffffffffffffffffffffffffff168173ffffffffffffffffffffffffffffffffffffffff1614612e84575f6040517f73c6ac6e000000000000000000000000000000000000000000000000000000008152600401612e7b919061307a565b60405180910390fd5b505050565b5f604051905090565b5f5ffd5b5f5ffd5b5f7fffffffff0000000000000000000000000000000000000000000000000000000082169050919050565b612ece81612e9a565b8114612ed8575f5ffd5b50565b5f81359050612ee981612ec5565b92915050565b5f60208284031215612f0457612f03612e92565b5b5f612f1184828501612edb565b91505092915050565b5f8115159050919050565b612f2e81612f1a565b82525050565b5f602082019050612f475f830184612f25565b92915050565b5f81519050919050565b5f82825260208201905092915050565b8281835e5f83830152505050565b5f601f19601f8301169050919050565b5f612f8f82612f4d565b612f998185612f57565b9350612fa9818560208601612f67565b612fb281612f75565b840191505092915050565b5f6020820190508181035f830152612fd58184612f85565b905092915050565b5f819050919050565b612fef81612fdd565b8114612ff9575f5ffd5b50565b5f8135905061300a81612fe6565b92915050565b5f6020828403121561302557613024612e92565b5b5f61303284828501612ffc565b91505092915050565b5f73ffffffffffffffffffffffffffffffffffffffff82169050919050565b5f6130648261303b565b9050919050565b6130748161305a565b82525050565b5f60208201905061308d5f83018461306b565b92915050565b61309c8161305a565b81146130a6575f5ffd5b50565b5f813590506130b781613093565b92915050565b5f5f604083850312156130d3576130d2612e92565b5b5f6130e0858286016130a9565b92505060206130f185828601612ffc565b9150509250929050565b5f5ffd5b5f5ffd5b5f5ffd5b5f5f83601f84011261311c5761311b6130fb565b5b8235905067ffffffffffffffff811115613139576131386130ff565b5b60208301915083600182028301111561315557613154613103565b5b9250929050565b5f5f5f6040848603121561317357613172612e92565b5b5f61318086828701612ffc565b935050602084013567ffffffffffffffff8111156131a1576131a0612e96565b5b6131ad86828701613107565b92509250509250925092565b600581106131c5575f5ffd5b50565b5f813590506131d6816131b9565b92915050565b5f5f5f606084860312156131f3576131f2612e92565b5b5f613200868287016130a9565b9350506020613211868287016131c8565b925050604061322286828701612ffc565b9150509250925092565b5f81519050919050565b5f82825260208201905092915050565b5f819050602082019050919050565b61325e81612fdd565b82525050565b5f61326f8383613255565b60208301905092915050565b5f602082019050919050565b5f6132918261322c565b61329b8185613236565b93506132a683613246565b805f5b838110156132d65781516132bd8882613264565b97506132c88361327b565b9250506001810190506132a9565b5085935050505092915050565b5f6040820190506132f65f830185612f25565b81810360208301526133088184613287565b90509392505050565b5f5f5f6060848603121561332857613327612e92565b5b5f613335868287016130a9565b9350506020613346868287016130a9565b925050604061335786828701612ffc565b9150509250925092565b5f5f6040838503121561337757613376612e92565b5b5f613384858286016130a9565b9250506020613395858286016131c8565b9150509250929050565b6133a881612fdd565b82525050565b5f6020820190506133c15f83018461339f565b92915050565b7f4e487b71000000000000000000000000000000000000000000000000000000005f52602160045260245ffd5b60058110613405576134046133c7565b5b50565b5f819050613415826133f4565b919050565b5f61342482613408565b9050919050565b6134348161341a565b82525050565b5f60208201905061344d5f83018461342b565b92915050565b5f6020828403121561346857613467612e92565b5b5f613475848285016130a9565b91505092915050565b7f4e487b71000000000000000000000000000000000000000000000000000000005f52604160045260245ffd5b6134b482612f75565b810181811067ffffffffffffffff821117156134d3576134d261347e565b5b80604052505050565b5f6134e5612e89565b90506134f182826134ab565b919050565b5f67ffffffffffffffff8211156135105761350f61347e565b5b602082029050602081019050919050565b5f61353361352e846134f6565b6134dc565b9050808382526020820190506020840283018581111561355657613555613103565b5b835b8181101561357f578061356b8882612ffc565b845260208401935050602081019050613558565b5050509392505050565b5f82601f83011261359d5761359c6130fb565b5b81356135ad848260208601613521565b91505092915050565b5f5ffd5b5f67ffffffffffffffff8211156135d4576135d361347e565b5b6135dd82612f75565b9050602081019050919050565b828183375f83830152505050565b5f61360a613605846135ba565b6134dc565b905082815260208101848484011115613626576136256135b6565b5b6136318482856135ea565b509392505050565b5f82601f83011261364d5761364c6130fb565b5b813561365d8482602086016135f8565b91505092915050565b5f5f5f6060848603121561367d5761367c612e92565b5b5f61368a868287016130a9565b935050602084013567ffffffffffffffff8111156136ab576136aa612e96565b5b6136b786828701613589565b925050604084013567ffffffffffffffff8111156136d8576136d7612e96565b5b6136e486828701613639565b9150509250925092565b6136f781612f1a565b8114613701575f5ffd5b50565b5f81359050613712816136ee565b92915050565b5f5f6040838503121561372e5761372d612e92565b5b5f61373b858286016130a9565b925050602061374c85828601613704565b9150509250929050565b60048110613762575f5ffd5b50565b5f8135905061377381613756565b92915050565b5f5f6040838503121561378f5761378e612e92565b5b5f61379c858286016130a9565b92505060206137ad85828601613765565b9150509250929050565b5f67ffffffffffffffff8211156137d1576137d061347e565b5b6137da82612f75565b9050602081019050919050565b5f6137f96137f4846137b7565b6134dc565b905082815260208101848484011115613815576138146135b6565b5b6138208482856135ea565b509392505050565b5f82601f83011261383c5761383b6130fb565b5b813561384c8482602086016137e7565b91505092915050565b5f5f5f5f6080858703121561386d5761386c612e92565b5b5f61387a878288016130a9565b945050602061388b878288016130a9565b935050604061389c87828801612ffc565b925050606085013567ffffffffffffffff8111156138bd576138bc612e96565b5b6138c987828801613828565b91505092959194509250565b5f5f83601f8401126138ea576138e96130fb565b5b8235905067ffffffffffffffff811115613907576139066130ff565b5b60208301915083602082028301111561392357613922613103565b5b9250929050565b5f5f5f5f6040858703121561394257613941612e92565b5b5f85013567ffffffffffffffff81111561395f5761395e612e96565b5b61396b878288016138d5565b9450945050602085013567ffffffffffffffff81111561398e5761398d612e96565b5b61399a87828801613107565b925092505092959194509250565b600481106139b9576139b86133c7565b5b50565b5f8190506139c9826139a8565b919050565b5f6139d8826139bc565b9050919050565b6139e8816139ce565b82525050565b5f602082019050613a015f8301846139df565b92915050565b5f5f60408385031215613a1d57613a1c612e92565b5b5f613a2a858286016130a9565b9250506020613a3b858286016130a9565b9150509250929050565b7f4e487b71000000000000000000000000000000000000000000000000000000005f52602260045260245ffd5b5f6002820490506001821680613a8957607f821691505b602082108103613a9c57613a9b613a45565b5b50919050565b7f4e6f6e6578697374656e740000000000000000000000000000000000000000005f82015250565b5f613ad6600b83612f57565b9150613ae182613aa2565b602082019050919050565b5f6020820190508181035f830152613b0381613aca565b9050919050565b5f82905092915050565b5f819050815f5260205f209050919050565b5f6020601f8301049050919050565b5f82821b905092915050565b5f60088302613b707fffffffffffffffffffffffffffffffffffffffffffffffffffffffffffffffff82613b35565b613b7a8683613b35565b95508019841693508086168417925050509392505050565b5f819050919050565b5f613bb5613bb0613bab84612fdd565b613b92565b612fdd565b9050919050565b5f819050919050565b613bce83613b9b565b613be2613bda82613bbc565b848454613b41565b825550505050565b5f5f905090565b613bf9613bea565b613c04818484613bc5565b505050565b5b81811015613c2757613c1c5f82613bf1565b600181019050613c0a565b5050565b601f821115613c6c57613c3d81613b14565b613c4684613b26565b81016020851015613c55578190505b613c69613c6185613b26565b830182613c09565b50505b505050565b5f82821c905092915050565b5f613c8c5f1984600802613c71565b1980831691505092915050565b5f613ca48383613c7d565b9150826002028217905092915050565b613cbe8383613b0a565b67ffffffffffffffff811115613cd757613cd661347e565b5b613ce18254613a72565b613cec828285613c2b565b5f601f831160018114613d19575f8415613d07578287013590505b613d118582613c99565b865550613d78565b601f198416613d2786613b14565b5f5b82811015613d4e57848901358255600182019150602085019450602081019050613d29565b86831015613d6b5784890135613d67601f891682613c7d565b8355505b6001600288020188555050505b50505050505050565b5f613d8c8385612f57565b9350613d998385846135ea565b613da283612f75565b840190509392505050565b5f6020820190508181035f830152613dc6818486613d81565b90509392505050565b7f43616e6e6f74206275726e206a756e6b000000000000000000000000000000005f82015250565b5f613e03601083612f57565b9150613e0e82613dcf565b602082019050919050565b5f6020820190508181035f830152613e3081613df7565b9050919050565b7f4e487b71000000000000000000000000000000000000000000000000000000005f52603260045260245ffd5b7f4e487b71000000000000000000000000000000000000000000000000000000005f52601160045260245ffd5b5f613e9b82612fdd565b91507fffffffffffffffffffffffffffffffffffffffffffffffffffffffffffffffff8203613ecd57613ecc613e64565b5b600182019050919050565b5f606082019050613eeb5f83018661306b565b613ef8602083018561339f565b613f05604083018461306b565b949350505050565b7f456d7074792061727261790000000000000000000000000000000000000000005f82015250565b5f613f41600b83612f57565b9150613f4c82613f0d565b602082019050919050565b5f6020820190508181035f830152613f6e81613f35565b9050919050565b7f4e6f74206f776e657200000000000000000000000000000000000000000000005f82015250565b5f613fa9600983612f57565b9150613fb482613f75565b602082019050919050565b5f6020820190508181035f830152613fd681613f9d565b9050919050565b7f416c7265616479206275726e65640000000000000000000000000000000000005f82015250565b5f614011600e83612f57565b915061401c82613fdd565b602082019050919050565b5f6020820190508181035f83015261403e81614005565b9050919050565b7f4d697865642074696572730000000000000000000000000000000000000000005f82015250565b5f614079600b83612f57565b915061408482614045565b602082019050919050565b5f6020820190508181035f8301526140a68161406d565b9050919050565b7f4e6f7420617574686f72697a65640000000000000000000000000000000000005f82015250565b5f6140e1600e83612f57565b91506140ec826140ad565b602082019050919050565b5f6020820190508181035f83015261410e816140d5565b9050919050565b5f6060820190508181035f83015261412d8186613287565b905061413c602083018561342b565b818103604083015261414e8184612f85565b9050949350505050565b5f6060820190508181035f8301526141708187613287565b905061417f602083018661342b565b8181036040830152614192818486613d81565b905095945050505050565b5f5ffd5b82818337505050565b5f6141b58385613236565b93507f07ffffffffffffffffffffffffffffffffffffffffffffffffffffffffffffff8311156141e8576141e761419d565b5b6020830292506141f98385846141a1565b82840190509392505050565b5f6060820190508181035f83015261421e8187896141aa565b905061422d602083018661342b565b8181036040830152614240818486613d81565b90509695505050505050565b5f81519050919050565b5f82825260208201905092915050565b5f6142708261424c565b61427a8185614256565b935061428a818560208601612f67565b61429381612f75565b840191505092915050565b5f6080820190506142b15f83018761306b565b6142be602083018661306b565b6142cb604083018561339f565b81810360608301526142dd8184614266565b905095945050505050565b5f815190506142f681612ec5565b92915050565b5f6020828403121561431157614310612e92565b5b5f61431e848285016142e8565b91505092915050565b5f60408201905061433a5f83018561306b565b614347602083018461339f565b939250505056fea264697066735822122063288d87bd356dedbed828050a0872802d7336969f81c31ea35e051b46251cf564736f6c634300081e0033","linkReferences":{}},"methodIdentifiers":{"approve(address,uint256)":"095ea7b3","balanceOf(address)":"70a08231","burn(uint256,string)":"7641e6f3","burnBatch(uint256[],string)":"da099903","burnBatchFromApproved(address,uint256[],string)":"5e1beecf","checkBurnRequirement(address,uint8,uint256)":"18c06b22","fishingGame()":"ed1b2a9e","getApproved(uint256)":"081812fc","isApprovedForAll(address,address)":"e985e9c5","isBurned(uint256)":"db44fe07","mintFish(address,uint8)":"3a3019db","mintFishWithRarity(address,uint8)":"b5b6ee8b","name()":"06fdde03","nextTokenId()":"75794a3c","owner()":"8da5cb5b","ownerOf(uint256)":"6352211e","rarityOf(uint256)":"dd3b5f9a","renounceOwnership()":"715018a6","safeTransferFrom(address,address,uint256)":"42842e0e","safeTransferFrom(address,address,uint256,bytes)":"b88d4fde","setApprovalForAll(address,bool)":"a22cb465","setFishingGame(address)":"5d10a70f","setTokenURI(uint256,string)":"162094c4","setUpgradeContract(address)":"b6bcad26","setUpgradeSystem(address)":"ea7903af","supportsInterface(bytes4)":"01ffc9a7","symbol()":"95d89b41","tierOf(uint256)":"53f96df2","tokenURI(uint256)":"c87b56dd","transferFrom(address,address,uint256)":"23b872dd","transferOwnership(address)":"f2fde38b","upgradeContract()":"1f4e1504","upgradeSystem()":"3b996867"},"id":42}