{"abi":[{"type":"constructor","inputs":[{"name":"_admin","type":"address","internalType":"address"},{"name":"_fishNFT","type":"address","internalType":"contract FishNFT"}],"stateMutability":"nonpayable"},{"type":"function","name":"COMMON_TO_RARE_BURN_COUNT","inputs":[],"outputs":[{"name":"","type":"uint256","internalType":"uint256"}],"stateMutability":"view"},{"type":"function","name":"RARE_TO_EPIC_BURN_COUNT","inputs":[],"outputs":[{"name":"","type":"uint256","internalType":"uint256"}],"stateMutability":"view"},{"type":"function","name":"RARE_TO_EPIC_SUCCESS_RATE_BPS","inputs":[],"outputs":[{"name":"","type":"uint256","internalType":"uint256"}],"stateMutability":"view"},{"type":"function","name":"SUPRA_CALLBACK_SIG","inputs":[],"outputs":[{"name":"","type":"string","internalType":"string"}],"stateMutability":"view"},{"type":"function","name":"admin","inputs":[],"outputs":[{"name":"","type":"address","internalType":"address"}],"stateMutability":"view"},{"type":"function","name":"canUpgradeCommonToRare","inputs":[{"name":"user","type":"address","internalType":"address"}],"outputs":[{"name":"","type":"bool","internalType":"bool"},{"name":"","type":"uint256[]","internalType":"uint256[]"}],"stateMutability":"view"},{"type":"function","name":"canUpgradeRareToEpic","inputs":[{"name":"user","type":"address","internalType":"address"}],"outputs":[{"name":"","type":"bool","internalType":"bool"},{"name":"","type":"uint256[]","internalType":"uint256[]"}],"stateMutability":"view"},{"type":"function","name":"fishNFT","inputs":[],"outputs":[{"name":"","type":"address","internalType":"contract FishNFT"}],"stateMutability":"view"},{"type":"function","name":"getUpgradeRequest","inputs":[{"name":"requestId","type":"uint256","internalType":"uint256"}],"outputs":[{"name":"user","type":"address","internalType":"address"},{"name":"tokenIds","type":"uint256[]","internalType":"uint256[]"}],"stateMutability":"view"},{"type":"function","name":"setAdmin","inputs":[{"name":"_admin","type":"address","internalType":"address"}],"outputs":[],"stateMutability":"nonpayable"},{"type":"function","name":"setSupraVRFConfig","inputs":[{"name":"_router","type":"address","internalType":"address"},{"name":"_numConfirmations","type":"uint256","internalType":"uint256"}],"outputs":[],"stateMutability":"nonpayable"},{"type":"function","name":"supraNumConfirmations","inputs":[],"outputs":[{"name":"","type":"uint256","internalType":"uint256"}],"stateMutability":"view"},{"type":"function","name":"supraRouter","inputs":[],"outputs":[{"name":"","type":"address","internalType":"contract ISupraRouter"}],"stateMutability":"view"},{"type":"function","name":"upgradeCommonToRare","inputs":[{"name":"tokenIds","type":"uint256[]","internalType":"uint256[]"}],"outputs":[],"stateMutability":"nonpayable"},{"type":"function","name":"upgradeRareToEpic","inputs":[{"name":"tokenIds","type":"uint256[]","internalType":"uint256[]"}],"outputs":[{"name":"requestId","type":"uint256","internalType":"uint256"}],"stateMutability":"nonpayable"},{"type":"function","name":"upgradeRequests","inputs":[{"name":"","type":"uint256","internalType":"uint256"}],"outputs":[{"name":"user","type":"address","internalType":"address"}],"stateMutability":"view"},{"type":"function","name":"upgradeVRFCallback","inputs":[{"name":"_requestId","type":"uint256","internalType":"uint256"},{"name":"_rngList","type":"uint256[]","internalType":"uint256[]"},{"name":"_clientSeed","type":"uint256","internalType":"uint256"}],"outputs":[],"stateMutability":"nonpayable"},{"type":"event","name":"SupraVRFConfigUpdated","inputs":[{"name":"router","type":"address","indexed":false,"internalType":"address"},{"name":"numConfirmations","type":"uint256","indexed":false,"internalType":"uint256"}],"anonymous":false},{"type":"event","name":"UpgradeFailed","inputs":[{"name":"user","type":"address","indexed":true,"internalType":"address"},{"name":"upgradeType","type":"uint8","indexed":false,"internalType":"enum FishUpgrade.UpgradeType"},{"name":"burnedTokenIds","type":"uint256[]","indexed":false,"internalType":"uint256[]"},{"name":"reason","type":"string","indexed":false,"internalType":"string"}],"anonymous":false},{"type":"event","name":"UpgradeRequested","inputs":[{"name":"user","type":"address","indexed":true,"internalType":"address"},{"name":"upgradeType","type":"uint8","indexed":false,"internalType":"enum FishUpgrade.UpgradeType"},{"name":"requestId","type":"uint256","indexed":true,"internalType":"uint256"},{"name":"tokenIds","type":"uint256[]","indexed":false,"internalType":"uint256[]"}],"anonymous":false},{"type":"event","name":"UpgradeSucceeded","inputs":[{"name":"user","type":"address","indexed":true,"internalType":"address"},{"name":"upgradeType","type":"uint8","indexed":false,"internalType":"enum FishUpgrade.UpgradeType"},{"name":"newTokenId","type":"uint256","indexed":true,"internalType":"uint256"},{"name":"burnedTokenIds","type":"uint256[]","indexed":false,"internalType":"uint256[]"}],"anonymous":false}],"bytecode":{"object":"0x608060405234801561000f575f5ffd5b506040516130e33803806130e38339818101604052810190610031919061022c565b5f73ffffffffffffffffffffffffffffffffffffffff168273ffffffffffffffffffffffffffffffffffffffff160361009f576040517f08c379a0000000000000000000000000000000000000000000000000000000008152600401610096906102c4565b60405180910390fd5b5f73ffffffffffffffffffffffffffffffffffffffff168173ffffffffffffffffffffffffffffffffffffffff160361010d576040517f08c379a00000000000000000000000000000000000000000000000000000000081526004016101049061032c565b60405180910390fd5b815f5f6101000a81548173ffffffffffffffffffffffffffffffffffffffff021916908373ffffffffffffffffffffffffffffffffffffffff1602179055508060015f6101000a81548173ffffffffffffffffffffffffffffffffffffffff021916908373ffffffffffffffffffffffffffffffffffffffff160217905550505061034a565b5f5ffd5b5f73ffffffffffffffffffffffffffffffffffffffff82169050919050565b5f6101c082610197565b9050919050565b6101d0816101b6565b81146101da575f5ffd5b50565b5f815190506101eb816101c7565b92915050565b5f6101fb826101b6565b9050919050565b61020b816101f1565b8114610215575f5ffd5b50565b5f8151905061022681610202565b92915050565b5f5f6040838503121561024257610241610193565b5b5f61024f858286016101dd565b925050602061026085828601610218565b9150509250929050565b5f82825260208201905092915050565b7f41646d696e207a65726f000000000000000000000000000000000000000000005f82015250565b5f6102ae600a8361026a565b91506102b98261027a565b602082019050919050565b5f6020820190508181035f8301526102db816102a2565b9050919050565b7f4e4654207a65726f0000000000000000000000000000000000000000000000005f82015250565b5f61031660088361026a565b9150610321826102e2565b602082019050919050565b5f6020820190508181035f8301526103438161030a565b9050919050565b612d8c806103575f395ff3fe608060405234801561000f575f5ffd5b5060043610610109575f3560e01c8063959da2cf116100a0578063e621ff8a1161006f578063e621ff8a146102b9578063ee69ceed146102d7578063f765a3ba146102f5578063f851a44014610311578063fe23d80f1461032f57610109565b8063959da2cf1461022f5780639e6b015d1461024d578063d3b7d3521461026b578063de0132161461028957610109565b80635b909219116100dc5780635b90921914610193578063704b6c02146101b157806379c3f233146101cd57806382df7157146101fe57610109565b806312565fca1461010d578063246fc350146101295780634206fd611461015957806342c4e7d414610177575b5f5ffd5b61012760048036038101906101229190611c4c565b610360565b005b610143600480360381019061013e9190611cb8565b610862565b6040516101509190611d22565b60405180910390f35b61016161089b565b60405161016e9190611d4a565b60405180910390f35b610191600480360381019061018c9190611d8d565b6108a1565b005b61019b610a63565b6040516101a89190611d4a565b60405180910390f35b6101cb60048036038101906101c69190611dcb565b610a68565b005b6101e760048036038101906101e29190611dcb565b610ba6565b6040516101f5929190611ec7565b60405180910390f35b61021860048036038101906102139190611dcb565b610c5e565b604051610226929190611ec7565b60405180910390f35b610237610d16565b6040516102449190611f50565b60405180910390f35b610255610d3b565b6040516102629190611fc9565b60405180910390f35b610273610d57565b6040516102809190611d4a565b60405180910390f35b6102a3600480360381019061029e9190612042565b610d5c565b6040516102b09190611d4a565b60405180910390f35b6102c16113e2565b6040516102ce91906120ad565b60405180910390f35b6102df611407565b6040516102ec9190611d4a565b60405180910390f35b61030f600480360381019061030a9190612042565b61140d565b005b610319611931565b6040516103269190611d22565b60405180910390f35b61034960048036038101906103449190611cb8565b611955565b6040516103579291906120c6565b60405180910390f35b60025f9054906101000a900473ffffffffffffffffffffffffffffffffffffffff1673ffffffffffffffffffffffffffffffffffffffff163373ffffffffffffffffffffffffffffffffffffffff16146103ef576040517f08c379a00000000000000000000000000000000000000000000000000000000081526004016103e69061213e565b60405180910390fd5b5f60045f8581526020019081526020015f206040518060400160405290815f82015f9054906101000a900473ffffffffffffffffffffffffffffffffffffffff1673ffffffffffffffffffffffffffffffffffffffff1673ffffffffffffffffffffffffffffffffffffffff168152602001600182018054806020026020016040519081016040528092919081815260200182805480156104ad57602002820191905f5260205f20905b815481526020019060010190808311610499575b50505050508152505090505f73ffffffffffffffffffffffffffffffffffffffff16815f015173ffffffffffffffffffffffffffffffffffffffff1603610529576040517f08c379a0000000000000000000000000000000000000000000000000000000008152600401610520906121a6565b60405180910390fd5b5f83511161056c576040517f08c379a00000000000000000000000000000000000000000000000000000000081526004016105639061220e565b60405180910390fd5b60045f8581526020019081526020015f205f5f82015f6101000a81549073ffffffffffffffffffffffffffffffffffffffff0219169055600182015f6105b29190611a34565b50505f835f815181106105c8576105c761222c565b5b602002602001015190505f612710826105e19190612286565b90505f610fa0821090505f8161062c576040518060400160405280601981526020017f757067726164655f726172655f746f5f657069635f6661696c00000000000000815250610663565b6040518060400160405280601c81526020017f757067726164655f726172655f746f5f657069635f73756363657373000000008152505b905060015f9054906101000a900473ffffffffffffffffffffffffffffffffffffffff1673ffffffffffffffffffffffffffffffffffffffff16635e1beecf865f01518760200151846040518463ffffffff1660e01b81526004016106ca939291906122b6565b5f604051808303815f87803b1580156106e1575f5ffd5b505af11580156106f3573d5f5f3e3d5ffd5b5050505081156107ff575f60015f9054906101000a900473ffffffffffffffffffffffffffffffffffffffff1673ffffffffffffffffffffffffffffffffffffffff16633a3019db875f015160036040518363ffffffff1660e01b815260040161075e92919061236c565b6020604051808303815f875af115801561077a573d5f5f3e3d5ffd5b505050506040513d601f19601f8201168201806040525081019061079e91906123a7565b905080865f015173ffffffffffffffffffffffffffffffffffffffff167fe5be7300f845a84072aa21fe8b3ec3eabca30cbd34953d281cc13fead710b61d600189602001516040516107f1929190612418565b60405180910390a350610858565b845f015173ffffffffffffffffffffffffffffffffffffffff167f478758478daf9dd6ab9144a3a912f37b332f86f33a70d8eb80b6b956b435bd886001876020015160405161084f929190612490565b60405180910390a25b5050505050505050565b6004602052805f5260405f205f91509050805f015f9054906101000a900473ffffffffffffffffffffffffffffffffffffffff16905081565b610fa081565b5f5f9054906101000a900473ffffffffffffffffffffffffffffffffffffffff1673ffffffffffffffffffffffffffffffffffffffff163373ffffffffffffffffffffffffffffffffffffffff161461092f576040517f08c379a00000000000000000000000000000000000000000000000000000000081526004016109269061251b565b60405180910390fd5b5f73ffffffffffffffffffffffffffffffffffffffff168273ffffffffffffffffffffffffffffffffffffffff160361099d576040517f08c379a000000000000000000000000000000000000000000000000000000000815260040161099490612583565b60405180910390fd5b5f81116109df576040517f08c379a00000000000000000000000000000000000000000000000000000000081526004016109d6906125eb565b60405180910390fd5b8160025f6101000a81548173ffffffffffffffffffffffffffffffffffffffff021916908373ffffffffffffffffffffffffffffffffffffffff160217905550806003819055507f9478d151b1b1400b9ad71c1c2ad082d3c464e23e685a2972bae2170c9b3301cc8282604051610a57929190612609565b60405180910390a15050565b600581565b5f5f9054906101000a900473ffffffffffffffffffffffffffffffffffffffff1673ffffffffffffffffffffffffffffffffffffffff163373ffffffffffffffffffffffffffffffffffffffff1614610af6576040517f08c379a0000000000000000000000000000000000000000000000000000000008152600401610aed9061251b565b60405180910390fd5b5f73ffffffffffffffffffffffffffffffffffffffff168173ffffffffffffffffffffffffffffffffffffffff1603610b64576040517f08c379a0000000000000000000000000000000000000000000000000000000008152600401610b5b9061267a565b60405180910390fd5b805f5f6101000a81548173ffffffffffffffffffffffffffffffffffffffff021916908373ffffffffffffffffffffffffffffffffffffffff16021790555050565b5f60605f5f60015f9054906101000a900473ffffffffffffffffffffffffffffffffffffffff1673ffffffffffffffffffffffffffffffffffffffff166318c06b2286600160056040518463ffffffff1660e01b8152600401610c0b93929190612698565b5f60405180830381865afa158015610c25573d5f5f3e3d5ffd5b505050506040513d5f823e3d601f19601f82011682018060405250810190610c4d919061278c565b915091508181935093505050915091565b5f60605f5f60015f9054906101000a900473ffffffffffffffffffffffffffffffffffffffff1673ffffffffffffffffffffffffffffffffffffffff166318c06b2286600260036040518463ffffffff1660e01b8152600401610cc393929190612698565b5f60405180830381865afa158015610cdd573d5f5f3e3d5ffd5b505050506040513d5f823e3d601f19601f82011682018060405250810190610d05919061278c565b915091508181935093505050915091565b60015f9054906101000a900473ffffffffffffffffffffffffffffffffffffffff1681565b6040518060600160405280602d8152602001612d2a602d913981565b600381565b5f60038383905014610da3576040517f08c379a0000000000000000000000000000000000000000000000000000000008152600401610d9a90612830565b60405180910390fd5b5f73ffffffffffffffffffffffffffffffffffffffff1660025f9054906101000a900473ffffffffffffffffffffffffffffffffffffffff1673ffffffffffffffffffffffffffffffffffffffff1603610e32576040517f08c379a0000000000000000000000000000000000000000000000000000000008152600401610e2990612898565b60405180910390fd5b5f3390505f5f90505b8484905081101561114f575f858583818110610e5a57610e5961222c565b5b9050602002013590508273ffffffffffffffffffffffffffffffffffffffff1660015f9054906101000a900473ffffffffffffffffffffffffffffffffffffffff1673ffffffffffffffffffffffffffffffffffffffff16636352211e836040518263ffffffff1660e01b8152600401610ed49190611d4a565b602060405180830381865afa158015610eef573d5f5f3e3d5ffd5b505050506040513d601f19601f82011682018060405250810190610f1391906128ca565b73ffffffffffffffffffffffffffffffffffffffff1614610f69576040517f08c379a0000000000000000000000000000000000000000000000000000000008152600401610f609061293f565b60405180910390fd5b60026004811115610f7d57610f7c6122f9565b5b60015f9054906101000a900473ffffffffffffffffffffffffffffffffffffffff1673ffffffffffffffffffffffffffffffffffffffff166353f96df2836040518263ffffffff1660e01b8152600401610fd79190611d4a565b602060405180830381865afa158015610ff2573d5f5f3e3d5ffd5b505050506040513d601f19601f820116820180604052508101906110169190612980565b6004811115611028576110276122f9565b5b14611068576040517f08c379a000000000000000000000000000000000000000000000000000000000815260040161105f906129f5565b60405180910390fd5b60015f9054906101000a900473ffffffffffffffffffffffffffffffffffffffff1673ffffffffffffffffffffffffffffffffffffffff1663db44fe07826040518263ffffffff1660e01b81526004016110c29190611d4a565b602060405180830381865afa1580156110dd573d5f5f3e3d5ffd5b505050506040513d601f19601f820116820180604052508101906111019190612a13565b15611141576040517f08c379a000000000000000000000000000000000000000000000000000000000815260040161113890612a88565b60405180910390fd5b508080600101915050610e3b565b505f81424460405160200161116693929190612b0b565b604051602081830303815290604052805190602001205f1c905060025f9054906101000a900473ffffffffffffffffffffffffffffffffffffffff1673ffffffffffffffffffffffffffffffffffffffff1663b7b3243a6040518060600160405280602d8152602001612d2a602d9139600160035485306040518663ffffffff1660e01b81526004016111fd959493929190612b8c565b6020604051808303815f875af1158015611219573d5f5f3e3d5ffd5b505050506040513d601f19601f8201168201806040525081019061123d91906123a7565b92505f8585905067ffffffffffffffff81111561125d5761125c611b10565b5b60405190808252806020026020018201604052801561128b5781602001602082028036833780820191505090505b5090505f5f90505b868690508110156112e4578686828181106112b1576112b061222c565b5b905060200201358282815181106112cb576112ca61222c565b5b6020026020010181815250508080600101915050611293565b5060405180604001604052808473ffffffffffffffffffffffffffffffffffffffff1681526020018281525060045f8681526020019081526020015f205f820151815f015f6101000a81548173ffffffffffffffffffffffffffffffffffffffff021916908373ffffffffffffffffffffffffffffffffffffffff1602179055506020820151816001019080519060200190611381929190611a52565b50905050838373ffffffffffffffffffffffffffffffffffffffff167f1839fd1182c29f6bb99c99fe45c1e13726b5fbc2361d733ef5a4a16a607e7b3f600189896040516113d193929190612c4c565b60405180910390a350505092915050565b60025f9054906101000a900473ffffffffffffffffffffffffffffffffffffffff1681565b60035481565b60058282905014611453576040517f08c379a000000000000000000000000000000000000000000000000000000000815260040161144a90612830565b60405180910390fd5b5f3390505f5f90505b83839050811015611770575f84848381811061147b5761147a61222c565b5b9050602002013590508273ffffffffffffffffffffffffffffffffffffffff1660015f9054906101000a900473ffffffffffffffffffffffffffffffffffffffff1673ffffffffffffffffffffffffffffffffffffffff16636352211e836040518263ffffffff1660e01b81526004016114f59190611d4a565b602060405180830381865afa158015611510573d5f5f3e3d5ffd5b505050506040513d601f19601f8201168201806040525081019061153491906128ca565b73ffffffffffffffffffffffffffffffffffffffff161461158a576040517f08c379a00000000000000000000000000000000000000000000000000000000081526004016115819061293f565b60405180910390fd5b6001600481111561159e5761159d6122f9565b5b60015f9054906101000a900473ffffffffffffffffffffffffffffffffffffffff1673ffffffffffffffffffffffffffffffffffffffff166353f96df2836040518263ffffffff1660e01b81526004016115f89190611d4a565b602060405180830381865afa158015611613573d5f5f3e3d5ffd5b505050506040513d601f19601f820116820180604052508101906116379190612980565b6004811115611649576116486122f9565b5b14611689576040517f08c379a000000000000000000000000000000000000000000000000000000000815260040161168090612cc6565b60405180910390fd5b60015f9054906101000a900473ffffffffffffffffffffffffffffffffffffffff1673ffffffffffffffffffffffffffffffffffffffff1663db44fe07826040518263ffffffff1660e01b81526004016116e39190611d4a565b602060405180830381865afa1580156116fe573d5f5f3e3d5ffd5b505050506040513d601f19601f820116820180604052508101906117229190612a13565b15611762576040517f08c379a000000000000000000000000000000000000000000000000000000000815260040161175990612a88565b60405180910390fd5b50808060010191505061145c565b505f6040518060400160405280601681526020017f757067726164655f636f6d6d6f6e5f746f5f7261726500000000000000000000815250905060015f9054906101000a900473ffffffffffffffffffffffffffffffffffffffff1673ffffffffffffffffffffffffffffffffffffffff16635e1beecf838686856040518563ffffffff1660e01b815260040161180a9493929190612ce4565b5f604051808303815f87803b158015611821575f5ffd5b505af1158015611833573d5f5f3e3d5ffd5b505050505f60015f9054906101000a900473ffffffffffffffffffffffffffffffffffffffff1673ffffffffffffffffffffffffffffffffffffffff16633a3019db8460026040518363ffffffff1660e01b815260040161189592919061236c565b6020604051808303815f875af11580156118b1573d5f5f3e3d5ffd5b505050506040513d601f19601f820116820180604052508101906118d591906123a7565b9050808373ffffffffffffffffffffffffffffffffffffffff167fe5be7300f845a84072aa21fe8b3ec3eabca30cbd34953d281cc13fead710b61d5f888860405161192293929190612c4c565b60405180910390a35050505050565b5f5f9054906101000a900473ffffffffffffffffffffffffffffffffffffffff1681565b5f60605f60045f8581526020019081526020015f206040518060400160405290815f82015f9054906101000a900473ffffffffffffffffffffffffffffffffffffffff1673ffffffffffffffffffffffffffffffffffffffff1673ffffffffffffffffffffffffffffffffffffffff16815260200160018201805480602002602001604051908101604052809291908181526020018280548015611a1657602002820191905f5260205f20905b815481526020019060010190808311611a02575b5050505050815250509050805f015181602001519250925050915091565b5080545f8255905f5260205f2090810190611a4f9190611a9d565b50565b828054828255905f5260205f20908101928215611a8c579160200282015b82811115611a8b578251825591602001919060010190611a70565b5b509050611a999190611a9d565b5090565b5b80821115611ab4575f815f905550600101611a9e565b5090565b5f604051905090565b5f5ffd5b5f5ffd5b5f819050919050565b611adb81611ac9565b8114611ae5575f5ffd5b50565b5f81359050611af681611ad2565b92915050565b5f5ffd5b5f601f19601f8301169050919050565b7f4e487b71000000000000000000000000000000000000000000000000000000005f52604160045260245ffd5b611b4682611b00565b810181811067ffffffffffffffff82111715611b6557611b64611b10565b5b80604052505050565b5f611b77611ab8565b9050611b838282611b3d565b919050565b5f67ffffffffffffffff821115611ba257611ba1611b10565b5b602082029050602081019050919050565b5f5ffd5b5f611bc9611bc484611b88565b611b6e565b90508083825260208201905060208402830185811115611bec57611beb611bb3565b5b835b81811015611c155780611c018882611ae8565b845260208401935050602081019050611bee565b5050509392505050565b5f82601f830112611c3357611c32611afc565b5b8135611c43848260208601611bb7565b91505092915050565b5f5f5f60608486031215611c6357611c62611ac1565b5b5f611c7086828701611ae8565b935050602084013567ffffffffffffffff811115611c9157611c90611ac5565b5b611c9d86828701611c1f565b9250506040611cae86828701611ae8565b9150509250925092565b5f60208284031215611ccd57611ccc611ac1565b5b5f611cda84828501611ae8565b91505092915050565b5f73ffffffffffffffffffffffffffffffffffffffff82169050919050565b5f611d0c82611ce3565b9050919050565b611d1c81611d02565b82525050565b5f602082019050611d355f830184611d13565b92915050565b611d4481611ac9565b82525050565b5f602082019050611d5d5f830184611d3b565b92915050565b611d6c81611d02565b8114611d76575f5ffd5b50565b5f81359050611d8781611d63565b92915050565b5f5f60408385031215611da357611da2611ac1565b5b5f611db085828601611d79565b9250506020611dc185828601611ae8565b9150509250929050565b5f60208284031215611de057611ddf611ac1565b5b5f611ded84828501611d79565b91505092915050565b5f8115159050919050565b611e0a81611df6565b82525050565b5f81519050919050565b5f82825260208201905092915050565b5f819050602082019050919050565b611e4281611ac9565b82525050565b5f611e538383611e39565b60208301905092915050565b5f602082019050919050565b5f611e7582611e10565b611e7f8185611e1a565b9350611e8a83611e2a565b805f5b83811015611eba578151611ea18882611e48565b9750611eac83611e5f565b925050600181019050611e8d565b5085935050505092915050565b5f604082019050611eda5f830185611e01565b8181036020830152611eec8184611e6b565b90509392505050565b5f819050919050565b5f611f18611f13611f0e84611ce3565b611ef5565b611ce3565b9050919050565b5f611f2982611efe565b9050919050565b5f611f3a82611f1f565b9050919050565b611f4a81611f30565b82525050565b5f602082019050611f635f830184611f41565b92915050565b5f81519050919050565b5f82825260208201905092915050565b8281835e5f83830152505050565b5f611f9b82611f69565b611fa58185611f73565b9350611fb5818560208601611f83565b611fbe81611b00565b840191505092915050565b5f6020820190508181035f830152611fe18184611f91565b905092915050565b5f5ffd5b5f5f83601f84011261200257612001611afc565b5b8235905067ffffffffffffffff81111561201f5761201e611fe9565b5b60208301915083602082028301111561203b5761203a611bb3565b5b9250929050565b5f5f6020838503121561205857612057611ac1565b5b5f83013567ffffffffffffffff81111561207557612074611ac5565b5b61208185828601611fed565b92509250509250929050565b5f61209782611f1f565b9050919050565b6120a78161208d565b82525050565b5f6020820190506120c05f83018461209e565b92915050565b5f6040820190506120d95f830185611d13565b81810360208301526120eb8184611e6b565b90509392505050565b7f4e6f7420537570726120526f75746572000000000000000000000000000000005f82015250565b5f612128601083611f73565b9150612133826120f4565b602082019050919050565b5f6020820190508181035f8301526121558161211c565b9050919050565b7f556e6b6e6f776e207265717565737400000000000000000000000000000000005f82015250565b5f612190600f83611f73565b915061219b8261215c565b602082019050919050565b5f6020820190508181035f8301526121bd81612184565b9050919050565b7f4e6f2072616e646f6d206e756d626572730000000000000000000000000000005f82015250565b5f6121f8601183611f73565b9150612203826121c4565b602082019050919050565b5f6020820190508181035f830152612225816121ec565b9050919050565b7f4e487b71000000000000000000000000000000000000000000000000000000005f52603260045260245ffd5b7f4e487b71000000000000000000000000000000000000000000000000000000005f52601260045260245ffd5b5f61229082611ac9565b915061229b83611ac9565b9250826122ab576122aa612259565b5b828206905092915050565b5f6060820190506122c95f830186611d13565b81810360208301526122db8185611e6b565b905081810360408301526122ef8184611f91565b9050949350505050565b7f4e487b71000000000000000000000000000000000000000000000000000000005f52602160045260245ffd5b60058110612337576123366122f9565b5b50565b5f81905061234782612326565b919050565b5f6123568261233a565b9050919050565b6123668161234c565b82525050565b5f60408201905061237f5f830185611d13565b61238c602083018461235d565b9392505050565b5f815190506123a181611ad2565b92915050565b5f602082840312156123bc576123bb611ac1565b5b5f6123c984828501612393565b91505092915050565b600281106123e3576123e26122f9565b5b50565b5f8190506123f3826123d2565b919050565b5f612402826123e6565b9050919050565b612412816123f8565b82525050565b5f60408201905061242b5f830185612409565b818103602083015261243d8184611e6b565b90509392505050565b7f56524620726f6c6c206661696c656400000000000000000000000000000000005f82015250565b5f61247a600f83611f73565b915061248582612446565b602082019050919050565b5f6060820190506124a35f830185612409565b81810360208301526124b58184611e6b565b905081810360408301526124c88161246e565b90509392505050565b7f4e6f742061646d696e00000000000000000000000000000000000000000000005f82015250565b5f612505600983611f73565b9150612510826124d1565b602082019050919050565b5f6020820190508181035f830152612532816124f9565b9050919050565b7f526f75746572207a65726f0000000000000000000000000000000000000000005f82015250565b5f61256d600b83611f73565b915061257882612539565b602082019050919050565b5f6020820190508181035f83015261259a81612561565b9050919050565b7f496e76616c696420636f6e6669726d6174696f6e7300000000000000000000005f82015250565b5f6125d5601583611f73565b91506125e0826125a1565b602082019050919050565b5f6020820190508181035f830152612602816125c9565b9050919050565b5f60408201905061261c5f830185611d13565b6126296020830184611d3b565b9392505050565b7f41646d696e207a65726f000000000000000000000000000000000000000000005f82015250565b5f612664600a83611f73565b915061266f82612630565b602082019050919050565b5f6020820190508181035f83015261269181612658565b9050919050565b5f6060820190506126ab5f830186611d13565b6126b8602083018561235d565b6126c56040830184611d3b565b949350505050565b6126d681611df6565b81146126e0575f5ffd5b50565b5f815190506126f1816126cd565b92915050565b5f61270961270484611b88565b611b6e565b9050808382526020820190506020840283018581111561272c5761272b611bb3565b5b835b8181101561275557806127418882612393565b84526020840193505060208101905061272e565b5050509392505050565b5f82601f83011261277357612772611afc565b5b81516127838482602086016126f7565b91505092915050565b5f5f604083850312156127a2576127a1611ac1565b5b5f6127af858286016126e3565b925050602083015167ffffffffffffffff8111156127d0576127cf611ac5565b5b6127dc8582860161275f565b9150509250929050565b7f57726f6e6720636f756e740000000000000000000000000000000000000000005f82015250565b5f61281a600b83611f73565b9150612825826127e6565b602082019050919050565b5f6020820190508181035f8301526128478161280e565b9050919050565b7f565246206e6f7420636f6e6669677572656400000000000000000000000000005f82015250565b5f612882601283611f73565b915061288d8261284e565b602082019050919050565b5f6020820190508181035f8301526128af81612876565b9050919050565b5f815190506128c481611d63565b92915050565b5f602082840312156128df576128de611ac1565b5b5f6128ec848285016128b6565b91505092915050565b7f4e6f74206f776e657200000000000000000000000000000000000000000000005f82015250565b5f612929600983611f73565b9150612934826128f5565b602082019050919050565b5f6020820190508181035f8301526129568161291d565b9050919050565b60058110612969575f5ffd5b50565b5f8151905061297a8161295d565b92915050565b5f6020828403121561299557612994611ac1565b5b5f6129a28482850161296c565b91505092915050565b7f4e6f7420526172650000000000000000000000000000000000000000000000005f82015250565b5f6129df600883611f73565b91506129ea826129ab565b602082019050919050565b5f6020820190508181035f830152612a0c816129d3565b9050919050565b5f60208284031215612a2857612a27611ac1565b5b5f612a35848285016126e3565b91505092915050565b7f416c7265616479206275726e65640000000000000000000000000000000000005f82015250565b5f612a72600e83611f73565b9150612a7d82612a3e565b602082019050919050565b5f6020820190508181035f830152612a9f81612a66565b9050919050565b5f8160601b9050919050565b5f612abc82612aa6565b9050919050565b5f612acd82612ab2565b9050919050565b612ae5612ae082611d02565b612ac3565b82525050565b5f819050919050565b612b05612b0082611ac9565b612aeb565b82525050565b5f612b168286612ad4565b601482019150612b268285612af4565b602082019150612b368284612af4565b602082019150819050949350505050565b5f819050919050565b5f60ff82169050919050565b5f612b76612b71612b6c84612b47565b611ef5565b612b50565b9050919050565b612b8681612b5c565b82525050565b5f60a0820190508181035f830152612ba48188611f91565b9050612bb36020830187612b7d565b612bc06040830186611d3b565b612bcd6060830185611d3b565b612bda6080830184611d13565b9695505050505050565b5f5ffd5b82818337505050565b5f612bfc8385611e1a565b93507f07ffffffffffffffffffffffffffffffffffffffffffffffffffffffffffffff831115612c2f57612c2e612be4565b5b602083029250612c40838584612be8565b82840190509392505050565b5f604082019050612c5f5f830186612409565b8181036020830152612c72818486612bf1565b9050949350505050565b7f4e6f7420436f6d6d6f6e000000000000000000000000000000000000000000005f82015250565b5f612cb0600a83611f73565b9150612cbb82612c7c565b602082019050919050565b5f6020820190508181035f830152612cdd81612ca4565b9050919050565b5f606082019050612cf75f830187611d13565b8181036020830152612d0a818587612bf1565b90508181036040830152612d1e8184611f91565b90509594505050505056fe7570677261646556524643616c6c6261636b2875696e743235362c75696e743235365b5d2c75696e7432353629a26469706673582212205c14ae0c9b216533ea20616317cef80840803ecf08c1d1a59939fc9e1347190d64736f6c634300081e0033","linkReferences":{}},"methodIdentifiers":{"COMMON_TO_RARE_BURN_COUNT()":"5b909219","RARE_TO_EPIC_BURN_COUNT()":"d3b7d352","RARE_TO_EPIC_SUCCESS_RATE_BPS()":"4206fd61","SUPRA_CALLBACK_SIG()":"9e6b015d","admin()":"f851a440","canUpgradeCommonToRare(address)":"79c3f233","canUpgradeRareToEpic(address)":"82df7157","fishNFT()":"959da2cf","getUpgradeRequest(uint256)":"fe23d80f","setAdmin(address)":"704b6c02","setSupraVRFConfig(address,uint256)":"42c4e7d4","supraNumConfirmations()":"ee69ceed","supraRouter()":"e621ff8a","upgradeCommonToRare(uint256[])":"f765a3ba","upgradeRareToEpic(uint256[])":"de013216","upgradeRequests(uint256)":"246fc350","upgradeVRFCallback(uint256,uint256[],uint256)":"12565fca"},"id":43}