{"abi":[{"type":"constructor","inputs":[{"name":"_admin","type":"address","internalType":"address"},{"name":"_staking","type":"address","internalType":"contract FishItStaking"},{"name":"_fishNFT","type":"address","internalType":"contract FishNFT"},{"name":"_zoneValidator","type":"address","internalType":"contract ZoneValidator"},{"name":"_fishBait","type":"address","internalType":"contract FishBait"},{"name":"_revenueRecipient","type":"address","internalType":"address"}],"stateMutability":"nonpayable"},{"type":"function","name":"SUPRA_CALLBACK_SIG","inputs":[],"outputs":[{"name":"","type":"string","internalType":"string"}],"stateMutability":"view"},{"type":"function","name":"admin","inputs":[],"outputs":[{"name":"","type":"address","internalType":"address"}],"stateMutability":"view"},{"type":"function","name":"castLine","inputs":[{"name":"zone","type":"uint8","internalType":"enum ZoneValidator.Zone"},{"name":"baitType","type":"uint8","internalType":"enum FishingGame.BaitType"}],"outputs":[{"name":"requestId","type":"uint256","internalType":"uint256"}],"stateMutability":"payable"},{"type":"function","name":"fishBait","inputs":[],"outputs":[{"name":"","type":"address","internalType":"contract FishBait"}],"stateMutability":"view"},{"type":"function","name":"fishNFT","inputs":[],"outputs":[{"name":"","type":"address","internalType":"contract FishNFT"}],"stateMutability":"view"},{"type":"function","name":"requests","inputs":[{"name":"","type":"uint256","internalType":"uint256"}],"outputs":[{"name":"user","type":"address","internalType":"address"},{"name":"zone","type":"uint8","internalType":"enum ZoneValidator.Zone"},{"name":"bait","type":"uint8","internalType":"enum FishingGame.BaitType"}],"stateMutability":"view"},{"type":"function","name":"revenueRecipient","inputs":[],"outputs":[{"name":"","type":"address","internalType":"address"}],"stateMutability":"view"},{"type":"function","name":"setAdmin","inputs":[{"name":"_admin","type":"address","internalType":"address"}],"outputs":[],"stateMutability":"nonpayable"},{"type":"function","name":"setFishBait","inputs":[{"name":"_bait","type":"address","internalType":"contract FishBait"}],"outputs":[],"stateMutability":"nonpayable"},{"type":"function","name":"setRevenueRecipient","inputs":[{"name":"_recipient","type":"address","internalType":"address"}],"outputs":[],"stateMutability":"nonpayable"},{"type":"function","name":"setSupraVRFConfig","inputs":[{"name":"_router","type":"address","internalType":"address"},{"name":"_numConfirmations","type":"uint256","internalType":"uint256"}],"outputs":[],"stateMutability":"nonpayable"},{"type":"function","name":"setZoneValidator","inputs":[{"name":"_validator","type":"address","internalType":"contract ZoneValidator"}],"outputs":[],"stateMutability":"nonpayable"},{"type":"function","name":"staking","inputs":[],"outputs":[{"name":"","type":"address","internalType":"contract FishItStaking"}],"stateMutability":"view"},{"type":"function","name":"supraNumConfirmations","inputs":[],"outputs":[{"name":"","type":"uint256","internalType":"uint256"}],"stateMutability":"view"},{"type":"function","name":"supraRouter","inputs":[],"outputs":[{"name":"","type":"address","internalType":"contract ISupraRouter"}],"stateMutability":"view"},{"type":"function","name":"supraVRFCallback","inputs":[{"name":"_requestId","type":"uint256","internalType":"uint256"},{"name":"_rngList","type":"uint256[]","internalType":"uint256[]"},{"name":"_clientSeed","type":"uint256","internalType":"uint256"}],"outputs":[],"stateMutability":"nonpayable"},{"type":"function","name":"zoneValidator","inputs":[],"outputs":[{"name":"","type":"address","internalType":"contract ZoneValidator"}],"stateMutability":"view"},{"type":"event","name":"CastLineRequested","inputs":[{"name":"user","type":"address","indexed":true,"internalType":"address"},{"name":"zone","type":"uint8","indexed":false,"internalType":"enum ZoneValidator.Zone"},{"name":"bait","type":"uint8","indexed":false,"internalType":"enum FishingGame.BaitType"},{"name":"requestId","type":"uint256","indexed":true,"internalType":"uint256"}],"anonymous":false},{"type":"event","name":"FishBaitUpdated","inputs":[{"name":"oldBait","type":"address","indexed":true,"internalType":"address"},{"name":"newBait","type":"address","indexed":true,"internalType":"address"}],"anonymous":false},{"type":"event","name":"FishCaught","inputs":[{"name":"user","type":"address","indexed":true,"internalType":"address"},{"name":"tokenId","type":"uint256","indexed":true,"internalType":"uint256"},{"name":"tier","type":"uint8","indexed":false,"internalType":"enum FishNFT.Tier"},{"name":"zone","type":"uint8","indexed":false,"internalType":"enum ZoneValidator.Zone"},{"name":"bait","type":"uint8","indexed":false,"internalType":"enum FishingGame.BaitType"},{"name":"randomWord","type":"uint256","indexed":false,"internalType":"uint256"}],"anonymous":false},{"type":"event","name":"SupraVRFConfigUpdated","inputs":[{"name":"router","type":"address","indexed":false,"internalType":"address"},{"name":"numConfirmations","type":"uint256","indexed":false,"internalType":"uint256"}],"anonymous":false},{"type":"event","name":"ZoneAccessDenied","inputs":[{"name":"user","type":"address","indexed":true,"internalType":"address"},{"name":"zone","type":"uint8","indexed":false,"internalType":"enum ZoneValidator.Zone"},{"name":"reason","type":"string","indexed":false,"internalType":"string"}],"anonymous":false},{"type":"event","name":"ZoneValidatorUpdated","inputs":[{"name":"oldValidator","type":"address","indexed":true,"internalType":"address"},{"name":"newValidator","type":"address","indexed":true,"internalType":"address"}],"anonymous":false}],"bytecode":{"object":"0x608060405234801561000f575f5ffd5b506040516144ef3803806144ef83398181016040528101906100319190610599565b5f73ffffffffffffffffffffffffffffffffffffffff168673ffffffffffffffffffffffffffffffffffffffff160361009f576040517f08c379a00000000000000000000000000000000000000000000000000000000081526004016100969061067c565b60405180910390fd5b5f73ffffffffffffffffffffffffffffffffffffffff168573ffffffffffffffffffffffffffffffffffffffff160361010d576040517f08c379a0000000000000000000000000000000000000000000000000000000008152600401610104906106e4565b60405180910390fd5b5f73ffffffffffffffffffffffffffffffffffffffff168473ffffffffffffffffffffffffffffffffffffffff160361017b576040517f08c379a00000000000000000000000000000000000000000000000000000000081526004016101729061074c565b60405180910390fd5b5f73ffffffffffffffffffffffffffffffffffffffff168373ffffffffffffffffffffffffffffffffffffffff16036101e9576040517f08c379a00000000000000000000000000000000000000000000000000000000081526004016101e0906107b4565b60405180910390fd5b5f73ffffffffffffffffffffffffffffffffffffffff168273ffffffffffffffffffffffffffffffffffffffff1603610257576040517f08c379a000000000000000000000000000000000000000000000000000000000815260040161024e9061081c565b60405180910390fd5b5f73ffffffffffffffffffffffffffffffffffffffff168173ffffffffffffffffffffffffffffffffffffffff16036102c5576040517f08c379a00000000000000000000000000000000000000000000000000000000081526004016102bc90610884565b60405180910390fd5b855f5f6101000a81548173ffffffffffffffffffffffffffffffffffffffff021916908373ffffffffffffffffffffffffffffffffffffffff1602179055508460015f6101000a81548173ffffffffffffffffffffffffffffffffffffffff021916908373ffffffffffffffffffffffffffffffffffffffff1602179055508360025f6101000a81548173ffffffffffffffffffffffffffffffffffffffff021916908373ffffffffffffffffffffffffffffffffffffffff1602179055508260035f6101000a81548173ffffffffffffffffffffffffffffffffffffffff021916908373ffffffffffffffffffffffffffffffffffffffff1602179055508160045f6101000a81548173ffffffffffffffffffffffffffffffffffffffff021916908373ffffffffffffffffffffffffffffffffffffffff1602179055508060085f6101000a81548173ffffffffffffffffffffffffffffffffffffffff021916908373ffffffffffffffffffffffffffffffffffffffff1602179055505050505050506108a2565b5f5ffd5b5f73ffffffffffffffffffffffffffffffffffffffff82169050919050565b5f61047c82610453565b9050919050565b61048c81610472565b8114610496575f5ffd5b50565b5f815190506104a781610483565b92915050565b5f6104b782610472565b9050919050565b6104c7816104ad565b81146104d1575f5ffd5b50565b5f815190506104e2816104be565b92915050565b5f6104f282610472565b9050919050565b610502816104e8565b811461050c575f5ffd5b50565b5f8151905061051d816104f9565b92915050565b5f61052d82610472565b9050919050565b61053d81610523565b8114610547575f5ffd5b50565b5f8151905061055881610534565b92915050565b5f61056882610472565b9050919050565b6105788161055e565b8114610582575f5ffd5b50565b5f815190506105938161056f565b92915050565b5f5f5f5f5f5f60c087890312156105b3576105b261044f565b5b5f6105c089828a01610499565b96505060206105d189828a016104d4565b95505060406105e289828a0161050f565b94505060606105f389828a0161054a565b935050608061060489828a01610585565b92505060a061061589828a01610499565b9150509295509295509295565b5f82825260208201905092915050565b7f41646d696e207a65726f000000000000000000000000000000000000000000005f82015250565b5f610666600a83610622565b915061067182610632565b602082019050919050565b5f6020820190508181035f8301526106938161065a565b9050919050565b7f5374616b696e67207a65726f00000000000000000000000000000000000000005f82015250565b5f6106ce600c83610622565b91506106d98261069a565b602082019050919050565b5f6020820190508181035f8301526106fb816106c2565b9050919050565b7f4e4654207a65726f0000000000000000000000000000000000000000000000005f82015250565b5f610736600883610622565b915061074182610702565b602082019050919050565b5f6020820190508181035f8301526107638161072a565b9050919050565b7f56616c696461746f72207a65726f0000000000000000000000000000000000005f82015250565b5f61079e600e83610622565b91506107a98261076a565b602082019050919050565b5f6020820190508181035f8301526107cb81610792565b9050919050565b7f42616974207a65726f00000000000000000000000000000000000000000000005f82015250565b5f610806600983610622565b9150610811826107d2565b602082019050919050565b5f6020820190508181035f830152610833816107fa565b9050919050565b7f526576656e7565207a65726f00000000000000000000000000000000000000005f82015250565b5f61086e600c83610622565b91506108798261083a565b602082019050919050565b5f6020820190508181035f83015261089b81610862565b9050919050565b613c40806108af5f395ff3fe6080604052600436106100fd575f3560e01c80637f280dc8116100945780639e6b015d116100635780639e6b015d14610307578063d2befcbc14610331578063e621ff8a1461035b578063ee69ceed14610385578063f851a440146103af576100fd565b80637f280dc81461024757806381d12c581461027757806389fcbdc5146102b5578063959da2cf146102dd576100fd565b806342c4e7d4116100d057806342c4e7d4146101a55780634cf088d9146101cd578063704b6c02146101f7578063775e646e1461021f576100fd565b806320038e811461010157806326630d941461012b5780632e30a343146101535780633b26314d1461017b575b5f5ffd5b34801561010c575f5ffd5b506101156103d9565b60405161012291906124b7565b60405180910390f35b348015610136575f5ffd5b50610151600480360381019061014c919061252d565b6103fe565b005b34801561015e575f5ffd5b5061017960048036038101906101749190612593565b6105b8565b005b348015610186575f5ffd5b5061018f610772565b60405161019c91906125cd565b60405180910390f35b3480156101b0575f5ffd5b506101cb60048036038101906101c69190612643565b610797565b005b3480156101d8575f5ffd5b506101e1610959565b6040516101ee91906126a1565b60405180910390f35b348015610202575f5ffd5b5061021d600480360381019061021891906126ba565b61097e565b005b34801561022a575f5ffd5b5061024560048036038101906102409190612835565b610abc565b005b610261600480360381019061025c91906128e7565b610e96565b60405161026e9190612934565b60405180910390f35b348015610282575f5ffd5b5061029d6004803603810190610298919061294d565b611b44565b6040516102ac93929190612a31565b60405180910390f35b3480156102c0575f5ffd5b506102db60048036038101906102d691906126ba565b611ba1565b005b3480156102e8575f5ffd5b506102f1611ce0565b6040516102fe9190612a86565b60405180910390f35b348015610312575f5ffd5b5061031b611d05565b6040516103289190612aff565b60405180910390f35b34801561033c575f5ffd5b50610345611d21565b6040516103529190612b3f565b60405180910390f35b348015610366575f5ffd5b5061036f611d46565b60405161037c9190612b78565b60405180910390f35b348015610390575f5ffd5b50610399611d6b565b6040516103a69190612934565b60405180910390f35b3480156103ba575f5ffd5b506103c3611d71565b6040516103d091906125cd565b60405180910390f35b60045f9054906101000a900473ffffffffffffffffffffffffffffffffffffffff1681565b5f5f9054906101000a900473ffffffffffffffffffffffffffffffffffffffff1673ffffffffffffffffffffffffffffffffffffffff163373ffffffffffffffffffffffffffffffffffffffff161461048c576040517f08c379a000000000000000000000000000000000000000000000000000000000815260040161048390612bdb565b60405180910390fd5b5f73ffffffffffffffffffffffffffffffffffffffff168173ffffffffffffffffffffffffffffffffffffffff16036104fa576040517f08c379a00000000000000000000000000000000000000000000000000000000081526004016104f190612c43565b60405180910390fd5b8073ffffffffffffffffffffffffffffffffffffffff1660035f9054906101000a900473ffffffffffffffffffffffffffffffffffffffff1673ffffffffffffffffffffffffffffffffffffffff167fda1dbbb874de3bd22e529bde92b4a14e7f832cf7ff22b60ea8b0e72762cfbf7560405160405180910390a38060035f6101000a81548173ffffffffffffffffffffffffffffffffffffffff021916908373ffffffffffffffffffffffffffffffffffffffff16021790555050565b5f5f9054906101000a900473ffffffffffffffffffffffffffffffffffffffff1673ffffffffffffffffffffffffffffffffffffffff163373ffffffffffffffffffffffffffffffffffffffff1614610646576040517f08c379a000000000000000000000000000000000000000000000000000000000815260040161063d90612bdb565b60405180910390fd5b5f73ffffffffffffffffffffffffffffffffffffffff168173ffffffffffffffffffffffffffffffffffffffff16036106b4576040517f08c379a00000000000000000000000000000000000000000000000000000000081526004016106ab90612cab565b60405180910390fd5b8073ffffffffffffffffffffffffffffffffffffffff1660045f9054906101000a900473ffffffffffffffffffffffffffffffffffffffff1673ffffffffffffffffffffffffffffffffffffffff167f9b787b4d2dfa412e9601d1bca71d90071b1f57f48d99ab7b9ac2b9dc1274d9cf60405160405180910390a38060045f6101000a81548173ffffffffffffffffffffffffffffffffffffffff021916908373ffffffffffffffffffffffffffffffffffffffff16021790555050565b60085f9054906101000a900473ffffffffffffffffffffffffffffffffffffffff1681565b5f5f9054906101000a900473ffffffffffffffffffffffffffffffffffffffff1673ffffffffffffffffffffffffffffffffffffffff163373ffffffffffffffffffffffffffffffffffffffff1614610825576040517f08c379a000000000000000000000000000000000000000000000000000000000815260040161081c90612bdb565b60405180910390fd5b5f73ffffffffffffffffffffffffffffffffffffffff168273ffffffffffffffffffffffffffffffffffffffff1603610893576040517f08c379a000000000000000000000000000000000000000000000000000000000815260040161088a90612d13565b60405180910390fd5b5f81116108d5576040517f08c379a00000000000000000000000000000000000000000000000000000000081526004016108cc90612d7b565b60405180910390fd5b8160055f6101000a81548173ffffffffffffffffffffffffffffffffffffffff021916908373ffffffffffffffffffffffffffffffffffffffff160217905550806006819055507f9478d151b1b1400b9ad71c1c2ad082d3c464e23e685a2972bae2170c9b3301cc828260405161094d929190612d99565b60405180910390a15050565b60015f9054906101000a900473ffffffffffffffffffffffffffffffffffffffff1681565b5f5f9054906101000a900473ffffffffffffffffffffffffffffffffffffffff1673ffffffffffffffffffffffffffffffffffffffff163373ffffffffffffffffffffffffffffffffffffffff1614610a0c576040517f08c379a0000000000000000000000000000000000000000000000000000000008152600401610a0390612bdb565b60405180910390fd5b5f73ffffffffffffffffffffffffffffffffffffffff168173ffffffffffffffffffffffffffffffffffffffff1603610a7a576040517f08c379a0000000000000000000000000000000000000000000000000000000008152600401610a7190612e0a565b60405180910390fd5b805f5f6101000a81548173ffffffffffffffffffffffffffffffffffffffff021916908373ffffffffffffffffffffffffffffffffffffffff16021790555050565b60055f9054906101000a900473ffffffffffffffffffffffffffffffffffffffff1673ffffffffffffffffffffffffffffffffffffffff163373ffffffffffffffffffffffffffffffffffffffff1614610b4b576040517f08c379a0000000000000000000000000000000000000000000000000000000008152600401610b4290612e72565b60405180910390fd5b5f60075f8581526020019081526020015f206040518060600160405290815f82015f9054906101000a900473ffffffffffffffffffffffffffffffffffffffff1673ffffffffffffffffffffffffffffffffffffffff1673ffffffffffffffffffffffffffffffffffffffff1681526020015f820160149054906101000a900460ff166003811115610be057610bdf612978565b5b6003811115610bf257610bf1612978565b5b81526020015f820160159054906101000a900460ff166002811115610c1a57610c19612978565b5b6002811115610c2c57610c2b612978565b5b8152505090505f73ffffffffffffffffffffffffffffffffffffffff16815f015173ffffffffffffffffffffffffffffffffffffffff1603610ca3576040517f08c379a0000000000000000000000000000000000000000000000000000000008152600401610c9a90612eda565b60405180910390fd5b5f835111610ce6576040517f08c379a0000000000000000000000000000000000000000000000000000000008152600401610cdd90612f42565b60405180910390fd5b60075f8581526020019081526020015f205f5f82015f6101000a81549073ffffffffffffffffffffffffffffffffffffffff02191690555f820160146101000a81549060ff02191690555f820160156101000a81549060ff021916905550505f835f81518110610d5957610d58612f60565b5b602002602001015190505f61271082610d729190612fba565b90505f610d888460200151856040015184611d95565b90505f60025f9054906101000a900473ffffffffffffffffffffffffffffffffffffffff1673ffffffffffffffffffffffffffffffffffffffff16633a3019db865f0151846040518363ffffffff1660e01b8152600401610dea929190613030565b6020604051808303815f875af1158015610e06573d5f5f3e3d5ffd5b505050506040513d601f19601f82011682018060405250810190610e2a919061306b565b905080855f015173ffffffffffffffffffffffffffffffffffffffff167f6bd382fc192deb09c24ec8fa524f56e9153fd8c9eccd26f7852171079c0a665c848860200151896040015189604051610e849493929190613096565b60405180910390a35050505050505050565b5f5f3390505f5f60035f9054906101000a900473ffffffffffffffffffffffffffffffffffffffff1673ffffffffffffffffffffffffffffffffffffffff166317050d3f84886040518363ffffffff1660e01b8152600401610ef99291906130d9565b5f60405180830381865afa158015610f13573d5f5f3e3d5ffd5b505050506040513d5f823e3d601f19601f82011682018060405250810190610f3b91906131d7565b9150915081610fd1578273ffffffffffffffffffffffffffffffffffffffff167f84756d7f0fd852b37df1b91f43c19ea34d23a44d1086c7aa937bdad2174c557c8783604051610f8c929190613231565b60405180910390a2806040517f08c379a0000000000000000000000000000000000000000000000000000000008152600401610fc89190612aff565b60405180910390fd5b600380811115610fe457610fe3612978565b5b866003811115610ff757610ff6612978565b5b148015611028575060028081111561101257611011612978565b5b85600281111561102557611024612978565b5b14155b15611068576040517f08c379a000000000000000000000000000000000000000000000000000000000815260040161105f906132a9565b60405180910390fd5b5f60045f9054906101000a900473ffffffffffffffffffffffffffffffffffffffff1673ffffffffffffffffffffffffffffffffffffffff166367412045856110b089611ec8565b6040518363ffffffff1660e01b81526004016110cd92919061330d565b602060405180830381865afa1580156110e8573d5f5f3e3d5ffd5b505050506040513d601f19601f8201168201806040525081019061110c919061306b565b90505f8111611150576040517f08c379a00000000000000000000000000000000000000000000000000000000081526004016111479061337e565b60405180910390fd5b5f60035f9054906101000a900473ffffffffffffffffffffffffffffffffffffffff1673ffffffffffffffffffffffffffffffffffffffff16630d4158c2896040518263ffffffff1660e01b81526004016111ab919061339c565b602060405180830381865afa1580156111c6573d5f5f3e3d5ffd5b505050506040513d601f19601f820116820180604052508101906111ea919061306b565b90505f8111156113c35780341015611237576040517f08c379a000000000000000000000000000000000000000000000000000000000815260040161122e906133ff565b60405180910390fd5b5f60085f9054906101000a900473ffffffffffffffffffffffffffffffffffffffff1673ffffffffffffffffffffffffffffffffffffffff168260405161127d9061344a565b5f6040518083038185875af1925050503d805f81146112b7576040519150601f19603f3d011682016040523d82523d5f602084013e6112bc565b606091505b5050905080611300576040517f08c379a00000000000000000000000000000000000000000000000000000000081526004016112f7906134a8565b60405180910390fd5b813411156113bd575f8673ffffffffffffffffffffffffffffffffffffffff16833461132c91906134f3565b6040516113389061344a565b5f6040518083038185875af1925050503d805f8114611372576040519150601f19603f3d011682016040523d82523d5f602084013e611377565b606091505b50509050806113bb576040517f08c379a00000000000000000000000000000000000000000000000000000000081526004016113b290613570565b60405180910390fd5b505b50611476565b5f341115611475575f8573ffffffffffffffffffffffffffffffffffffffff16346040516113f09061344a565b5f6040518083038185875af1925050503d805f811461142a576040519150601f19603f3d011682016040523d82523d5f602084013e61142f565b606091505b5050905080611473576040517f08c379a000000000000000000000000000000000000000000000000000000000815260040161146a90613570565b60405180910390fd5b505b5b5f5f60035f9054906101000a900473ffffffffffffffffffffffffffffffffffffffff1673ffffffffffffffffffffffffffffffffffffffff1663de9bab378b6040518263ffffffff1660e01b81526004016114d2919061339c565b6040805180830381865afa1580156114ec573d5f5f3e3d5ffd5b505050506040513d601f19601f8201168201806040525081019061151091906135b1565b915091505f81111561173f575f5f60025f9054906101000a900473ffffffffffffffffffffffffffffffffffffffff1673ffffffffffffffffffffffffffffffffffffffff166318c06b228a86866040518463ffffffff1660e01b815260040161157c939291906135ef565b5f60405180830381865afa158015611596573d5f5f3e3d5ffd5b505050506040513d5f823e3d601f19601f820116820180604052508101906115be91906136b9565b9150915081611602576040517f08c379a00000000000000000000000000000000000000000000000000000000081526004016115f99061375d565b60405180910390fd5b5f8367ffffffffffffffff81111561161d5761161c6126f9565b5b60405190808252806020026020018201604052801561164b5781602001602082028036833780820191505090505b5090505f5f90505b848110156116a25782818151811061166e5761166d612f60565b5b602002602001015182828151811061168957611688612f60565b5b6020026020010181815250508080600101915050611653565b505f6116ad8e611fa5565b905060025f9054906101000a900473ffffffffffffffffffffffffffffffffffffffff1673ffffffffffffffffffffffffffffffffffffffff16635e1beecf8c84846040518463ffffffff1660e01b815260040161170d93929190613832565b5f604051808303815f87803b158015611724575f5ffd5b505af1158015611736573d5f5f3e3d5ffd5b50505050505050505b60045f9054906101000a900473ffffffffffffffffffffffffffffffffffffffff1673ffffffffffffffffffffffffffffffffffffffff1663e5f03814886117868c611ec8565b60016040518463ffffffff1660e01b81526004016117a6939291906138ae565b5f604051808303815f87803b1580156117bd575f5ffd5b505af11580156117cf573d5f5f3e3d5ffd5b5050505060035f9054906101000a900473ffffffffffffffffffffffffffffffffffffffff1673ffffffffffffffffffffffffffffffffffffffff1663390dec79888c6040518363ffffffff1660e01b815260040161182f9291906130d9565b5f604051808303815f87803b158015611846575f5ffd5b505af1158015611858573d5f5f3e3d5ffd5b505050505f73ffffffffffffffffffffffffffffffffffffffff1660055f9054906101000a900473ffffffffffffffffffffffffffffffffffffffff1673ffffffffffffffffffffffffffffffffffffffff16036118eb576040517f08c379a00000000000000000000000000000000000000000000000000000000081526004016118e29061392d565b60405180910390fd5b5f874244604051602001611901939291906139b0565b604051602081830303815290604052805190602001205f1c905060055f9054906101000a900473ffffffffffffffffffffffffffffffffffffffff1673ffffffffffffffffffffffffffffffffffffffff1663b7b3243a6040518060600160405280602b8152602001613be0602b9139600160065485306040518663ffffffff1660e01b8152600401611998959493929190613a28565b6020604051808303815f875af11580156119b4573d5f5f3e3d5ffd5b505050506040513d601f19601f820116820180604052508101906119d8919061306b565b985060405180606001604052808973ffffffffffffffffffffffffffffffffffffffff1681526020018c6003811115611a1457611a13612978565b5b81526020018b6002811115611a2c57611a2b612978565b5b81525060075f8b81526020019081526020015f205f820151815f015f6101000a81548173ffffffffffffffffffffffffffffffffffffffff021916908373ffffffffffffffffffffffffffffffffffffffff1602179055506020820151815f0160146101000a81548160ff02191690836003811115611aae57611aad612978565b5b02179055506040820151815f0160156101000a81548160ff02191690836002811115611add57611adc612978565b5b0217905550905050888873ffffffffffffffffffffffffffffffffffffffff167f7f57c37dc1b8cf79ee50a99e1d489b4f22c489e3b27f1abce78e9cc767e5a7ea8d8d604051611b2e929190613a80565b60405180910390a3505050505050505092915050565b6007602052805f5260405f205f91509050805f015f9054906101000a900473ffffffffffffffffffffffffffffffffffffffff1690805f0160149054906101000a900460ff1690805f0160159054906101000a900460ff16905083565b5f5f9054906101000a900473ffffffffffffffffffffffffffffffffffffffff1673ffffffffffffffffffffffffffffffffffffffff163373ffffffffffffffffffffffffffffffffffffffff1614611c2f576040517f08c379a0000000000000000000000000000000000000000000000000000000008152600401611c2690612bdb565b60405180910390fd5b5f73ffffffffffffffffffffffffffffffffffffffff168173ffffffffffffffffffffffffffffffffffffffff1603611c9d576040517f08c379a0000000000000000000000000000000000000000000000000000000008152600401611c9490613af1565b60405180910390fd5b8060085f6101000a81548173ffffffffffffffffffffffffffffffffffffffff021916908373ffffffffffffffffffffffffffffffffffffffff16021790555050565b60025f9054906101000a900473ffffffffffffffffffffffffffffffffffffffff1681565b6040518060600160405280602b8152602001613be0602b913981565b60035f9054906101000a900473ffffffffffffffffffffffffffffffffffffffff1681565b60055f9054906101000a900473ffffffffffffffffffffffffffffffffffffffff1681565b60065481565b5f5f9054906101000a900473ffffffffffffffffffffffffffffffffffffffff1681565b5f5f6003811115611da957611da8612978565b5b846003811115611dbc57611dbb612978565b5b03611dd257611dcb83836120f8565b9050611ec1565b60016003811115611de657611de5612978565b5b846003811115611df957611df8612978565b5b03611e0f57611e08838361224e565b9050611ec1565b60026003811115611e2357611e22612978565b5b846003811115611e3657611e35612978565b5b03611e4b57611e44826123a4565b9050611ec1565b600380811115611e5e57611e5d612978565b5b846003811115611e7157611e70612978565b5b03611e8657611e7f826123fa565b9050611ec1565b6040517f08c379a0000000000000000000000000000000000000000000000000000000008152600401611eb890613b59565b60405180910390fd5b9392505050565b5f5f6002811115611edc57611edb612978565b5b826002811115611eef57611eee612978565b5b03611efc575f9050611fa0565b60016002811115611f1057611f0f612978565b5b826002811115611f2357611f22612978565b5b03611f315760019050611fa0565b600280811115611f4457611f43612978565b5b826002811115611f5757611f56612978565b5b03611f655760029050611fa0565b6040517f08c379a0000000000000000000000000000000000000000000000000000000008152600401611f9790613bc1565b60405180910390fd5b919050565b606060016003811115611fbb57611fba612978565b5b826003811115611fce57611fcd612978565b5b03612010576040518060400160405280600c81526020017f7a6f6e65325f616363657373000000000000000000000000000000000000000081525090506120f3565b6002600381111561202457612023612978565b5b82600381111561203757612036612978565b5b03612079576040518060400160405280600c81526020017f7a6f6e65335f616363657373000000000000000000000000000000000000000081525090506120f3565b60038081111561208c5761208b612978565b5b82600381111561209f5761209e612978565b5b036120e1576040518060400160405280600c81526020017f7a6f6e65345f616363657373000000000000000000000000000000000000000081525090506120f3565b60405180602001604052805f81525090505b919050565b5f5f600281111561210c5761210b612978565b5b83600281111561211f5761211e612978565b5b0361217857610fa0821015612136575f9050612248565b6121348210156121495760019050612248565b6126ac82101561215c5760029050612248565b61271082101561216f5760039050612248565b60049050612248565b6001600281111561218c5761218b612978565b5b83600281111561219f5761219e612978565b5b036121f857610bb88210156121b6575f9050612248565b611d4c8210156121c95760019050612248565b6125e48210156121dc5760029050612248565b6127108210156121ef5760039050612248565b60049050612248565b6107d082101561220a575f9050612248565b61177082101561221d5760019050612248565b6123288210156122305760029050612248565b6126ac8210156122435760039050612248565b600490505b92915050565b5f5f600281111561226257612261612978565b5b83600281111561227557612274612978565b5b036122ce57610bb882101561228c575f905061239e565b61177082101561229f576001905061239e565b6122608210156122b2576002905061239e565b6126488210156122c5576003905061239e565b6004905061239e565b600160028111156122e2576122e1612978565b5b8360028111156122f5576122f4612978565b5b0361234e576107d082101561230c575f905061239e565b61138882101561231f576001905061239e565b612134821015612332576002905061239e565b6125e4821015612345576003905061239e565b6004905061239e565b6105dc821015612360575f905061239e565b610fa0821015612373576001905061239e565b611d4c821015612386576002905061239e565b61251c821015612399576003905061239e565b600490505b92915050565b5f6107d08210156123b7575f90506123f5565b610dac8210156123ca57600190506123f5565b6119648210156123dd57600290506123f5565b6123288210156123f057600390506123f5565b600490505b919050565b5f6105dc82101561240d575f9050612438565b610dac8210156124205760029050612438565b611d4c8210156124335760039050612438565b600490505b919050565b5f73ffffffffffffffffffffffffffffffffffffffff82169050919050565b5f819050919050565b5f61247f61247a6124758461243d565b61245c565b61243d565b9050919050565b5f61249082612465565b9050919050565b5f6124a182612486565b9050919050565b6124b181612497565b82525050565b5f6020820190506124ca5f8301846124a8565b92915050565b5f604051905090565b5f5ffd5b5f5ffd5b5f6124eb8261243d565b9050919050565b5f6124fc826124e1565b9050919050565b61250c816124f2565b8114612516575f5ffd5b50565b5f8135905061252781612503565b92915050565b5f60208284031215612542576125416124d9565b5b5f61254f84828501612519565b91505092915050565b5f612562826124e1565b9050919050565b61257281612558565b811461257c575f5ffd5b50565b5f8135905061258d81612569565b92915050565b5f602082840312156125a8576125a76124d9565b5b5f6125b58482850161257f565b91505092915050565b6125c7816124e1565b82525050565b5f6020820190506125e05f8301846125be565b92915050565b6125ef816124e1565b81146125f9575f5ffd5b50565b5f8135905061260a816125e6565b92915050565b5f819050919050565b61262281612610565b811461262c575f5ffd5b50565b5f8135905061263d81612619565b92915050565b5f5f60408385031215612659576126586124d9565b5b5f612666858286016125fc565b92505060206126778582860161262f565b9150509250929050565b5f61268b82612486565b9050919050565b61269b81612681565b82525050565b5f6020820190506126b45f830184612692565b92915050565b5f602082840312156126cf576126ce6124d9565b5b5f6126dc848285016125fc565b91505092915050565b5f5ffd5b5f601f19601f8301169050919050565b7f4e487b71000000000000000000000000000000000000000000000000000000005f52604160045260245ffd5b61272f826126e9565b810181811067ffffffffffffffff8211171561274e5761274d6126f9565b5b80604052505050565b5f6127606124d0565b905061276c8282612726565b919050565b5f67ffffffffffffffff82111561278b5761278a6126f9565b5b602082029050602081019050919050565b5f5ffd5b5f6127b26127ad84612771565b612757565b905080838252602082019050602084028301858111156127d5576127d461279c565b5b835b818110156127fe57806127ea888261262f565b8452602084019350506020810190506127d7565b5050509392505050565b5f82601f83011261281c5761281b6126e5565b5b813561282c8482602086016127a0565b91505092915050565b5f5f5f6060848603121561284c5761284b6124d9565b5b5f6128598682870161262f565b935050602084013567ffffffffffffffff81111561287a576128796124dd565b5b61288686828701612808565b92505060406128978682870161262f565b9150509250925092565b600481106128ad575f5ffd5b50565b5f813590506128be816128a1565b92915050565b600381106128d0575f5ffd5b50565b5f813590506128e1816128c4565b92915050565b5f5f604083850312156128fd576128fc6124d9565b5b5f61290a858286016128b0565b925050602061291b858286016128d3565b9150509250929050565b61292e81612610565b82525050565b5f6020820190506129475f830184612925565b92915050565b5f60208284031215612962576129616124d9565b5b5f61296f8482850161262f565b91505092915050565b7f4e487b71000000000000000000000000000000000000000000000000000000005f52602160045260245ffd5b600481106129b6576129b5612978565b5b50565b5f8190506129c6826129a5565b919050565b5f6129d5826129b9565b9050919050565b6129e5816129cb565b82525050565b600381106129fc576129fb612978565b5b50565b5f819050612a0c826129eb565b919050565b5f612a1b826129ff565b9050919050565b612a2b81612a11565b82525050565b5f606082019050612a445f8301866125be565b612a5160208301856129dc565b612a5e6040830184612a22565b949350505050565b5f612a7082612486565b9050919050565b612a8081612a66565b82525050565b5f602082019050612a995f830184612a77565b92915050565b5f81519050919050565b5f82825260208201905092915050565b8281835e5f83830152505050565b5f612ad182612a9f565b612adb8185612aa9565b9350612aeb818560208601612ab9565b612af4816126e9565b840191505092915050565b5f6020820190508181035f830152612b178184612ac7565b905092915050565b5f612b2982612486565b9050919050565b612b3981612b1f565b82525050565b5f602082019050612b525f830184612b30565b92915050565b5f612b6282612486565b9050919050565b612b7281612b58565b82525050565b5f602082019050612b8b5f830184612b69565b92915050565b7f4e6f742061646d696e00000000000000000000000000000000000000000000005f82015250565b5f612bc5600983612aa9565b9150612bd082612b91565b602082019050919050565b5f6020820190508181035f830152612bf281612bb9565b9050919050565b7f56616c696461746f72207a65726f0000000000000000000000000000000000005f82015250565b5f612c2d600e83612aa9565b9150612c3882612bf9565b602082019050919050565b5f6020820190508181035f830152612c5a81612c21565b9050919050565b7f42616974207a65726f00000000000000000000000000000000000000000000005f82015250565b5f612c95600983612aa9565b9150612ca082612c61565b602082019050919050565b5f6020820190508181035f830152612cc281612c89565b9050919050565b7f526f75746572207a65726f0000000000000000000000000000000000000000005f82015250565b5f612cfd600b83612aa9565b9150612d0882612cc9565b602082019050919050565b5f6020820190508181035f830152612d2a81612cf1565b9050919050565b7f496e76616c696420636f6e6669726d6174696f6e7300000000000000000000005f82015250565b5f612d65601583612aa9565b9150612d7082612d31565b602082019050919050565b5f6020820190508181035f830152612d9281612d59565b9050919050565b5f604082019050612dac5f8301856125be565b612db96020830184612925565b9392505050565b7f41646d696e207a65726f000000000000000000000000000000000000000000005f82015250565b5f612df4600a83612aa9565b9150612dff82612dc0565b602082019050919050565b5f6020820190508181035f830152612e2181612de8565b9050919050565b7f4e6f7420537570726120526f75746572000000000000000000000000000000005f82015250565b5f612e5c601083612aa9565b9150612e6782612e28565b602082019050919050565b5f6020820190508181035f830152612e8981612e50565b9050919050565b7f556e6b6e6f776e207265717565737400000000000000000000000000000000005f82015250565b5f612ec4600f83612aa9565b9150612ecf82612e90565b602082019050919050565b5f6020820190508181035f830152612ef181612eb8565b9050919050565b7f4e6f2072616e646f6d206e756d626572730000000000000000000000000000005f82015250565b5f612f2c601183612aa9565b9150612f3782612ef8565b602082019050919050565b5f6020820190508181035f830152612f5981612f20565b9050919050565b7f4e487b71000000000000000000000000000000000000000000000000000000005f52603260045260245ffd5b7f4e487b71000000000000000000000000000000000000000000000000000000005f52601260045260245ffd5b5f612fc482612610565b9150612fcf83612610565b925082612fdf57612fde612f8d565b5b828206905092915050565b60058110612ffb57612ffa612978565b5b50565b5f81905061300b82612fea565b919050565b5f61301a82612ffe565b9050919050565b61302a81613010565b82525050565b5f6040820190506130435f8301856125be565b6130506020830184613021565b9392505050565b5f8151905061306581612619565b92915050565b5f602082840312156130805761307f6124d9565b5b5f61308d84828501613057565b91505092915050565b5f6080820190506130a95f830187613021565b6130b660208301866129dc565b6130c36040830185612a22565b6130d06060830184612925565b95945050505050565b5f6040820190506130ec5f8301856125be565b6130f960208301846129dc565b9392505050565b5f8115159050919050565b61311481613100565b811461311e575f5ffd5b50565b5f8151905061312f8161310b565b92915050565b5f5ffd5b5f67ffffffffffffffff821115613153576131526126f9565b5b61315c826126e9565b9050602081019050919050565b5f61317b61317684613139565b612757565b90508281526020810184848401111561319757613196613135565b5b6131a2848285612ab9565b509392505050565b5f82601f8301126131be576131bd6126e5565b5b81516131ce848260208601613169565b91505092915050565b5f5f604083850312156131ed576131ec6124d9565b5b5f6131fa85828601613121565b925050602083015167ffffffffffffffff81111561321b5761321a6124dd565b5b613227858286016131aa565b9150509250929050565b5f6040820190506132445f8301856129dc565b81810360208301526132568184612ac7565b90509392505050565b7f5a6f6e65203420726571756972657320457069632042616974206f6e6c7900005f82015250565b5f613293601e83612aa9565b915061329e8261325f565b602082019050919050565b5f6020820190508181035f8301526132c081613287565b9050919050565b600381106132d8576132d7612978565b5b50565b5f8190506132e8826132c7565b919050565b5f6132f7826132db565b9050919050565b613307816132ed565b82525050565b5f6040820190506133205f8301856125be565b61332d60208301846132fe565b9392505050565b7f496e73756666696369656e7420626169740000000000000000000000000000005f82015250565b5f613368601183612aa9565b915061337382613334565b602082019050919050565b5f6020820190508181035f8301526133958161335c565b9050919050565b5f6020820190506133af5f8301846129dc565b92915050565b7f496e73756666696369656e7420656e74727920666565000000000000000000005f82015250565b5f6133e9601683612aa9565b91506133f4826133b5565b602082019050919050565b5f6020820190508181035f830152613416816133dd565b9050919050565b5f81905092915050565b50565b5f6134355f8361341d565b915061344082613427565b5f82019050919050565b5f6134548261342a565b9150819050919050565b7f456e74727920666565207472616e73666572206661696c6564000000000000005f82015250565b5f613492601983612aa9565b915061349d8261345e565b602082019050919050565b5f6020820190508181035f8301526134bf81613486565b9050919050565b7f4e487b71000000000000000000000000000000000000000000000000000000005f52601160045260245ffd5b5f6134fd82612610565b915061350883612610565b92508282039050818111156135205761351f6134c6565b5b92915050565b7f526566756e64206661696c6564000000000000000000000000000000000000005f82015250565b5f61355a600d83612aa9565b915061356582613526565b602082019050919050565b5f6020820190508181035f8301526135878161354e565b9050919050565b6005811061359a575f5ffd5b50565b5f815190506135ab8161358e565b92915050565b5f5f604083850312156135c7576135c66124d9565b5b5f6135d48582860161359d565b92505060206135e585828601613057565b9150509250929050565b5f6060820190506136025f8301866125be565b61360f6020830185613021565b61361c6040830184612925565b949350505050565b5f61363661363184612771565b612757565b905080838252602082019050602084028301858111156136595761365861279c565b5b835b81811015613682578061366e8882613057565b84526020840193505060208101905061365b565b5050509392505050565b5f82601f8301126136a05761369f6126e5565b5b81516136b0848260208601613624565b91505092915050565b5f5f604083850312156136cf576136ce6124d9565b5b5f6136dc85828601613121565b925050602083015167ffffffffffffffff8111156136fd576136fc6124dd565b5b6137098582860161368c565b9150509250929050565b7f496e73756666696369656e74206669736820746f206275726e000000000000005f82015250565b5f613747601983612aa9565b915061375282613713565b602082019050919050565b5f6020820190508181035f8301526137748161373b565b9050919050565b5f81519050919050565b5f82825260208201905092915050565b5f819050602082019050919050565b6137ad81612610565b82525050565b5f6137be83836137a4565b60208301905092915050565b5f602082019050919050565b5f6137e08261377b565b6137ea8185613785565b93506137f583613795565b805f5b8381101561382557815161380c88826137b3565b9750613817836137ca565b9250506001810190506137f8565b5085935050505092915050565b5f6060820190506138455f8301866125be565b818103602083015261385781856137d6565b9050818103604083015261386b8184612ac7565b9050949350505050565b5f819050919050565b5f61389861389361388e84613875565b61245c565b612610565b9050919050565b6138a88161387e565b82525050565b5f6060820190506138c15f8301866125be565b6138ce60208301856132fe565b6138db604083018461389f565b949350505050565b7f565246206e6f7420636f6e6669677572656400000000000000000000000000005f82015250565b5f613917601283612aa9565b9150613922826138e3565b602082019050919050565b5f6020820190508181035f8301526139448161390b565b9050919050565b5f8160601b9050919050565b5f6139618261394b565b9050919050565b5f61397282613957565b9050919050565b61398a613985826124e1565b613968565b82525050565b5f819050919050565b6139aa6139a582612610565b613990565b82525050565b5f6139bb8286613979565b6014820191506139cb8285613999565b6020820191506139db8284613999565b602082019150819050949350505050565b5f60ff82169050919050565b5f613a12613a0d613a0884613875565b61245c565b6139ec565b9050919050565b613a22816139f8565b82525050565b5f60a0820190508181035f830152613a408188612ac7565b9050613a4f6020830187613a19565b613a5c6040830186612925565b613a696060830185612925565b613a7660808301846125be565b9695505050505050565b5f604082019050613a935f8301856129dc565b613aa06020830184612a22565b9392505050565b7f526563697069656e74207a65726f0000000000000000000000000000000000005f82015250565b5f613adb600e83612aa9565b9150613ae682613aa7565b602082019050919050565b5f6020820190508181035f830152613b0881613acf565b9050919050565b7f496e76616c6964207a6f6e6500000000000000000000000000000000000000005f82015250565b5f613b43600c83612aa9565b9150613b4e82613b0f565b602082019050919050565b5f6020820190508181035f830152613b7081613b37565b9050919050565b7f496e76616c6964206261697400000000000000000000000000000000000000005f82015250565b5f613bab600c83612aa9565b9150613bb682613b77565b602082019050919050565b5f6020820190508181035f830152613bd881613b9f565b905091905056fe737570726156524643616c6c6261636b2875696e743235362c75696e743235365b5d2c75696e7432353629a2646970667358221220bb0dc4f0ffb2226adc8d5181f361bcb917afd5fbeae799d370f15dca2f34654264736f6c634300081e0033","linkReferences":{}},"methodIdentifiers":{"SUPRA_CALLBACK_SIG()":"9e6b015d","admin()":"f851a440","castLine(uint8,uint8)":"7f280dc8","fishBait()":"20038e81","fishNFT()":"959da2cf","requests(uint256)":"81d12c58","revenueRecipient()":"3b26314d","setAdmin(address)":"704b6c02","setFishBait(address)":"2e30a343","setRevenueRecipient(address)":"89fcbdc5","setSupraVRFConfig(address,uint256)":"42c4e7d4","setZoneValidator(address)":"26630d94","staking()":"4cf088d9","supraNumConfirmations()":"ee69ceed","supraRouter()":"e621ff8a","supraVRFCallback(uint256,uint256[],uint256)":"775e646e","zoneValidator()":"d2befcbc"},"id":44}