{"abi":[{"type":"constructor","inputs":[{"name":"_admin","type":"address","internalType":"address"}],"stateMutability":"nonpayable"},{"type":"function","name":"UNSTAKE_COOLDOWN","inputs":[],"outputs":[{"name":"","type":"uint256","internalType":"uint256"}],"stateMutability":"view"},{"type":"function","name":"admin","inputs":[],"outputs":[{"name":"","type":"address","internalType":"address"}],"stateMutability":"view"},{"type":"function","name":"cancelUnstakeRequest","inputs":[],"outputs":[],"stateMutability":"nonpayable"},{"type":"function","name":"executeUnstake","inputs":[],"outputs":[],"stateMutability":"nonpayable"},{"type":"function","name":"getLicenseTier","inputs":[{"name":"user","type":"address","internalType":"address"}],"outputs":[{"name":"","type":"uint8","internalType":"uint8"}],"stateMutability":"view"},{"type":"function","name":"getUnstakeRequest","inputs":[{"name":"user","type":"address","internalType":"address"}],"outputs":[{"name":"amount","type":"uint256","internalType":"uint256"},{"name":"availableAt","type":"uint256","internalType":"uint256"}],"stateMutability":"view"},{"type":"function","name":"requestUnstake","inputs":[{"name":"amount","type":"uint256","internalType":"uint256"}],"outputs":[],"stateMutability":"nonpayable"},{"type":"function","name":"setAdmin","inputs":[{"name":"_newAdmin","type":"address","internalType":"address"}],"outputs":[],"stateMutability":"nonpayable"},{"type":"function","name":"stake","inputs":[],"outputs":[],"stateMutability":"payable"},{"type":"function","name":"stakes","inputs":[{"name":"","type":"address","internalType":"address"}],"outputs":[{"name":"","type":"uint256","internalType":"uint256"}],"stateMutability":"view"},{"type":"function","name":"totalStaked","inputs":[],"outputs":[{"name":"","type":"uint256","internalType":"uint256"}],"stateMutability":"view"},{"type":"function","name":"unstakeAvailableAt","inputs":[{"name":"","type":"address","internalType":"address"}],"outputs":[{"name":"","type":"uint256","internalType":"uint256"}],"stateMutability":"view"},{"type":"function","name":"unstakeRequestAmount","inputs":[{"name":"","type":"address","internalType":"address"}],"outputs":[{"name":"","type":"uint256","internalType":"uint256"}],"stateMutability":"view"},{"type":"event","name":"AdminUpdated","inputs":[{"name":"oldAdmin","type":"address","indexed":true,"internalType":"address"},{"name":"newAdmin","type":"address","indexed":true,"internalType":"address"}],"anonymous":false},{"type":"event","name":"Staked","inputs":[{"name":"user","type":"address","indexed":true,"internalType":"address"},{"name":"amount","type":"uint256","indexed":false,"internalType":"uint256"},{"name":"licenseTier","type":"uint8","indexed":false,"internalType":"uint8"}],"anonymous":false},{"type":"event","name":"UnstakeExecuted","inputs":[{"name":"user","type":"address","indexed":true,"internalType":"address"},{"name":"amount","type":"uint256","indexed":false,"internalType":"uint256"}],"anonymous":false},{"type":"event","name":"UnstakeRequested","inputs":[{"name":"user","type":"address","indexed":true,"internalType":"address"},{"name":"amount","type":"uint256","indexed":false,"internalType":"uint256"},{"name":"availableAt","type":"uint256","indexed":false,"internalType":"uint256"}],"anonymous":false}],"bytecode":{"object":"0x608060405234801561000f575f5ffd5b5060405161166638038061166683398181016040528101906100319190610142565b5f73ffffffffffffffffffffffffffffffffffffffff168173ffffffffffffffffffffffffffffffffffffffff160361009f576040517f08c379a0000000000000000000000000000000000000000000000000000000008152600401610096906101c7565b60405180910390fd5b805f5f6101000a81548173ffffffffffffffffffffffffffffffffffffffff021916908373ffffffffffffffffffffffffffffffffffffffff160217905550506101e5565b5f5ffd5b5f73ffffffffffffffffffffffffffffffffffffffff82169050919050565b5f610111826100e8565b9050919050565b61012181610107565b811461012b575f5ffd5b50565b5f8151905061013c81610118565b92915050565b5f60208284031215610157576101566100e4565b5b5f6101648482850161012e565b91505092915050565b5f82825260208201905092915050565b7f41646d696e207a65726f000000000000000000000000000000000000000000005f82015250565b5f6101b1600a8361016d565b91506101bc8261017d565b602082019050919050565b5f6020820190508181035f8301526101de816101a5565b9050919050565b611474806101f25f395ff3fe6080604052600436106100c1575f3560e01c80633a4b66f11161007e578063817b1cd211610058578063817b1cd214610250578063a599efd21461027a578063b2ad7e3c146102b6578063f851a440146102cc576100c1565b80633a4b66f1146101e157806364a6c194146101eb578063704b6c0214610228576100c1565b80630b60c58f146100c55780630cea2bda146100ef57806316934fc4146101055780632309572114610141578063349294e91461016957806336565b66146101a5575b5f5ffd5b3480156100d0575f5ffd5b506100d96102f6565b6040516100e69190610e79565b60405180910390f35b3480156100fa575f5ffd5b506101036102fd565b005b348015610110575f5ffd5b5061012b60048036038101906101269190610ef0565b610664565b6040516101389190610e79565b60405180910390f35b34801561014c575f5ffd5b5061016760048036038101906101629190610f45565b610679565b005b348015610174575f5ffd5b5061018f600480360381019061018a9190610ef0565b6108e1565b60405161019c9190610e79565b60405180910390f35b3480156101b0575f5ffd5b506101cb60048036038101906101c69190610ef0565b6108f6565b6040516101d89190610f8b565b60405180910390f35b6101e9610944565b005b3480156101f6575f5ffd5b50610211600480360381019061020c9190610ef0565b610a8d565b60405161021f929190610fa4565b60405180910390f35b348015610233575f5ffd5b5061024e60048036038101906102499190610ef0565b610b14565b005b34801561025b575f5ffd5b50610264610ccc565b6040516102719190610e79565b60405180910390f35b348015610285575f5ffd5b506102a0600480360381019061029b9190610ef0565b610cd2565b6040516102ad9190610e79565b60405180910390f35b3480156102c1575f5ffd5b506102ca610ce7565b005b3480156102d7575f5ffd5b506102e0610de8565b6040516102ed9190610fda565b60405180910390f35b6203f48081565b5f60035f3373ffffffffffffffffffffffffffffffffffffffff1673ffffffffffffffffffffffffffffffffffffffff1681526020019081526020015f205490505f8111610380576040517f08c379a00000000000000000000000000000000000000000000000000000000081526004016103779061104d565b60405180910390fd5b60045f3373ffffffffffffffffffffffffffffffffffffffff1673ffffffffffffffffffffffffffffffffffffffff1681526020019081526020015f2054421015610400576040517f08c379a00000000000000000000000000000000000000000000000000000000081526004016103f7906110b5565b60405180910390fd5b5f60025f3373ffffffffffffffffffffffffffffffffffffffff1673ffffffffffffffffffffffffffffffffffffffff1681526020019081526020015f2054905081811015610484576040517f08c379a000000000000000000000000000000000000000000000000000000000815260040161047b9061111d565b60405180910390fd5b60035f3373ffffffffffffffffffffffffffffffffffffffff1673ffffffffffffffffffffffffffffffffffffffff1681526020019081526020015f205f905560045f3373ffffffffffffffffffffffffffffffffffffffff1673ffffffffffffffffffffffffffffffffffffffff1681526020019081526020015f205f905581816105109190611168565b60025f3373ffffffffffffffffffffffffffffffffffffffff1673ffffffffffffffffffffffffffffffffffffffff1681526020019081526020015f20819055508160015f8282546105629190611168565b925050819055505f3373ffffffffffffffffffffffffffffffffffffffff168360405161058e906111c8565b5f6040518083038185875af1925050503d805f81146105c8576040519150601f19603f3d011682016040523d82523d5f602084013e6105cd565b606091505b5050905080610611576040517f08c379a000000000000000000000000000000000000000000000000000000000815260040161060890611226565b60405180910390fd5b3373ffffffffffffffffffffffffffffffffffffffff167fe3e01bae44eb85a30bd61c3742b60e379576ff5070a142675f575f53d5bbc2e4846040516106579190610e79565b60405180910390a2505050565b6002602052805f5260405f205f915090505481565b5f60025f3373ffffffffffffffffffffffffffffffffffffffff1673ffffffffffffffffffffffffffffffffffffffff1681526020019081526020015f205490505f82116106fc576040517f08c379a00000000000000000000000000000000000000000000000000000000081526004016106f39061128e565b60405180910390fd5b8181101561073f576040517f08c379a00000000000000000000000000000000000000000000000000000000081526004016107369061111d565b60405180910390fd5b5f60035f3373ffffffffffffffffffffffffffffffffffffffff1673ffffffffffffffffffffffffffffffffffffffff1681526020019081526020015f2054146107be576040517f08c379a00000000000000000000000000000000000000000000000000000000081526004016107b5906112f6565b60405180910390fd5b8160035f3373ffffffffffffffffffffffffffffffffffffffff1673ffffffffffffffffffffffffffffffffffffffff1681526020019081526020015f20819055506203f4804261080f9190611314565b60045f3373ffffffffffffffffffffffffffffffffffffffff1673ffffffffffffffffffffffffffffffffffffffff1681526020019081526020015f20819055503373ffffffffffffffffffffffffffffffffffffffff167f57e41df54512c76148b5ba9b643d149752b0d35e493b969bd017d0a3fe5228cf8360045f3373ffffffffffffffffffffffffffffffffffffffff1673ffffffffffffffffffffffffffffffffffffffff1681526020019081526020015f20546040516108d5929190610fa4565b60405180910390a25050565b6004602052805f5260405f205f915090505481565b5f61093d60025f8473ffffffffffffffffffffffffffffffffffffffff1673ffffffffffffffffffffffffffffffffffffffff1681526020019081526020015f2054610e0c565b9050919050565b5f3411610986576040517f08c379a000000000000000000000000000000000000000000000000000000000815260040161097d9061128e565b60405180910390fd5b3460025f3373ffffffffffffffffffffffffffffffffffffffff1673ffffffffffffffffffffffffffffffffffffffff1681526020019081526020015f205f8282546109d29190611314565b925050819055503460015f8282546109ea9190611314565b925050819055505f610a3860025f3373ffffffffffffffffffffffffffffffffffffffff1673ffffffffffffffffffffffffffffffffffffffff1681526020019081526020015f2054610e0c565b90503373ffffffffffffffffffffffffffffffffffffffff167f8acf475137e0cd74ca7f611d16b1e6383ec9a9c71a8e5b85967781b9c7214d113483604051610a82929190611347565b60405180910390a250565b5f5f60035f8473ffffffffffffffffffffffffffffffffffffffff1673ffffffffffffffffffffffffffffffffffffffff1681526020019081526020015f205460045f8573ffffffffffffffffffffffffffffffffffffffff1673ffffffffffffffffffffffffffffffffffffffff1681526020019081526020015f205491509150915091565b5f5f9054906101000a900473ffffffffffffffffffffffffffffffffffffffff1673ffffffffffffffffffffffffffffffffffffffff163373ffffffffffffffffffffffffffffffffffffffff1614610ba2576040517f08c379a0000000000000000000000000000000000000000000000000000000008152600401610b99906113b8565b60405180910390fd5b5f73ffffffffffffffffffffffffffffffffffffffff168173ffffffffffffffffffffffffffffffffffffffff1603610c10576040517f08c379a0000000000000000000000000000000000000000000000000000000008152600401610c0790611420565b60405180910390fd5b8073ffffffffffffffffffffffffffffffffffffffff165f5f9054906101000a900473ffffffffffffffffffffffffffffffffffffffff1673ffffffffffffffffffffffffffffffffffffffff167f101b8081ff3b56bbf45deb824d86a3b0fd38b7e3dd42421105cf8abe9106db0b60405160405180910390a3805f5f6101000a81548173ffffffffffffffffffffffffffffffffffffffff021916908373ffffffffffffffffffffffffffffffffffffffff16021790555050565b60015481565b6003602052805f5260405f205f915090505481565b5f60035f3373ffffffffffffffffffffffffffffffffffffffff1673ffffffffffffffffffffffffffffffffffffffff1681526020019081526020015f205411610d66576040517f08c379a0000000000000000000000000000000000000000000000000000000008152600401610d5d9061104d565b60405180910390fd5b60035f3373ffffffffffffffffffffffffffffffffffffffff1673ffffffffffffffffffffffffffffffffffffffff1681526020019081526020015f205f905560045f3373ffffffffffffffffffffffffffffffffffffffff1673ffffffffffffffffffffffffffffffffffffffff1681526020019081526020015f205f9055565b5f5f9054906101000a900473ffffffffffffffffffffffffffffffffffffffff1681565b5f681b1ae4d6e2ef5000008210610e265760039050610e5c565b680d8d726b7177a800008210610e3f5760029050610e5c565b68056bc75e2d631000008210610e585760019050610e5c565b5f90505b919050565b5f819050919050565b610e7381610e61565b82525050565b5f602082019050610e8c5f830184610e6a565b92915050565b5f5ffd5b5f73ffffffffffffffffffffffffffffffffffffffff82169050919050565b5f610ebf82610e96565b9050919050565b610ecf81610eb5565b8114610ed9575f5ffd5b50565b5f81359050610eea81610ec6565b92915050565b5f60208284031215610f0557610f04610e92565b5b5f610f1284828501610edc565b91505092915050565b610f2481610e61565b8114610f2e575f5ffd5b50565b5f81359050610f3f81610f1b565b92915050565b5f60208284031215610f5a57610f59610e92565b5b5f610f6784828501610f31565b91505092915050565b5f60ff82169050919050565b610f8581610f70565b82525050565b5f602082019050610f9e5f830184610f7c565b92915050565b5f604082019050610fb75f830185610e6a565b610fc46020830184610e6a565b9392505050565b610fd481610eb5565b82525050565b5f602082019050610fed5f830184610fcb565b92915050565b5f82825260208201905092915050565b7f4e6f20756e7374616b65207265717565737400000000000000000000000000005f82015250565b5f611037601283610ff3565b915061104282611003565b602082019050919050565b5f6020820190508181035f8301526110648161102b565b9050919050565b7f436f6f6c646f776e2061637469766500000000000000000000000000000000005f82015250565b5f61109f600f83610ff3565b91506110aa8261106b565b602082019050919050565b5f6020820190508181035f8301526110cc81611093565b9050919050565b7f496e73756666696369656e74207374616b6500000000000000000000000000005f82015250565b5f611107601283610ff3565b9150611112826110d3565b602082019050919050565b5f6020820190508181035f830152611134816110fb565b9050919050565b7f4e487b71000000000000000000000000000000000000000000000000000000005f52601160045260245ffd5b5f61117282610e61565b915061117d83610e61565b92508282039050818111156111955761119461113b565b5b92915050565b5f81905092915050565b50565b5f6111b35f8361119b565b91506111be826111a5565b5f82019050919050565b5f6111d2826111a8565b9150819050919050565b7f5472616e73666572206661696c656400000000000000000000000000000000005f82015250565b5f611210600f83610ff3565b915061121b826111dc565b602082019050919050565b5f6020820190508181035f83015261123d81611204565b9050919050565b7f5a65726f20616d6f756e740000000000000000000000000000000000000000005f82015250565b5f611278600b83610ff3565b915061128382611244565b602082019050919050565b5f6020820190508181035f8301526112a58161126c565b9050919050565b7f556e7374616b6520616c726561647920726571756573746564000000000000005f82015250565b5f6112e0601983610ff3565b91506112eb826112ac565b602082019050919050565b5f6020820190508181035f83015261130d816112d4565b9050919050565b5f61131e82610e61565b915061132983610e61565b92508282019050808211156113415761134061113b565b5b92915050565b5f60408201905061135a5f830185610e6a565b6113676020830184610f7c565b9392505050565b7f4e6f742061646d696e00000000000000000000000000000000000000000000005f82015250565b5f6113a2600983610ff3565b91506113ad8261136e565b602082019050919050565b5f6020820190508181035f8301526113cf81611396565b9050919050565b7f41646d696e207a65726f000000000000000000000000000000000000000000005f82015250565b5f61140a600a83610ff3565b9150611415826113d6565b602082019050919050565b5f6020820190508181035f830152611437816113fe565b905091905056fea264697066735822122071029d0d62ee8b8cf4b39d71ab05bcb8a7c52e8ca8ee7a983debc2c6728a1d1764736f6c634300081e0033","linkReferences":{}},"methodIdentifiers":{"UNSTAKE_COOLDOWN()":"0b60c58f","admin()":"f851a440","cancelUnstakeRequest()":"b2ad7e3c","executeUnstake()":"0cea2bda","getLicenseTier(address)":"36565b66","getUnstakeRequest(address)":"64a6c194","requestUnstake(uint256)":"23095721","setAdmin(address)":"704b6c02","stake()":"3a4b66f1","stakes(address)":"16934fc4","totalStaked()":"817b1cd2","unstakeAvailableAt(address)":"349294e9","unstakeRequestAmount(address)":"a599efd2"},"id":40}