{"abi":[{"type":"constructor","inputs":[{"name":"_admin","type":"address","internalType":"address"}],"stateMutability":"nonpayable"},{"type":"function","name":"COMMON_PRICE","inputs":[],"outputs":[{"name":"","type":"uint256","internalType":"uint256"}],"stateMutability":"view"},{"type":"function","name":"EPIC_PRICE","inputs":[],"outputs":[{"name":"","type":"uint256","internalType":"uint256"}],"stateMutability":"view"},{"type":"function","name":"RARE_PRICE","inputs":[],"outputs":[{"name":"","type":"uint256","internalType":"uint256"}],"stateMutability":"view"},{"type":"function","name":"admin","inputs":[],"outputs":[{"name":"","type":"address","internalType":"address"}],"stateMutability":"view"},{"type":"function","name":"baitBalance","inputs":[{"name":"","type":"address","internalType":"address"},{"name":"","type":"uint8","internalType":"enum FishBait.BaitType"}],"outputs":[{"name":"","type":"uint256","internalType":"uint256"}],"stateMutability":"view"},{"type":"function","name":"balanceOf","inputs":[{"name":"user","type":"address","internalType":"address"},{"name":"baitType","type":"uint8","internalType":"enum FishBait.BaitType"}],"outputs":[{"name":"","type":"uint256","internalType":"uint256"}],"stateMutability":"view"},{"type":"function","name":"consumeBait","inputs":[{"name":"user","type":"address","internalType":"address"},{"name":"baitType","type":"uint8","internalType":"enum FishBait.BaitType"},{"name":"amount","type":"uint256","internalType":"uint256"}],"outputs":[],"stateMutability":"nonpayable"},{"type":"function","name":"fishingGame","inputs":[],"outputs":[{"name":"","type":"address","internalType":"address"}],"stateMutability":"view"},{"type":"function","name":"getBaitPrice","inputs":[{"name":"baitType","type":"uint8","internalType":"enum FishBait.BaitType"}],"outputs":[{"name":"","type":"uint256","internalType":"uint256"}],"stateMutability":"pure"},{"type":"function","name":"purchaseBait","inputs":[{"name":"baitType","type":"uint8","internalType":"enum FishBait.BaitType"},{"name":"amount","type":"uint256","internalType":"uint256"}],"outputs":[],"stateMutability":"payable"},{"type":"function","name":"setAdmin","inputs":[{"name":"_newAdmin","type":"address","internalType":"address"}],"outputs":[],"stateMutability":"nonpayable"},{"type":"function","name":"setFishingGame","inputs":[{"name":"_game","type":"address","internalType":"address"}],"outputs":[],"stateMutability":"nonpayable"},{"type":"event","name":"BaitConsumed","inputs":[{"name":"user","type":"address","indexed":true,"internalType":"address"},{"name":"baitType","type":"uint8","indexed":true,"internalType":"enum FishBait.BaitType"},{"name":"amount","type":"uint256","indexed":false,"internalType":"uint256"}],"anonymous":false},{"type":"event","name":"BaitPurchased","inputs":[{"name":"user","type":"address","indexed":true,"internalType":"address"},{"name":"baitType","type":"uint8","indexed":true,"internalType":"enum FishBait.BaitType"},{"name":"amount","type":"uint256","indexed":false,"internalType":"uint256"},{"name":"totalCost","type":"uint256","indexed":false,"internalType":"uint256"}],"anonymous":false}],"bytecode":{"object":"0x608060405234801561000f575f5ffd5b5060405161157738038061157783398181016040528101906100319190610142565b5f73ffffffffffffffffffffffffffffffffffffffff168173ffffffffffffffffffffffffffffffffffffffff160361009f576040517f08c379a0000000000000000000000000000000000000000000000000000000008152600401610096906101c7565b60405180910390fd5b805f5f6101000a81548173ffffffffffffffffffffffffffffffffffffffff021916908373ffffffffffffffffffffffffffffffffffffffff160217905550506101e5565b5f5ffd5b5f73ffffffffffffffffffffffffffffffffffffffff82169050919050565b5f610111826100e8565b9050919050565b61012181610107565b811461012b575f5ffd5b50565b5f8151905061013c81610118565b92915050565b5f60208284031215610157576101566100e4565b5b5f6101648482850161012e565b91505092915050565b5f82825260208201905092915050565b7f41646d696e207a65726f000000000000000000000000000000000000000000005f82015250565b5f6101b1600a8361016d565b91506101bc8261017d565b602082019050919050565b5f6020820190508181035f8301526101de816101a5565b9050919050565b611385806101f25f395ff3fe6080604052600436106100a6575f3560e01c8063b9f284a711610063578063b9f284a7146101d8578063cedc0b34146101f4578063d51998991461021e578063e5f0381414610248578063ed1b2a9e14610270578063f851a4401461029a576100a6565b80631929960d146100aa5780632e119c79146100e65780634113fea7146101105780635d10a70f1461014c5780636741204514610174578063704b6c02146101b0575b5f5ffd5b3480156100b5575f5ffd5b506100d060048036038101906100cb9190610c89565b6102c4565b6040516100dd9190610cdf565b60405180910390f35b3480156100f1575f5ffd5b506100fa6102e4565b6040516101079190610cdf565b60405180910390f35b34801561011b575f5ffd5b5061013660048036038101906101319190610cf8565b6102f0565b6040516101439190610cdf565b60405180910390f35b348015610157575f5ffd5b50610172600480360381019061016d9190610d23565b610301565b005b34801561017f575f5ffd5b5061019a60048036038101906101959190610c89565b610440565b6040516101a79190610cdf565b60405180910390f35b3480156101bb575f5ffd5b506101d660048036038101906101d19190610d23565b6104ba565b005b6101f260048036038101906101ed9190610d78565b6105f8565b005b3480156101ff575f5ffd5b50610208610844565b6040516102159190610cdf565b60405180910390f35b348015610229575f5ffd5b50610232610850565b60405161023f9190610cdf565b60405180910390f35b348015610253575f5ffd5b5061026e60048036038101906102699190610db6565b61085c565b005b34801561027b575f5ffd5b50610284610acc565b6040516102919190610e15565b60405180910390f35b3480156102a5575f5ffd5b506102ae610af1565b6040516102bb9190610e15565b60405180910390f35b6002602052815f5260405f20602052805f5260405f205f91509150505481565b671bc16d674ec8000081565b5f6102fa82610b15565b9050919050565b5f5f9054906101000a900473ffffffffffffffffffffffffffffffffffffffff1673ffffffffffffffffffffffffffffffffffffffff163373ffffffffffffffffffffffffffffffffffffffff161461038f576040517f08c379a000000000000000000000000000000000000000000000000000000000815260040161038690610e88565b60405180910390fd5b5f73ffffffffffffffffffffffffffffffffffffffff168173ffffffffffffffffffffffffffffffffffffffff16036103fd576040517f08c379a00000000000000000000000000000000000000000000000000000000081526004016103f490610ef0565b60405180910390fd5b8060015f6101000a81548173ffffffffffffffffffffffffffffffffffffffff021916908373ffffffffffffffffffffffffffffffffffffffff16021790555050565b5f60025f8473ffffffffffffffffffffffffffffffffffffffff1673ffffffffffffffffffffffffffffffffffffffff1681526020019081526020015f205f83600281111561049257610491610f0e565b5b60028111156104a4576104a3610f0e565b5b81526020019081526020015f2054905092915050565b5f5f9054906101000a900473ffffffffffffffffffffffffffffffffffffffff1673ffffffffffffffffffffffffffffffffffffffff163373ffffffffffffffffffffffffffffffffffffffff1614610548576040517f08c379a000000000000000000000000000000000000000000000000000000000815260040161053f90610e88565b60405180910390fd5b5f73ffffffffffffffffffffffffffffffffffffffff168173ffffffffffffffffffffffffffffffffffffffff16036105b6576040517f08c379a00000000000000000000000000000000000000000000000000000000081526004016105ad90610f85565b60405180910390fd5b805f5f6101000a81548173ffffffffffffffffffffffffffffffffffffffff021916908373ffffffffffffffffffffffffffffffffffffffff16021790555050565b5f811161063a576040517f08c379a000000000000000000000000000000000000000000000000000000000815260040161063190610fed565b60405180910390fd5b5f61064483610b15565b90505f82826106539190611038565b905080341015610698576040517f08c379a000000000000000000000000000000000000000000000000000000000815260040161068f906110c3565b60405180910390fd5b8260025f3373ffffffffffffffffffffffffffffffffffffffff1673ffffffffffffffffffffffffffffffffffffffff1681526020019081526020015f205f8660028111156106ea576106e9610f0e565b5b60028111156106fc576106fb610f0e565b5b81526020019081526020015f205f82825461071791906110e1565b92505081905550803411156107db575f3373ffffffffffffffffffffffffffffffffffffffff16823461074a9190611114565b60405161075690611174565b5f6040518083038185875af1925050503d805f8114610790576040519150601f19603f3d011682016040523d82523d5f602084013e610795565b606091505b50509050806107d9576040517f08c379a00000000000000000000000000000000000000000000000000000000081526004016107d0906111d2565b60405180910390fd5b505b8360028111156107ee576107ed610f0e565b5b3373ffffffffffffffffffffffffffffffffffffffff167f754bb696311248c6e1c5a23ddf45cfe4d1902c64e99bcf1d210fc28dfebfad4085846040516108369291906111f0565b60405180910390a350505050565b673782dace9d90000081565b670de0b6b3a764000081565b60015f9054906101000a900473ffffffffffffffffffffffffffffffffffffffff1673ffffffffffffffffffffffffffffffffffffffff163373ffffffffffffffffffffffffffffffffffffffff16146108eb576040517f08c379a00000000000000000000000000000000000000000000000000000000081526004016108e290611261565b60405180910390fd5b5f811161092d576040517f08c379a000000000000000000000000000000000000000000000000000000000815260040161092490610fed565b60405180910390fd5b8060025f8573ffffffffffffffffffffffffffffffffffffffff1673ffffffffffffffffffffffffffffffffffffffff1681526020019081526020015f205f84600281111561097f5761097e610f0e565b5b600281111561099157610990610f0e565b5b81526020019081526020015f205410156109e0576040517f08c379a00000000000000000000000000000000000000000000000000000000081526004016109d7906112c9565b60405180910390fd5b8060025f8573ffffffffffffffffffffffffffffffffffffffff1673ffffffffffffffffffffffffffffffffffffffff1681526020019081526020015f205f846002811115610a3257610a31610f0e565b5b6002811115610a4457610a43610f0e565b5b81526020019081526020015f205f828254610a5f9190611114565b92505081905550816002811115610a7957610a78610f0e565b5b8373ffffffffffffffffffffffffffffffffffffffff167f0c3fed1806b957cce9b4bcb62272c176ad7f2c1a143803a182a474b1ee4f9be183604051610abf9190610cdf565b60405180910390a3505050565b60015f9054906101000a900473ffffffffffffffffffffffffffffffffffffffff1681565b5f5f9054906101000a900473ffffffffffffffffffffffffffffffffffffffff1681565b5f5f6002811115610b2957610b28610f0e565b5b826002811115610b3c57610b3b610f0e565b5b03610b5157670de0b6b3a76400009050610c03565b60016002811115610b6557610b64610f0e565b5b826002811115610b7857610b77610f0e565b5b03610b8d57671bc16d674ec800009050610c03565b600280811115610ba057610b9f610f0e565b5b826002811115610bb357610bb2610f0e565b5b03610bc857673782dace9d9000009050610c03565b6040517f08c379a0000000000000000000000000000000000000000000000000000000008152600401610bfa90611331565b60405180910390fd5b919050565b5f5ffd5b5f73ffffffffffffffffffffffffffffffffffffffff82169050919050565b5f610c3582610c0c565b9050919050565b610c4581610c2b565b8114610c4f575f5ffd5b50565b5f81359050610c6081610c3c565b92915050565b60038110610c72575f5ffd5b50565b5f81359050610c8381610c66565b92915050565b5f5f60408385031215610c9f57610c9e610c08565b5b5f610cac85828601610c52565b9250506020610cbd85828601610c75565b9150509250929050565b5f819050919050565b610cd981610cc7565b82525050565b5f602082019050610cf25f830184610cd0565b92915050565b5f60208284031215610d0d57610d0c610c08565b5b5f610d1a84828501610c75565b91505092915050565b5f60208284031215610d3857610d37610c08565b5b5f610d4584828501610c52565b91505092915050565b610d5781610cc7565b8114610d61575f5ffd5b50565b5f81359050610d7281610d4e565b92915050565b5f5f60408385031215610d8e57610d8d610c08565b5b5f610d9b85828601610c75565b9250506020610dac85828601610d64565b9150509250929050565b5f5f5f60608486031215610dcd57610dcc610c08565b5b5f610dda86828701610c52565b9350506020610deb86828701610c75565b9250506040610dfc86828701610d64565b9150509250925092565b610e0f81610c2b565b82525050565b5f602082019050610e285f830184610e06565b92915050565b5f82825260208201905092915050565b7f4e6f742061646d696e00000000000000000000000000000000000000000000005f82015250565b5f610e72600983610e2e565b9150610e7d82610e3e565b602082019050919050565b5f6020820190508181035f830152610e9f81610e66565b9050919050565b7f47616d65207a65726f00000000000000000000000000000000000000000000005f82015250565b5f610eda600983610e2e565b9150610ee582610ea6565b602082019050919050565b5f6020820190508181035f830152610f0781610ece565b9050919050565b7f4e487b71000000000000000000000000000000000000000000000000000000005f52602160045260245ffd5b7f41646d696e207a65726f000000000000000000000000000000000000000000005f82015250565b5f610f6f600a83610e2e565b9150610f7a82610f3b565b602082019050919050565b5f6020820190508181035f830152610f9c81610f63565b9050919050565b7f416d6f756e74207a65726f0000000000000000000000000000000000000000005f82015250565b5f610fd7600b83610e2e565b9150610fe282610fa3565b602082019050919050565b5f6020820190508181035f83015261100481610fcb565b9050919050565b7f4e487b71000000000000000000000000000000000000000000000000000000005f52601160045260245ffd5b5f61104282610cc7565b915061104d83610cc7565b925082820261105b81610cc7565b915082820484148315176110725761107161100b565b5b5092915050565b7f496e73756666696369656e74207061796d656e740000000000000000000000005f82015250565b5f6110ad601483610e2e565b91506110b882611079565b602082019050919050565b5f6020820190508181035f8301526110da816110a1565b9050919050565b5f6110eb82610cc7565b91506110f683610cc7565b925082820190508082111561110e5761110d61100b565b5b92915050565b5f61111e82610cc7565b915061112983610cc7565b92508282039050818111156111415761114061100b565b5b92915050565b5f81905092915050565b50565b5f61115f5f83611147565b915061116a82611151565b5f82019050919050565b5f61117e82611154565b9150819050919050565b7f526566756e64206661696c6564000000000000000000000000000000000000005f82015250565b5f6111bc600d83610e2e565b91506111c782611188565b602082019050919050565b5f6020820190508181035f8301526111e9816111b0565b9050919050565b5f6040820190506112035f830185610cd0565b6112106020830184610cd0565b9392505050565b7f4e6f742067616d650000000000000000000000000000000000000000000000005f82015250565b5f61124b600883610e2e565b915061125682611217565b602082019050919050565b5f6020820190508181035f8301526112788161123f565b9050919050565b7f496e73756666696369656e7420626169740000000000000000000000000000005f82015250565b5f6112b3601183610e2e565b91506112be8261127f565b602082019050919050565b5f6020820190508181035f8301526112e0816112a7565b9050919050565b7f496e76616c6964206261697420747970650000000000000000000000000000005f82015250565b5f61131b601183610e2e565b9150611326826112e7565b602082019050919050565b5f6020820190508181035f8301526113488161130f565b905091905056fea26469706673582212203fdf9b51d6266c8ae7fb12fd144d3838a9084a985d5d86d23a3a24bc79671dcf64736f6c634300081e0033","linkReferences":{}},"methodIdentifiers":{"COMMON_PRICE()":"d5199899","EPIC_PRICE()":"cedc0b34","RARE_PRICE()":"2e119c79","admin()":"f851a440","baitBalance(address,uint8)":"1929960d","balanceOf(address,uint8)":"67412045","consumeBait(address,uint8,uint256)":"e5f03814","fishingGame()":"ed1b2a9e","getBaitPrice(uint8)":"4113fea7","purchaseBait(uint8,uint256)":"b9f284a7","setAdmin(address)":"704b6c02","setFishingGame(address)":"5d10a70f"},"id":39}