{"abi":[{"type":"constructor","inputs":[{"name":"_admin","type":"address","internalType":"address"},{"name":"_staking","type":"address","internalType":"contract FishItStaking"},{"name":"_fishNFT","type":"address","internalType":"contract FishNFT"}],"stateMutability":"nonpayable"},{"type":"function","name":"admin","inputs":[],"outputs":[{"name":"","type":"address","internalType":"address"}],"stateMutability":"view"},{"type":"function","name":"canAccessZone","inputs":[{"name":"user","type":"address","internalType":"address"},{"name":"zone","type":"uint8","internalType":"enum ZoneValidator.Zone"}],"outputs":[{"name":"canAccess","type":"bool","internalType":"bool"},{"name":"reason","type":"string","internalType":"string"}],"stateMutability":"view"},{"type":"function","name":"fishNFT","inputs":[],"outputs":[{"name":"","type":"address","internalType":"contract FishNFT"}],"stateMutability":"view"},{"type":"function","name":"fishingGame","inputs":[],"outputs":[{"name":"","type":"address","internalType":"address"}],"stateMutability":"view"},{"type":"function","name":"getBurnRequirement","inputs":[{"name":"zone","type":"uint8","internalType":"enum ZoneValidator.Zone"}],"outputs":[{"name":"tier","type":"uint8","internalType":"enum FishNFT.Tier"},{"name":"amount","type":"uint256","internalType":"uint256"}],"stateMutability":"view"},{"type":"function","name":"getEntryFee","inputs":[{"name":"zone","type":"uint8","internalType":"enum ZoneValidator.Zone"}],"outputs":[{"name":"","type":"uint256","internalType":"uint256"}],"stateMutability":"view"},{"type":"function","name":"getNextAccessTime","inputs":[{"name":"user","type":"address","internalType":"address"},{"name":"zone","type":"uint8","internalType":"enum ZoneValidator.Zone"}],"outputs":[{"name":"","type":"uint256","internalType":"uint256"}],"stateMutability":"view"},{"type":"function","name":"lastZoneAccess","inputs":[{"name":"","type":"address","internalType":"address"},{"name":"","type":"uint8","internalType":"enum ZoneValidator.Zone"}],"outputs":[{"name":"","type":"uint256","internalType":"uint256"}],"stateMutability":"view"},{"type":"function","name":"recordZoneAccess","inputs":[{"name":"user","type":"address","internalType":"address"},{"name":"zone","type":"uint8","internalType":"enum ZoneValidator.Zone"}],"outputs":[],"stateMutability":"nonpayable"},{"type":"function","name":"requiresEpicBaitOnly","inputs":[{"name":"zone","type":"uint8","internalType":"enum ZoneValidator.Zone"}],"outputs":[{"name":"","type":"bool","internalType":"bool"}],"stateMutability":"view"},{"type":"function","name":"setAdmin","inputs":[{"name":"_newAdmin","type":"address","internalType":"address"}],"outputs":[],"stateMutability":"nonpayable"},{"type":"function","name":"setFishingGame","inputs":[{"name":"_fishingGame","type":"address","internalType":"address"}],"outputs":[],"stateMutability":"nonpayable"},{"type":"function","name":"staking","inputs":[],"outputs":[{"name":"","type":"address","internalType":"contract FishItStaking"}],"stateMutability":"view"},{"type":"function","name":"updateZoneRequirements","inputs":[{"name":"zone","type":"uint8","internalType":"enum ZoneValidator.Zone"},{"name":"requirements","type":"tuple","internalType":"struct ZoneValidator.ZoneRequirements","components":[{"name":"minStake","type":"uint256","internalType":"uint256"},{"name":"entryFee","type":"uint256","internalType":"uint256"},{"name":"burnTier","type":"uint8","internalType":"enum FishNFT.Tier"},{"name":"burnAmount","type":"uint256","internalType":"uint256"},{"name":"epicBaitOnly","type":"bool","internalType":"bool"},{"name":"cooldown","type":"uint256","internalType":"uint256"}]}],"outputs":[],"stateMutability":"nonpayable"},{"type":"function","name":"zoneRequirements","inputs":[{"name":"","type":"uint8","internalType":"enum ZoneValidator.Zone"}],"outputs":[{"name":"minStake","type":"uint256","internalType":"uint256"},{"name":"entryFee","type":"uint256","internalType":"uint256"},{"name":"burnTier","type":"uint8","internalType":"enum FishNFT.Tier"},{"name":"burnAmount","type":"uint256","internalType":"uint256"},{"name":"epicBaitOnly","type":"bool","internalType":"bool"},{"name":"cooldown","type":"uint256","internalType":"uint256"}],"stateMutability":"view"},{"type":"event","name":"FishingGameUpdated","inputs":[{"name":"oldGame","type":"address","indexed":true,"internalType":"address"},{"name":"newGame","type":"address","indexed":true,"internalType":"address"}],"anonymous":false},{"type":"event","name":"ZoneAccessRecorded","inputs":[{"name":"user","type":"address","indexed":true,"internalType":"address"},{"name":"zone","type":"uint8","indexed":false,"internalType":"enum ZoneValidator.Zone"},{"name":"timestamp","type":"uint256","indexed":false,"internalType":"uint256"}],"anonymous":false},{"type":"event","name":"ZoneRequirementsUpdated","inputs":[{"name":"zone","type":"uint8","indexed":false,"internalType":"enum ZoneValidator.Zone"},{"name":"requirements","type":"tuple","indexed":false,"internalType":"struct ZoneValidator.ZoneRequirements","components":[{"name":"minStake","type":"uint256","internalType":"uint256"},{"name":"entryFee","type":"uint256","internalType":"uint256"},{"name":"burnTier","type":"uint8","internalType":"enum FishNFT.Tier"},{"name":"burnAmount","type":"uint256","internalType":"uint256"},{"name":"epicBaitOnly","type":"bool","internalType":"bool"},{"name":"cooldown","type":"uint256","internalType":"uint256"}]}],"anonymous":false}],"bytecode":{"object":"0x608060405234801561000f575f5ffd5b5060405161232838038061232883398181016040528101906100319190610702565b5f73ffffffffffffffffffffffffffffffffffffffff168373ffffffffffffffffffffffffffffffffffffffff160361009f576040517f08c379a0000000000000000000000000000000000000000000000000000000008152600401610096906107ac565b60405180910390fd5b5f73ffffffffffffffffffffffffffffffffffffffff168273ffffffffffffffffffffffffffffffffffffffff160361010d576040517f08c379a000000000000000000000000000000000000000000000000000000000815260040161010490610814565b60405180910390fd5b5f73ffffffffffffffffffffffffffffffffffffffff168173ffffffffffffffffffffffffffffffffffffffff160361017b576040517f08c379a00000000000000000000000000000000000000000000000000000000081526004016101729061087c565b60405180910390fd5b825f5f6101000a81548173ffffffffffffffffffffffffffffffffffffffff021916908373ffffffffffffffffffffffffffffffffffffffff1602179055508160015f6101000a81548173ffffffffffffffffffffffffffffffffffffffff021916908373ffffffffffffffffffffffffffffffffffffffff1602179055508060025f6101000a81548173ffffffffffffffffffffffffffffffffffffffff021916908373ffffffffffffffffffffffffffffffffffffffff1602179055506040518060c001604052805f81526020015f8152602001600160048111156102655761026461089a565b5b81526020015f81526020015f151581526020015f81525060045f5f60038111156102925761029161089a565b5b60038111156102a4576102a361089a565b5b81526020019081526020015f205f820151815f0155602082015181600101556040820151816002015f6101000a81548160ff021916908360048111156102ed576102ec61089a565b5b0217905550606082015181600301556080820151816004015f6101000a81548160ff02191690831515021790555060a082015181600501559050506040518060c0016040528068056bc75e2d6310000081526020015f81526020016001600481111561035c5761035b61089a565b5b8152602001600381526020015f151581526020015f81525060045f6001600381111561038b5761038a61089a565b5b600381111561039d5761039c61089a565b5b81526020019081526020015f205f820151815f0155602082015181600101556040820151816002015f6101000a81548160ff021916908360048111156103e6576103e561089a565b5b0217905550606082015181600301556080820151816004015f6101000a81548160ff02191690831515021790555060a082015181600501559050506040518060c00160405280680d8d726b7177a800008152602001670de0b6b3a764000081526020016002600481111561045d5761045c61089a565b5b8152602001600281526020015f151581526020015f81525060045f6002600381111561048c5761048b61089a565b5b600381111561049e5761049d61089a565b5b81526020019081526020015f205f820151815f0155602082015181600101556040820151816002015f6101000a81548160ff021916908360048111156104e7576104e661089a565b5b0217905550606082015181600301556080820151816004015f6101000a81548160ff02191690831515021790555060a082015181600501559050506040518060c00160405280681b1ae4d6e2ef50000081526020016729a2241af62c000081526020016003600481111561055e5761055d61089a565b5b8152602001600181526020016001151581526020016201518081525060045f6003808111156105905761058f61089a565b5b60038111156105a2576105a161089a565b5b81526020019081526020015f205f820151815f0155602082015181600101556040820151816002015f6101000a81548160ff021916908360048111156105eb576105ea61089a565b5b0217905550606082015181600301556080820151816004015f6101000a81548160ff02191690831515021790555060a082015181600501559050505050506108c7565b5f5ffd5b5f73ffffffffffffffffffffffffffffffffffffffff82169050919050565b5f61065b82610632565b9050919050565b61066b81610651565b8114610675575f5ffd5b50565b5f8151905061068681610662565b92915050565b5f61069682610651565b9050919050565b6106a68161068c565b81146106b0575f5ffd5b50565b5f815190506106c18161069d565b92915050565b5f6106d182610651565b9050919050565b6106e1816106c7565b81146106eb575f5ffd5b50565b5f815190506106fc816106d8565b92915050565b5f5f5f606084860312156107195761071861062e565b5b5f61072686828701610678565b9350506020610737868287016106b3565b9250506040610748868287016106ee565b9150509250925092565b5f82825260208201905092915050565b7f41646d696e207a65726f000000000000000000000000000000000000000000005f82015250565b5f610796600a83610752565b91506107a182610762565b602082019050919050565b5f6020820190508181035f8301526107c38161078a565b9050919050565b7f5374616b696e67207a65726f00000000000000000000000000000000000000005f82015250565b5f6107fe600c83610752565b9150610809826107ca565b602082019050919050565b5f6020820190508181035f83015261082b816107f2565b9050919050565b7f4e4654207a65726f0000000000000000000000000000000000000000000000005f82015250565b5f610866600883610752565b915061087182610832565b602082019050919050565b5f6020820190508181035f8301526108938161085a565b9050919050565b7f4e487b71000000000000000000000000000000000000000000000000000000005f52602160045260245ffd5b611a54806108d45f395ff3fe608060405234801561000f575f5ffd5b50600436106100f3575f3560e01c8063940fccd511610095578063ed1b2a9e11610064578063ed1b2a9e14610295578063ed3ff51a146102b3578063f851a440146102e3578063fe0abbc614610301576100f3565b8063940fccd5146101fa578063959da2cf1461022a578063be226d9514610248578063de9bab3714610264576100f3565b8063390dec79116100d1578063390dec79146101885780634cf088d9146101a45780635d10a70f146101c2578063704b6c02146101de576100f3565b80630d4158c2146100f757806317050d3f146101275780631aa083b714610158575b5f5ffd5b610111600480360381019061010c9190610f54565b610336565b60405161011e9190610f97565b60405180910390f35b610141600480360381019061013c919061100a565b610377565b60405161014f9291906110d2565b60405180910390f35b610172600480360381019061016d919061100a565b610636565b60405161017f9190610f97565b60405180910390f35b6101a2600480360381019061019d919061100a565b610656565b005b6101ac6107ae565b6040516101b9919061115b565b60405180910390f35b6101dc60048036038101906101d79190611174565b6107d3565b005b6101f860048036038101906101f39190611174565b61098d565b005b610214600480360381019061020f919061100a565b610acb565b6040516102219190610f97565b60405180910390f35b610232610c3e565b60405161023f91906111bf565b60405180910390f35b610262600480360381019061025d91906111fa565b610c63565b005b61027e60048036038101906102799190610f54565b610d73565b60405161028c9291906112ab565b60405180910390f35b61029d610e47565b6040516102aa91906112e1565b60405180910390f35b6102cd60048036038101906102c89190610f54565b610e6c565b6040516102da91906112fa565b60405180910390f35b6102eb610eb9565b6040516102f891906112e1565b60405180910390f35b61031b60048036038101906103169190610f54565b610edd565b60405161032d96959493929190611313565b60405180910390f35b5f60045f83600381111561034d5761034c611238565b5b600381111561035f5761035e611238565b5b81526020019081526020015f20600101549050919050565b5f60605f60045f85600381111561039157610390611238565b5b60038111156103a3576103a2611238565b5b81526020019081526020015f206040518060c00160405290815f820154815260200160018201548152602001600282015f9054906101000a900460ff1660048111156103f2576103f1611238565b5b600481111561040457610403611238565b5b815260200160038201548152602001600482015f9054906101000a900460ff1615151515815260200160058201548152505090505f815f0151111561052e575f60015f9054906101000a900473ffffffffffffffffffffffffffffffffffffffff1673ffffffffffffffffffffffffffffffffffffffff166316934fc4876040518263ffffffff1660e01b815260040161049e91906112e1565b602060405180830381865afa1580156104b9573d5f5f3e3d5ffd5b505050506040513d601f19601f820116820180604052508101906104dd919061139c565b9050815f015181101561052c575f6040518060400160405280601e81526020017f496e73756666696369656e74207374616b6520666f72206c6963656e7365000081525093509350505061062f565b505b5f8160a001511115610618575f60055f8773ffffffffffffffffffffffffffffffffffffffff1673ffffffffffffffffffffffffffffffffffffffff1681526020019081526020015f205f86600381111561058c5761058b611238565b5b600381111561059e5761059d611238565b5b81526020019081526020015f205490505f811115610616575f8260a00151826105c791906113f4565b905080421015610614575f6040518060400160405280601481526020017f5a6f6e6520636f6f6c646f776e206163746976650000000000000000000000008152509450945050505061062f565b505b505b600160405180602001604052805f81525092509250505b9250929050565b6005602052815f5260405f20602052805f5260405f205f91509150505481565b60035f9054906101000a900473ffffffffffffffffffffffffffffffffffffffff1673ffffffffffffffffffffffffffffffffffffffff163373ffffffffffffffffffffffffffffffffffffffff16146106e5576040517f08c379a00000000000000000000000000000000000000000000000000000000081526004016106dc90611471565b60405180910390fd5b4260055f8473ffffffffffffffffffffffffffffffffffffffff1673ffffffffffffffffffffffffffffffffffffffff1681526020019081526020015f205f83600381111561073757610736611238565b5b600381111561074957610748611238565b5b81526020019081526020015f20819055508173ffffffffffffffffffffffffffffffffffffffff167f1dec29a000d6b29ed8f604bc2beb15384e322b44aecbfe3d1599aeb537a3423d82426040516107a29291906114d5565b60405180910390a25050565b60015f9054906101000a900473ffffffffffffffffffffffffffffffffffffffff1681565b5f5f9054906101000a900473ffffffffffffffffffffffffffffffffffffffff1673ffffffffffffffffffffffffffffffffffffffff163373ffffffffffffffffffffffffffffffffffffffff1614610861576040517f08c379a000000000000000000000000000000000000000000000000000000000815260040161085890611546565b60405180910390fd5b5f73ffffffffffffffffffffffffffffffffffffffff168173ffffffffffffffffffffffffffffffffffffffff16036108cf576040517f08c379a00000000000000000000000000000000000000000000000000000000081526004016108c6906115ae565b60405180910390fd5b8073ffffffffffffffffffffffffffffffffffffffff1660035f9054906101000a900473ffffffffffffffffffffffffffffffffffffffff1673ffffffffffffffffffffffffffffffffffffffff167f8e6667b723f2bd4279dc72e5323f77c3884a5af21aed9a7316b045861ce8766460405160405180910390a38060035f6101000a81548173ffffffffffffffffffffffffffffffffffffffff021916908373ffffffffffffffffffffffffffffffffffffffff16021790555050565b5f5f9054906101000a900473ffffffffffffffffffffffffffffffffffffffff1673ffffffffffffffffffffffffffffffffffffffff163373ffffffffffffffffffffffffffffffffffffffff1614610a1b576040517f08c379a0000000000000000000000000000000000000000000000000000000008152600401610a1290611546565b60405180910390fd5b5f73ffffffffffffffffffffffffffffffffffffffff168173ffffffffffffffffffffffffffffffffffffffff1603610a89576040517f08c379a0000000000000000000000000000000000000000000000000000000008152600401610a8090611616565b60405180910390fd5b805f5f6101000a81548173ffffffffffffffffffffffffffffffffffffffff021916908373ffffffffffffffffffffffffffffffffffffffff16021790555050565b5f5f60045f846003811115610ae357610ae2611238565b5b6003811115610af557610af4611238565b5b81526020019081526020015f206040518060c00160405290815f820154815260200160018201548152602001600282015f9054906101000a900460ff166004811115610b4457610b43611238565b5b6004811115610b5657610b55611238565b5b815260200160038201548152602001600482015f9054906101000a900460ff1615151515815260200160058201548152505090505f8160a0015103610b9e575f915050610c38565b5f60055f8673ffffffffffffffffffffffffffffffffffffffff1673ffffffffffffffffffffffffffffffffffffffff1681526020019081526020015f205f856003811115610bf057610bef611238565b5b6003811115610c0257610c01611238565b5b81526020019081526020015f205490505f8103610c23575f92505050610c38565b8160a0015181610c3391906113f4565b925050505b92915050565b60025f9054906101000a900473ffffffffffffffffffffffffffffffffffffffff1681565b5f5f9054906101000a900473ffffffffffffffffffffffffffffffffffffffff1673ffffffffffffffffffffffffffffffffffffffff163373ffffffffffffffffffffffffffffffffffffffff1614610cf1576040517f08c379a0000000000000000000000000000000000000000000000000000000008152600401610ce890611546565b60405180910390fd5b8060045f846003811115610d0857610d07611238565b5b6003811115610d1a57610d19611238565b5b81526020019081526020015f208181610d339190611895565b9050507f23e733a708a5c7e67b1a9d75c17e52941d322e012a6ddd06431ed27f2b90a1448282604051610d679291906119f7565b60405180910390a15050565b5f5f5f60045f856003811115610d8c57610d8b611238565b5b6003811115610d9e57610d9d611238565b5b81526020019081526020015f206040518060c00160405290815f820154815260200160018201548152602001600282015f9054906101000a900460ff166004811115610ded57610dec611238565b5b6004811115610dff57610dfe611238565b5b815260200160038201548152602001600482015f9054906101000a900460ff161515151581526020016005820154815250509050806040015181606001519250925050915091565b60035f9054906101000a900473ffffffffffffffffffffffffffffffffffffffff1681565b5f60045f836003811115610e8357610e82611238565b5b6003811115610e9557610e94611238565b5b81526020019081526020015f206004015f9054906101000a900460ff169050919050565b5f5f9054906101000a900473ffffffffffffffffffffffffffffffffffffffff1681565b6004602052805f5260405f205f91509050805f015490806001015490806002015f9054906101000a900460ff1690806003015490806004015f9054906101000a900460ff16908060050154905086565b5f5ffd5b60048110610f3d575f5ffd5b50565b5f81359050610f4e81610f31565b92915050565b5f60208284031215610f6957610f68610f2d565b5b5f610f7684828501610f40565b91505092915050565b5f819050919050565b610f9181610f7f565b82525050565b5f602082019050610faa5f830184610f88565b92915050565b5f73ffffffffffffffffffffffffffffffffffffffff82169050919050565b5f610fd982610fb0565b9050919050565b610fe981610fcf565b8114610ff3575f5ffd5b50565b5f8135905061100481610fe0565b92915050565b5f5f604083850312156110205761101f610f2d565b5b5f61102d85828601610ff6565b925050602061103e85828601610f40565b9150509250929050565b5f8115159050919050565b61105c81611048565b82525050565b5f81519050919050565b5f82825260208201905092915050565b8281835e5f83830152505050565b5f601f19601f8301169050919050565b5f6110a482611062565b6110ae818561106c565b93506110be81856020860161107c565b6110c78161108a565b840191505092915050565b5f6040820190506110e55f830185611053565b81810360208301526110f7818461109a565b90509392505050565b5f819050919050565b5f61112361111e61111984610fb0565b611100565b610fb0565b9050919050565b5f61113482611109565b9050919050565b5f6111458261112a565b9050919050565b6111558161113b565b82525050565b5f60208201905061116e5f83018461114c565b92915050565b5f6020828403121561118957611188610f2d565b5b5f61119684828501610ff6565b91505092915050565b5f6111a98261112a565b9050919050565b6111b98161119f565b82525050565b5f6020820190506111d25f8301846111b0565b92915050565b5f5ffd5b5f60c082840312156111f1576111f06111d8565b5b81905092915050565b5f5f60e083850312156112105761120f610f2d565b5b5f61121d85828601610f40565b925050602061122e858286016111dc565b9150509250929050565b7f4e487b71000000000000000000000000000000000000000000000000000000005f52602160045260245ffd5b6005811061127657611275611238565b5b50565b5f81905061128682611265565b919050565b5f61129582611279565b9050919050565b6112a58161128b565b82525050565b5f6040820190506112be5f83018561129c565b6112cb6020830184610f88565b9392505050565b6112db81610fcf565b82525050565b5f6020820190506112f45f8301846112d2565b92915050565b5f60208201905061130d5f830184611053565b92915050565b5f60c0820190506113265f830189610f88565b6113336020830188610f88565b611340604083018761129c565b61134d6060830186610f88565b61135a6080830185611053565b61136760a0830184610f88565b979650505050505050565b61137b81610f7f565b8114611385575f5ffd5b50565b5f8151905061139681611372565b92915050565b5f602082840312156113b1576113b0610f2d565b5b5f6113be84828501611388565b91505092915050565b7f4e487b71000000000000000000000000000000000000000000000000000000005f52601160045260245ffd5b5f6113fe82610f7f565b915061140983610f7f565b9250828201905080821115611421576114206113c7565b5b92915050565b7f4e6f742067616d650000000000000000000000000000000000000000000000005f82015250565b5f61145b60088361106c565b915061146682611427565b602082019050919050565b5f6020820190508181035f8301526114888161144f565b9050919050565b600481106114a05761149f611238565b5b50565b5f8190506114b08261148f565b919050565b5f6114bf826114a3565b9050919050565b6114cf816114b5565b82525050565b5f6040820190506114e85f8301856114c6565b6114f56020830184610f88565b9392505050565b7f4e6f742061646d696e00000000000000000000000000000000000000000000005f82015250565b5f61153060098361106c565b915061153b826114fc565b602082019050919050565b5f6020820190508181035f83015261155d81611524565b9050919050565b7f47616d65207a65726f00000000000000000000000000000000000000000000005f82015250565b5f61159860098361106c565b91506115a382611564565b602082019050919050565b5f6020820190508181035f8301526115c58161158c565b9050919050565b7f41646d696e207a65726f000000000000000000000000000000000000000000005f82015250565b5f611600600a8361106c565b915061160b826115cc565b602082019050919050565b5f6020820190508181035f83015261162d816115f4565b9050919050565b5f813561164081611372565b80915050919050565b5f815f1b9050919050565b5f7fffffffffffffffffffffffffffffffffffffffffffffffffffffffffffffffff61167f84611649565b9350801983169250808416831791505092915050565b5f6116af6116aa6116a584610f7f565b611100565b610f7f565b9050919050565b5f819050919050565b6116c882611695565b6116db6116d4826116b6565b8354611654565b8255505050565b600581106116ee575f5ffd5b50565b5f81356116fd816116e2565b80915050919050565b5f60ff61171284611649565b9350801983169250808416831791505092915050565b5f61173282611279565b9050919050565b5f819050919050565b61174b82611728565b61175e61175782611739565b8354611706565b8255505050565b61176e81611048565b8114611778575f5ffd5b50565b5f813561178781611765565b80915050919050565b5f61179a82611048565b9050919050565b5f819050919050565b6117b382611790565b6117c66117bf826117a1565b8354611706565b8255505050565b5f81015f8301806117dd81611634565b90506117e981846116bf565b5050506001810160208301806117fe81611634565b905061180a81846116bf565b50505060028101604083018061181f816116f1565b905061182b8184611742565b50505060038101606083018061184081611634565b905061184c81846116bf565b5050506004810160808301806118618161177b565b905061186d81846117aa565b5050506005810160a083018061188281611634565b905061188e81846116bf565b5050505050565b61189f82826117cd565b5050565b5f813590506118b181611372565b92915050565b5f6118c560208401846118a3565b905092915050565b6118d681610f7f565b82525050565b5f813590506118ea816116e2565b92915050565b5f6118fe60208401846118dc565b905092915050565b61190f8161128b565b82525050565b5f8135905061192381611765565b92915050565b5f6119376020840184611915565b905092915050565b61194881611048565b82525050565b60c0820161195e5f8301836118b7565b61196a5f8501826118cd565b5061197860208301836118b7565b61198560208501826118cd565b5061199360408301836118f0565b6119a06040850182611906565b506119ae60608301836118b7565b6119bb60608501826118cd565b506119c96080830183611929565b6119d6608085018261193f565b506119e460a08301836118b7565b6119f160a08501826118cd565b50505050565b5f60e082019050611a0a5f8301856114c6565b611a17602083018461194e565b939250505056fea2646970667358221220f9dbc82fd227a3895232d42e454de7faf7978468f326566c1c5d6aa50cc4bf2164736f6c634300081e0033","linkReferences":{}},"methodIdentifiers":{"admin()":"f851a440","canAccessZone(address,uint8)":"17050d3f","fishNFT()":"959da2cf","fishingGame()":"ed1b2a9e","getBurnRequirement(uint8)":"de9bab37","getEntryFee(uint8)":"0d4158c2","getNextAccessTime(address,uint8)":"940fccd5","lastZoneAccess(address,uint8)":"1aa083b7","recordZoneAccess(address,uint8)":"390dec79","requiresEpicBaitOnly(uint8)":"ed3ff51a","setAdmin(address)":"704b6c02","setFishingGame(address)":"5d10a70f","staking()":"4cf088d9","updateZoneRequirements(uint8,(uint256,uint256,uint8,uint256,bool,uint256))":"be226d95","zoneRequirements(uint8)":"fe0abbc6"},"id":45}